:02000002B0004C
:1040000000400B0034FB0B00000006000D00050211
:0840100004010410000000008F
:044018009CE20B001B
:1040200009480A49884208B505D0094A824202D0A7
:10403000121A09F069FE0748074A0021121A09F00E
:104040008BFE014808BD00BF30E30320E8F90B00F8
:1040500050E4032050E40320F0E7032070B5074E3E
:10406000074C08F049FEA41BA4080025AC4200D16F
:1040700070BD56F8043B98470135F7E77CF90B0013
:10408000B4F90B0000F06ABA08B500F093FBBDE884
:10409000084008F0E9BD05F0BDBE05F0BBBE05F067
:1040A000C1BE000008B5034A03490C2005F03EFDDF
:1040B000FEE700BF3D970B00B0E20B000078B0FABE
:1040C00080F040097047012303707047014B1A606C
:1040D000704700BF30E30320014B01221A70704784
:1040E0009CE5032030B585B00446089860B140686F
:1040F00050B1856845B1CDE90241CDE90023C468DE
:1041000001AB6A4602A9A04705B030BD30B585B005
:10411000006813680193D1E900458368CDE9024541
:104120000BB908F08DFFC36801AA02A9984705B032
:1041300030BD012A02D1016000207047022A04BF6D
:104140000B680360F8E703681268D1E900011847BB
:1041500010B58368044613B10322014698472046F0
:1041600010BD10B5044638B1FFF7F2FF204610210C
:10417000BDE81040FFF793BF10BD0EB400B58CB082
:104180000DAA4FF0200C52F8041B0392CDE9001247
:104190000023016804AA1E20CDE904C305F0D6FC63
:1041A0000CB05DF804EB03B07047000070B5134E1F
:1041B000134C3278134D022AC2B017D108F0FEFB1F
:1041C00032782B7804EB0212009204EB031398B9B7
:1041D0000D4A4FF4807102A805F044FE33780B4875
:1041E0002B7002A9FFF7C9FF42B070BD2B7804EB1A
:1041F0000212009204EB0313054AEAE792E503205A
:1042000034E3032091E50320C5E20B0044E60320DC
:10421000E5E20B0070B5054605F098FA064E044637
:1042200005F094FA001BA84205D205F08FFA306021
:1042300005F040FDF4E770BD0CE7032038B500231E
:1042400083608B6804460D462BB102229847EB68C9
:10425000E360AB68A360204638BD00002DE9F04361
:1042600095B005461C9904A890461F460CAEFFF772
:10427000E5FF04A908A8FFF7E1FF08A93046FFF70A
:10428000DDFF4FF000091020CDF84890FFF703FF45
:104290000446A0B196E8030001AB83E8030094E86C
:1042A000030086E8030093E803000E9BE268A36026
:1042B00084E803000F9BCDF838900F92E360244B05
:1042C0001393244B1293002200234FF00009C5E9F9
:1042D0000023214BC5F8089010201094CDE9013936
:1042E000CDF80C90FFF7D7FE0446D8B1129BC0F86A
:1042F000089033B1022210A99847139BE360129BE8
:10430000A360164B0393164A029401AB404639460C
:1043100005F066FCB0B12046FFF71AFF10212046D9
:10432000FFF7BDFE10A8FFF713FF3046FFF710FFA1
:1043300008A8FFF70DFF04A8FFF70AFF284615B0ED
:10434000BDE8F083029BAB60C5E90087EAE700BFE8
:104350000D410B0065430B0002000C0063410B0094
:10436000E5400B00012A37B5044604D10B68036011
:10437000002003B030BD022A0CD0032AF8D1046813
:10438000002CF5D02046FFF7E3FE10212046FFF772
:1043900086FEEDE7096801911020FFF77CFE0546D7
:1043A00010B10199FFF74AFF2560E1E738B50468CD
:1043B00005467CB16368013B63605BB923682046B6
:1043C0009B689847A368013BA3601BB923682046FC
:1043D000DB689847284638BD10B50B7894B00C467A
:1043E000F3B9224904A809F00EFD00F085FD00F0A4
:1043F00096FE78B105F06EFC60B11D4B1D491B782F
:104400008DF8003002A83C2304AA06F04FF803A858
:10441000FFF7CCFF184804A9FFF7AFFE14B010BD9A
:10442000084609F047FCC82811D1144904A809F02E
:10443000EAFC134B00221A7000F05EFD044608F0FF
:10444000DAFA0246C317204600F0F6FECDE7204612
:1044500009F030FCC928E8D0204609F02BFC094AB5
:104460000346402104A805F0FDFCBEE7F3E20B0083
:1044700054E403202AE30B0044E60320FBE20B0094
:1044800090E503200DE30B001FB505F023FC60B1A0
:10449000124B134A1B788DF8003002A811493C23B7
:1044A00006F004F803A8FFF781FF0F490F48FFF754
:1044B00064FE00F021FD002100F05DFE00F01CFD17
:1044C00000F032FE18B900F075FD01F039F800F087
:1044D00071FD05B05DF804EB00F0B8BE54E40320B4
:1044E00037E30B0047E30B003FE30B0044E60320F8
:1044F000154B10B501241C7008F030FC00231A463F
:10450000214608F03BFC08F029FC00230D211A4647
:1045100008F02CFC0D4B0E481C751A1D1A600D4A34
:104520005A600022C3E902221A61062340F8043BC4
:1045300002F012FF08F0F2FCBDE8104001466922CB
:10454000054804F021BC00BF54E4032088E40320A4
:10455000A0E403201000030068E403202DE9F041EB
:10456000C0B006A805F0BEFB00237D2220A906A846
:1045700007F0AEFF00237C497C4F7D4D7D4C1A46F1
:10458000CDE9003320A805F0BDFB0AAB4FF4802233
:10459000009302A800230A970D950C94FFF75EFE86
:1045A0000AA8FFF7D5FD01F0AFF801F0BFF801F060
:1045B000FDFC714B1E880121304608F036FC01F0ED
:1045C00019FD4FF4FA60FFF725FE00F095FC036833
:1045D0001B68984700F0EEFC03681B68984703F0DF
:1045E0002BFA03F035FC654808230121438104F0D0
:1045F000BBFF7C21614804F0B7FC0AAB4FF480227A
:10460000009302A80023CDE90C450A97FFF726FE88
:104610000AA8FFF79DFD01F01FFE594B594D1F8859
:10462000384608F01BFC50B957495848FFF7A5FD1C
:1046300004232B7000F060FC03689B69984700F02E
:104640005BFC00F0CCFD0C46804608F0F1F9C31786
:10465000A34208BF404514BF01200020002108F0FC
:10466000A9F828B14A494948FFF787FDFFF70CFF31
:1046700008F0A4F9002867D108F0BDF9C317024675
:104680000AA808F0B3F80A9A42494048FFF775FDB6
:104690000AA807F0E5FD04232B7002F03BFF3E491A
:1046A00004460AA802F00AFF0BA904F1080007F06B
:1046B0005EFE109BE36111A904F1200007F057FE94
:1046C000169B6363189BE3631A9B63641C9BE36400
:1046D0001E9B63659DF87C3084F858300AA802F070
:1046E000CDFC08F088F92D4BC217C3E91802184613
:1046F00002F088FF00224FF0FF332949009238462C
:1047000006F02AF92B780BB903232B7000F0F4FB89
:1047100000F065FD0B4623490091024622490AA894
:1047200008F00AF90A9A21491848FFF726FD0AA855
:1047300007F096FD0021304608F077FB06A807F049
:104740008FFD40B0BDE8F08108F055F9C31702466F
:104750000AA808F04BF80A9A15490C48FFF70DFD16
:104760000AA807F07DFD98E7D9430B00CD400B0068
:1047700047410B0033410B003AEC0B0068E4032087
:104780003CEC0B0092E5032055E30B0044E60320CC
:1047900087E30B00A1E30B00D8E30B00A0E40320A8
:1047A000D9400B00FFE30B0098E6032002E40B0066
:1047B000C5E30B002DE9F043A94C2DED028B2378C6
:1047C000013B99B0062B2BD8DFE813F04D02070010
:1047D0004800E5012A001B01BF01A24B1B78022BF8
:1047E00001D0FFF7E3FC00F087FB00F0A2FC50B122
:1047F00004F0ACFF9C4B1B68C01A9C4B1B68984292
:1048000084BF0323237008F007F9054600F074FB0A
:1048100000F0E0FC07F0C6FF854201D006232370BC
:10482000934804F04FFE00F0C5FB00F0DDFB00F004
:1048300063FB00F07BFB03F0FFF802F0EFFF8D4B12
:104840001B68002B05DB8C498C48FFF796FC012385
:10485000237019B0BDEC028BBDE8F083814B1B784F
:10486000032B01D0FFF7A2FC05F034FA30B100F0C1
:104870004BFF01F003FB30B90123D0E7804807F07C
:1048800041FA0028F3D008F0B6F84FF461667D4D88
:1048900090FBF6F202FB1606C6F56166B6F5616F8F
:1048A0002B7DA8BF4FF4616601360BB102222A723C
:1048B000754AB2F80080002B4BD02B68DB68F3B14F
:1048C0009A88012A06D09B68F9E79B68BBB19A8851
:1048D000012AFAD19A894245F7D100229A732B7D99
:1048E000002B36D02B684FF47A79DB6809FB06F988
:1048F000DBB19A88042A00F0DE819B68F8E76349FF
:10490000102008F093FB0746002800F0D781102202
:10491000002109F021FA5E4B3B600123BB802B692B
:10492000BB60A7F80C802F61D9E75849102008F028
:104930007DFB0746002800F0C1811022002109F00C
:104940000BFA534B3B600423BB802B692F61C7E9F3
:1049500002390021464804F007FB4A4905A807F040
:1049600059FE43484FF0FF3104F0FEFA059B43B374
:104970009A88012A25D19B89984525D145493F48E8
:10498000FFF7FBFB00F0B8FA002100F000FC00F09C
:10499000B3FA182100F09FFB00F0AEFA002100F0FE
:1049A00094FB324B3C4A1A6004F0D0FE2E4B186048
:1049B00004230598237000283FF432AF05F032FA43
:1049C0002EE74FF6FF73D7E74FF4FA60FFF722FCAC
:1049D00008F011F8314B324900938219D31708A817
:1049E00007F0AAFF089A039207F074FE039A2D4974
:1049F00003462248FFF7C1FB08A807F031FC022359
:104A0000D7E7184B1B78062B01D0FFF7CFFB00F040
:104A100073FA054607F0EFFF0246C317284600F079
:104A200001FC01F019FC07F0F7FF054600F064FAFD
:104A300000F013FB854201D1FFF726FD00F064FE74
:104A400000F0B6FE0423237005F044F960B3074B71
:104A5000114A1A6004F07AFE034B18600723DEE661
:104A600092E5032091E5032098E5032094E50320D7
:104A700068E4032030E303208AE50B0044E60320CA
:104A800000E6032088E403203CEC0B0058F70B0001
:104A90001000030028E40B00905F0100FFE30B000F
:104AA00098E6032065E40B0000F026FA00F046FBD0
:104AB000E8B900F021FA00F03CFB00283FF4B0AE6A
:104AC0007F4B188808F0CAF900283FF4A9AE00F01F
:104AD00071FA00F035FD9FED7B8AB4EEC80AF1EE65
:104AE00010FA10DD78497948FFF747FB98E6744BD8
:104AF000188808F0B3F90028DBD075497348FFF730
:104B00003CFB02238BE600F055FA00F019FDDFEDC7
:104B1000717AB4EEE70AF1EE10FA10D900F04AFA11
:104B200000F00EFDB4EEC80AF1EE10FA3FF678AED2
:104B300007F072FFC3077FF573AE6749DEE707F042
:104B40006BFF8207EAD06549D8E7654B654D1B7856
:104B5000072B07D004F0FAFD634B186001232B707C
:104B6000FFF724FB2B783BB9604B614A1A6004F0D5
:104B7000EDFD604B1860C4E704F0E8FD5A4B1B687C
:104B8000C01A47F2305398427FF64AAE5A494F480E
:104B9000FFF7F3FA70E6524B584E1B78042B0DD0FA
:104BA000574A137000F0A8F9002100F01BFCFFF732
:104BB000FDFA04F0CBFD306005F084F800F09CF9BC
:104BC000054604F0C3FD3168411A4FF47A70B1FB19
:104BD000F0F1284689B200F005FC05F07BF80028CA
:104BE00038D000F089F9054607F005FF0246C317E3
:104BF000284600F01CFB3D4B3D4A1A6004F0A6FD20
:104C00003C4B186001F068FA00F076F900F056FBB2
:104C10003C4A0346402108A805F024F908A92B487E
:104C2000FFF7ABFA00F068F900F079FA60B1364BA3
:104C300036491B788DF8003005A83C2308AA05F0FA
:104C400035FC06A8FFF7B2FB2D4B1B78062B7FF433
:104C500058AF03E700F050F900F030FBB0F5167FD5
:104C60007FF6DEAD08E61E4B1B78012B05D0FFF763
:104C70009DFA27491548FFF780FA264D264E2B78D6
:104C8000BFF35B8F13F0010F09D12846FFF716FA27
:104C900028B104F05BFD30602846FFF714FA04F0F9
:104CA00055FD3368C01A47F2305398427FF6B8ADCD
:104CB00007F0ADFCB4E5C3F80C904AE62F7548E662
:104CC0003CEC0B0000008242ADE40B0044E6032004
:104CD0008BE40B000000484204E50B00D1E40B001C
:104CE00091E5032090E5032060E4032094E5032090
:104CF000905F010098E5032038E50B0064E4032091
:104D00005CE4032054E50B0054E4032069E50B0048
:104D100072E50B0050E4032058E40320704710B5FF
:104D200008210446FFF7BBF9204610BD00B597B037
:104D30006946406809F090F9049817B05DF804FBE3
:104D400008B5406809F0C0F920EAE07008BD08B570
:104D5000406809F0A7F920EAE07008BD08B540688E
:104D600004F04CFEB0FA80F0400908BD10B50446CE
:104D70004068431C04D009F067F94FF0FF336360CB
:104D8000012010BD10B50446084611464FF4DB72F1
:104D900009F074F96060013018BF012010BD08B53A
:104DA0000029AEBF002202220021406809F05CF910
:104DB000C043C00F08BD10B5036804460BB904F02A
:104DC00075FC2068BDE8104004F080BC10B50A4BAB
:104DD00003600446406A10B103685B68984704F1B9
:104DE000280007F03DFA6068044B236008B104F026
:104DF00065FC204610BD00BF44F20B0020F20B0002
:104E000010B5034B03600446FFF7E0FF204610BDDA
:104E1000BCE60B0010B50446FFF7F2FF2046382130
:104E2000FFF73DF9204610BD10B5034B0360044663
:104E3000FFF7E6FF204610BD28E70B0010B504463B
:104E4000FFF7F2FF20469821FFF729F9204610BD11
:104E500010B5034B03600446FFF7D2FF204610BD98
:104E600054E70B0010B50446FFF7F2FF2046782107
:104E7000FFF715F9204610BD10B50446FFF7A6FF51
:104E800020463821FFF70BF9204610BD37B5154BEA
:104E900004461968019100F138050820FFF7FBF876
:104EA000019920B1104B03604FF0FF3343600023A2
:104EB0000E4AA361C4E901356025C4E90352022208
:104EC000A28284F820304FF47A72094B236060622A
:104ED000E26104F1280007F00EFA064B2360204639
:104EE00003B030BDB8E3032090E60B00759EA92007
:104EF00044F20B0028E70B0038B5064D2B683BB990
:104F00009820FFF7C8F8044608B1FFF7BFFF2C60F0
:104F1000286838BDA0E5032010B5FFF7EDFF642237
:104F20000368C261BDE810405B68184710B5FFF721
:104F3000E3FF0368BDE81040DB68002118470B461B
:104F40002722162103F022BE37B5154B04461968F7
:104F5000019100F138050820FFF79DF8019920B173
:104F6000104B03604FF0FF33436000230E4AA361F0
:104F7000C4E901354025C4E903520222A28284F823
:104F800020304FF47A72094B23606062E26104F1D1
:104F9000280007F0B0F9064B2360204603B030BD6F
:104FA000B4E3032090E60B00749EA92044F20B00AA
:104FB00054E70B0038B5064D2B683BB97820FFF756
:104FC0006AF8044608B1FFF7BFFF2C60286838BDB7
:104FD000A4E5032010B5FFF7EDFFFA220368C261D4
:104FE000BDE810405B68184710B5FFF7E3FF0368A2
:104FF000BDE81040DB680021184738B5044604308E
:105000000D46FFF7D8FEE368013B272B09D9A368BB
:1050100093F92820AA4204D083F82850204603F0B0
:10502000A9FD6068BDE8384004F058BB38B50446B7
:1050300004300D46FFF7BFFEE3686068013BAB42FA
:1050400026BFA3685D5D002504F048FB284638BDF7
:1050500008B51521FFF7EAFF08BD08B53D21FFF7A8
:10506000E5FF08BD08B53E21FFF7E0FF08BD08B524
:105070005A21FFF7DBFF08BD08B53C21FFF7D6FF3B
:1050800008BD70B5044604300D461646FFF793FE82
:10509000E368013BAB4207D3A3685A5DB24203D039
:1050A0005E55204603F066FD6068BDE8704004F080
:1050B00015BB08B50A461021FFF7E3FF08BD08B588
:1050C0000A461521FFF7DDFF08BD08B50A463D2158
:1050D000FFF7D7FF08BD08B50A463E21FFF7D1FF0D
:1050E00008BD08B50A465A21FFF7CBFF08BD08B531
:1050F0000A463C21FFF7C5FF08BD38B50446043019
:105100000D46FFF758FEE3686068013BAB4226BFDF
:10511000A3685D5D002504F0E1FA284638BD08B5B6
:105120001121FFF7EAFF08BD08B51221FFF7E5FFDF
:1051300008BD08B51321FFF7E0FF08BD08B514212D
:10514000FFF7DBFF08BD70B5044604300D46164678
:10515000FFF731FEE368013BAB4207D3A3685A5D1A
:10516000B24203D05E55204603F004FD6068BDE8FE
:10517000704004F0B3BA08B50A461121FFF7E3FF07
:1051800008BD08B50A461221FFF7DDFF08BD08B5C6
:105190000A461321FFF7D7FF08BD08B50A461421B8
:1051A000FFF7D1FF08BDF8B5044604300D46FFF700
:1051B00002FEE3686068083BAB4223BFA16849195F
:1051C000D1E90067002638BF002704F087FA30468F
:1051D0003946F8BD08B54021FFF7E5FF08BD08B521
:1051E0004821FFF7E0FF08BDF8B5044604300D463E
:1051F0001E461746FFF7DFFDE368083BAB420CD3C2
:10520000A3685A1958595168B14208BFB84204D02E
:105210005F512046566003F0ADFC6068BDE8F84081
:1052200004F05CBA08B54021FFF7DEFF08BD08B501
:105230004821FFF7D9FF08BD08B55021FFF7D4FF7B
:1052400008BD08B51821FFF7CFFF08BD10B5FFF75F
:10525000B1FE044607F0CFFB0246C3172046FFF716
:10526000F0FFFFF749FEBDE810400021FFF727BF20
:1052700010B5044603F026FD05490648FEF77DFFFC
:105280002046FFF7E3FF2046BDE8104003F072BC64
:10529000A6E50B0044E6032038B5044604300D466D
:1052A000FFF789FDE3686068023BAB4226BFA36855
:1052B0005D5B002504F012FA284638BD08B5582178
:1052C000FFF7EAFF08BD000010B503F08FFC0446AD
:1052D00098B1FFF711FEFFF7C0FEFFF70DFEFFF7D5
:1052E000BCFE0C280BD9FFF707FEFFF7B6FE1149ED
:1052F00002461148FEF741FF0024104A14E0FFF770
:10530000FBFDFFF76CFF002906DAFFF7F5FDFFF75D
:10531000D5FF0B490246ECE7FFF7EEFDFFF7CEFFA6
:10532000B0F5617FF1D8074A07490348FEF725FF2A
:10533000204610BDC9E50B0044E60320BFE50B0085
:10534000E6E50B00C3E50B0012E60B0008B51021E3
:10535000FFF7A2FF08BD000010B503F047FC0446AC
:10536000A0B1FFF727FEFFF7F1FFFFF723FEFFF7DE
:10537000EDFFB0F5806F10D9FFF71CFEFFF7E6FFD9
:10538000074902460748FEF7F8FE0024064A074987
:105390000448FEF7F2FE204610BD054AF7E700BFBD
:1053A00027E60B0044E60320BFE50B0049E60B00AF
:1053B000C3E50B0070B5044604300D461646FFF7F2
:1053C000FAFCE368023BAB4207D3A3685A5BB242E4
:1053D00003D05E53204603F0CDFB6068BDE870400B
:1053E00004F07CB908B50A465821FFF7E3FF08BD71
:1053F00070B58CB003F066FC354B05AC03F11806B4
:10540000224618685968254603C50833B3422C461E
:10541000F7D1002311462F48ADF82C30FEF7ADFE32
:1054200004F058FC05AAD0B12B4B2C491B788DF801
:10543000003003A83C2305F039F8049C7CB1636874
:10544000013B63605BB9236820469B689847A3686B
:10545000013BA3601BB923682046DB6898472049BD
:105460001C48FEF78AFEFFF747FD0121FFF721FEEA
:10547000FFF742FD0021FFF77EFEFFF73DFD002113
:10548000FFF78BFEFFF738FD0121FFF77AFEFFF7EC
:1054900033FD0021FFF77BFEFFF72EFD1149FFF7DB
:1054A0004EFDFFF729FD0121FFF71BFEFFF724FD4D
:1054B0000021FFF70AFEFFF71FFD1821FFF70BFE83
:1054C000FFF71AFD0021FFF78DFF0CB070BD00BF84
:1054D00004E70B0044E603209DE5032060E60B0093
:1054E00065E60B007DE60B0008B50A461021FFF7C4
:1054F00061FF08BD38B504462DED028B04300D4622
:10550000FFF759FCE3686068043BAB4229BFA16820
:105510009FED058A491991ED008A04F0DFF8B0EE9D
:10552000480ABDEC028B38BD0000000008B5202100
:10553000FFF7E0FF08BD08B52421FFF7DBFF08BD3A
:1055400008B53821FFF7D6FF08BD38B504462DED64
:10555000028B04300D46B0EE408AFFF72CFCE36866
:10556000043BAB420DD3A3685919D1ED007AF4EE98
:10557000487AF1EE10FA04D081ED008A204603F05B
:10558000F9FABDEC028B6068BDE8384004F0A6B8BB
:1055900008B52021FFF7D9FF08BD08B52421FFF782
:1055A000D4FF08BD08B53821FFF7CFFF08BD38B5D7
:1055B000044604300D46FFF7FEFBE3686068013BDC
:1055C000AB4226BFA3685D57002504F087F8284644
:1055D00038BD08B52821FFF7EAFF08BD014B0122BD
:1055E0001A7070479DE503207047006A0368DB6806
:1055F0001847704710B504210446FEF750FD2046B9
:1056000010BD000010B5034B0360044601F036F9ED
:10561000204610BD8CEB0B0010B50446FFF7F2FFDF
:10562000204640F62C11FEF73AFD204610BD7FB50E
:1056300002685368906814685E1000EB6305DB072E
:1056400048BF8359684648BF1C5906F085FE694625
:105650002846A0470446684606F002FE204604B0ED
:1056600070BD012A38B5044602D10B68236003E0FF
:10567000022A03D0032A0DD0002038BD0C200D686B
:10568000FEF709FD03460028F0D095E8070083E8FF
:105690000700EBE700680028EED00C21FEF7FFFCC6
:1056A000EAE737B51D4601AB044601F07FFA20B1A9
:1056B00001992A46204601F05BFA03B030BD000094
:1056C0000A4B10B50446036005F014FD214605F0B1
:1056D00018FF07F081FA07F073FA2046044B40F8F0
:1056E000043B05F0A9FD204610BD00BF74EB0B0084
:1056F0005CEB0B0010B50446FFF7E2FF20462421C7
:10570000FEF7CDFC204610BD10B5064C236833B91A
:105710000420FEF7C0FC08B1034B03602060206842
:1057200010BD00BFB8E50320D8EB0B0030B5194918
:1057300085B004461848FEF720FD00250C20029590
:10574000FEF7A9FC18B1154B8460C0E90035144B75
:10575000009003931020134B0293FEF79CFC044629
:1057600078B100238360029B33B1022269469847D7
:10577000039BE360029BA3600B4A0C48214604F0A4
:1057800084FD029B1BB1694603220846984705B079
:1057900030BD00BF78E70B0044E6032091580B00B2
:1057A0002F560B0063560B00A6E70B0063A20B00FD
:1057B0002DE9F043CDB007F01EF98046FFF7FAFB64
:1057C000FFF7C4FD0B90FFF7F5FBFFF7B9FE10EEF6
:1057D000104AFFF7EFFBFFF74FFC264A52F82090E4
:1057E000FFF7E8FBFFF7A2FE10EE105AFFF784FB6D
:1057F000FFF72EFC0646FFF7DDFBFFF7EAFE074644
:10580000FFF77AFBFFF75AFDCDE908082846CDE9F6
:10581000066707F083FECDE904012046CDF8089025
:1058200007F07CFE0B9B144ACDE900014FF4807118
:105830000CA804F017FB02F0FFF8104B104A1B787D
:10584000127810491343002402688DF800308DF857
:1058500004403C2315680CAAA8470CAA0A490B4827
:10586000FEF78BFCFFF7A6FB2146FFF7C6FB4DB00A
:10587000BDE8F083BCE30320AFE70B00B5E50320F0
:10588000B4E5032028E80B003EE80B0044E60320C3
:105890002DE9F04FADF64C2D0C460746AF490BA84D
:1058A00006F029FDAD490FA806F025FD20233C2276
:1058B000002118A8179308F04FFA50234FF4806284
:1058C000009352A90DF5A96347A801F02FF8A44B46
:1058D0002168A4484793FEF750FC47A801F01CF844
:1058E00021680791084608F0B4FA0799024647A8CC
:1058F00000F0F5FF47A801F063FB044690B99A4910
:105900009848FEF73AFC994B974A1B788DF800307F
:1059100027A897493C2304F0C9FD28A8FEF746FDB7
:10592000254616E047A801F011F8914ADFF8989251
:10593000DFF8388201460AAB47A801F037F90025A5
:105940000A992A4647A801F023F8014678B9002DA4
:10595000E6D147A8FFF756FE0FA806F081FC0BA87A
:1059600006F07EFC28460DF64C2DBDE8F08F0BAB03
:105970004A46079047A8FFF794FE07997D4A47A833
:105980000FABFFF78EFE7C490FA806F07AFD0028CA
:1059900036D07A490BA806F074FD60B3784917A891
:1059A00008F031FAFFF7A8FA03689B699847FFF7F8
:1059B00001FBFFF74BFCFFF7FDFAFFF747FC9DF8F3
:1059C0005C30202B13D0674817A9FEF7D6FB04F0F4
:1059D00081F960B198F800308DF8003027A864494B
:1059E0003C2317AA04F062FD28A8FEF7DFFC01356E
:1059F0000A2DA5D194E7634917A808F004FADAE75D
:105A000061490FA806F03DFD00287DD000F024FC80
:105A1000FFF7D0FAFFF79AFC0790FFF76DFAFFF750
:105A200026FB5A4E5A4A002808BF1646FFF7C2FA0C
:105A3000FFF786FD10EE10AAFFF7BCFAFFF71CFB7C
:105A4000544A52F820200492504607F067FD079B05
:105A5000514A0096CDE90201802127A804F002FAFC
:105A6000404827A9FEF789FB98F8003046498DF891
:105A7000003027AA3C2313A804F018FD14A8FEF751
:105A800095FC46490BA806F0FCFC002897D006F0D0
:105A9000B2FF434B434900930246C31713A806F0D5
:105AA0004BFF139B0793FFF727FAFFF7D6FA06463B
:105AB000FFF722FAFFF7D6FA8246FFF71DFAFFF743
:105AC00038FB3949394A079B0096002808BF0A4627
:105AD000CDE901A28021364A27A804F0C3F913A812
:105AE00006F0BEFB27A91F48FEF747FB98F80030D9
:105AF0008DF8003013A824493C2327AA04F0D6FCD3
:105B000014A8FEF753FC5AE72A490FA806F0B9FC7F
:105B1000064628B100F0A0FB3846FFF749FE4EE7E5
:105B200025490FA806F0ADFC834600284ED0234936
:105B30000BA806F0A6FC48B1214917A808F063F9A4
:105B4000FFF7DAF93146FFF722FB38E71D4917A8BE
:105B500008F059F9FFF7D0F90121F4E7CDF50B0072
:105B60008CEB0B0044E6032077E80B00B4E5032040
:105B700095E80B009DE80B00A0E80B00A6E80B00E1
:105B8000AAE80B00DAE80B00FFE80B0052E80B0074
:105B900058E80B00BCE3032006E90B0036E90B00D4
:105BA000FFE30B0098E603205EE80B0062E80B00C1
:105BB0003BE90B0062E90B0067E90B006CE90B00A5
:105BC00071E90B0091E90B0099E80B0033490FA82C
:105BD00006F057FC8246C8B10B980A2209A908F0C2
:105BE00029FA0C2806460BD803462D4A402117A84F
:105BF00004F038F9FFF780F9F1B2FFF766FADEE654
:105C0000284917A808F0FFF85C46D8E626490FA8EF
:105C100006F037FC8346D8B10B980A2209A908F090
:105C200009FAA0F10D030B2B06460BD803461F4AB9
:105C3000402117A804F016F9FFF75EF9F1B2FFF75B
:105C40004AFABCE61A4917A808F0DDF85446B6E649
:105C500018490FA806F015FC0646C8B10B980A2291
:105C600009A908F0E7F9022806460FD8124A134B93
:105C70004021002808BF1346114A17A804F0F2F883
:105C8000FFF73AF9F1B2FFF72CFA98E60D49B8E7B9
:105C90000D4917A808F0B7F8344690E6B3E90B00B1
:105CA000B8E90B00D6E90B00EFE90B00F5E90B00B2
:105CB00013EA0B002EEA0B006CE80B0070E80B00F7
:105CC00033EA0B0055EA0B0076EA0B0070B5D0E919
:105CD00000531426044606FB0356AE4204D0284661
:105CE00006F0BEFA1435F8E7206804F09BF8204669
:105CF00070BD8842F8B504460D46164616D9904246
:105D000015D2A2F11406751AA1F114072C44B7425A
:105D10001CD02CB13146204606F01EFB337C237488
:105D2000304606F09DFA143E143CF0E70ED0B54222
:105D30000CD02CB12946204606F00EFB2B7C237498
:105D4000284606F08DFA14351434F0E7F8BD2DE935
:105D5000F0410023C0E9003383604F689F4204464E
:105D60000E4623DD4FF0140808FB07F004F052F84C
:105D70000546D8B1D4E9001208FB0212FFF7B9FFBB
:105D8000206804F04FF82560A760D6E9007308FB8F
:105D90000378B84508D03946284606F0F7FA3B7C28
:105DA0002B7414371435F4E7736863602046BDE83C
:105DB000F0810000294B70B501251D70284B082289
:105DC0001A70284B284A9A6000248CB0C3E900441A
:105DD000022003F0F5FE2146284603F009FF29467C
:105DE000042003F093FCCDE90044029406F0F4FE95
:105DF0001E4C0546694603A8FFF7A9FF264603A9DE
:105E000006A8FFF7A4FF1A4B46F8043B06A909A809
:105E1000FFF79DFF09AA1E21304605F055FC09A891
:105E2000FFF754FF06A8FFF751FF124B23602562CE
:105E300003A8FFF74BFF104B236006F0CDFE4FF495
:105E4000165106F0B9FE05F055F9214605F012FB92
:105E50006846FFF73BFF0CB070BD00BFB4E5032000
:105E6000B5E50320A8E503200000FFFFBCE5032003
:105E70005CEB0B0000F60B0074EB0B002DE9F0431C
:105E800085B006F0B8FD414905464148FEF775F971
:105E9000002401A8CDE90144ADF80C4004F006FA55
:105EA000204603F063FC43F698260446002003F0E6
:105EB0005DFC031B61F10001B34271F1000305D2E7
:105EC00003F008FF10B103F0F5FEEFE703F002FF67
:105ED00003F03CFC2F4F386003F0ECFE03F0FAFEB9
:105EE000044640B12C492A48FEF747F900242046D1
:105EF00005B0BDE8F08306F07EFD2849DFF8A080FC
:105F0000421B2348FEF739F906F075FD22460221AF
:105F10000646D8F8040003F02DFFD8F80400234605
:105F20002246214603F03EFF204603F01FFC47F2C5
:105F300030590546002003F019FC431B61F10001B4
:105F40004B4571F1000306D2404605F0DBFE10B967
:105F500003F0B0FEEEE7124805F0D4FE03F0F6FBC6
:105F6000386003F0A7FE0E4805F0C8FE20B10D49C9
:105F70000748FEF702F9BAE706F03DFD0A49821B21
:105F80000348FEF7FAF80124B1E700BF8AEA0B00E4
:105F900044E603200CE70320B3EA0B00D6EA0B002B
:105FA00000E60320FFEA0B0025EB0B0008B50F49C4
:105FB0000F48FEF7E2F80221042006F025FF002139
:105FC000082006F021FF0121072006F01DFF002117
:105FD000122006F019FF0021112006F015FF012103
:105FE000102006F011FF012008BD00BFE0EB0B0000
:105FF00044E6032010B51C491C4890B02024FEF74D
:10600000BCF822460021684607F0A6FE2246002181
:106010000DEB04008DF8054007F09EFE00210DEB0E
:1060200004008DF8254003F01FFE41F2D833ADF88F
:1060300006300F4B029341F27003ADF80C30009B19
:1060400043F4007343F0010300216846009303F01A
:106050000BFE044618B907490448FEF78EF8201EC7
:1060600018BF012010B010BDF9EB0B0044E603206F
:106070008403840313EC0B0013B5012101A805F080
:10608000D6FEFEF797FFFFF751FAB5EEC00AF1EE24
:1060900010FA0ED501A805F05DFFFEF78BFF012178
:1060A000FFF725F8002401A805F0D0FE204602B035
:1060B00010BDFEF77FFFFFF739FADFED067AB4EE89
:1060C000E70AF1EE10FAE5DC01A805F028FF01244B
:1060D000E9E700BF0000144230B51B4D0FCD9BB067
:1060E00010AC0FC40FCD0FC495E8030084E8030083
:1060F000164908A803F088FF08A803F0C8FF044663
:1061000008A803F0FDFF08A810EE105A04F028F8C4
:106110001AAB10EE100A03EB840407F0FFF9CDE987
:106120000201284607F0FAF9CDE90001102154F8E0
:10613000283C074A0DEB010003F094FE054804A932
:10614000FEF71BF81BB030BD1CED0B0000E6032072
:1061500082EC0B0044E6032030B585B00D460022EA
:106160006946009203F01AFD90B9009C0CB12369B6
:1061700023B9084A08490A2003F0D8FC0C23CDE9CA
:1061800001350423039301AA23690121204698477E
:1061900005B030BD3D970B009BEC0B0013B5FEF72F
:1061A00009FF01A904460720FFF7D6FF011EA8BF7B
:1061B00001992046C9B2FEF79AFFFEF7FBFE01A93E
:1061C00004460320FFF7C8FFB8BBBDF8043000EE5B
:1061D000103ABBEECC0A2046FFF7E4F901A90320F0
:1061E000FFF7BAFF60BBBDF8043007EE903AFBEE54
:1061F000CC7A17EE900A07F091F902460B46134845
:106200001349FDF7BAFFFEF7D5FEFFF799F9DFED69
:10621000117AB4EEE70AF1EE10FA14DCFEF7CAFECA
:10622000FFF78EF9FFEE007AB4EE670AF1EE10FA8E
:106230000CBF0120002002B010BDBFEE000ACAE76B
:10624000FFEE007AD5E70120F5E700BF44E6032022
:10625000C1EC0B00000070422DE9F843FFF79EFFF0
:1062600020B9FEF749FE0121FEF791FFFFF704FF79
:1062700003F030FD08B1FFF72FFFFEF79BFE664BE2
:106280000446188806F0FDFD07F036F956A3D3E959
:10629000002307F09BF9614B002207F097F9604B50
:1062A000002206F0DBFF5F4B002207F08FF907F0BA
:1062B00085FC00EE100A2046FFF76FF9FEF77AFE24
:1062C000FFF739F910EE100A07F028F902460B46DD
:1062D00055485649FDF751FFFEF76CFE544B0446F6
:1062E000188806F0CEFD0546FEF764FEFFF723F999
:1062F00010EE100A07F012F93DA3D3E9002306F0CF
:10630000AFFF41EC100B06F09FFE284659EC108BB6
:1063100007F0F2F838A3D3E9002307F057F938A3C0
:10632000D3E9002307F07CFA37A3D3E9002307F071
:106330004DF937A3D3E9002306460F4640464946A8
:1063400007F044F9364B002207F040F902460B46AD
:106350003046394607F03AF9324B002207F036F959
:1063600007F00CFC81B22046FFF7BEF8FEF722FED4
:10637000FEF7ECFF2F4902462B48FDF7FEFEFEF725
:1063800019FE2D4B0446188806F07BFD07F0B4F883
:1063900015A3D3E9002307F019F9204B002207F0D9
:1063A00015F91F4B002206F059FF1E4B002207F083
:1063B0000DF907F003FC00EE100A2046FFF7E8F89D
:1063C000FEF7F8FDFFF7B2F810EE100A07F0A6F896
:1063D00002460B4614481949FDF7CFFE0120BDE8DF
:1063E000F88300BFAFF300806666666666660A40A3
:1063F00066666666661271406666666666664A3FEF
:106400006666666666665A3F90BE49D3A068FE3EE1
:10641000CDCCCCCCCC0C344040EC0B000000303F59
:106420000000E03F0000594044E60320E1EC0B008F
:106430003EEC0B00F7EC0B0042EC0B0006ED0B0002
:1064400010B5012303748368044643B1C0689847BC
:10645000012363740020BDE8104003F047B90068D1
:106460000028F5D083680BB906F0EAFDC368EEE7B3
:10647000012A02D1016000207047022A04BF0B6884
:106480000360F8E738B50568044635B12846FDF7DE
:106490005FFE10212846FDF702FE20461421BDE8CC
:1064A0003840FDF7FCBD10B503680446ABB1586831
:1064B00003F0CCF888B923685A7C12B9586803F005
:1064C000CDF82368586803F0D1F8206800232360D2
:1064D00018B1BDE81040FFF7D5BF10BD054A0260F6
:1064E00000224260027380F84F24C0F85824C0F89C
:1064F0006024704760ED0B0010B5074C236843B96A
:1065000040F26440FDF7C7FD034608B1FFF7E6FF20
:106510002360206810BD00BFE0E5032038B50446C5
:10652000406890B102232373FFF7BDFF656855B142
:106530002846FFF7B8FF286808B1FFF7A3FF04213A
:106540002846FDF7ACFD0023636038BD10B5054B50
:1065500003600446FFF7E2FF04F58A60FDF7F8FDEB
:10656000204610BD60ED0B0010B50446FFF7EEFFAE
:10657000204640F26441FDF792FD204610BDF0B583
:10658000044689B000F10D0600F14E07237B1BB9CC
:10659000012003F0BFFCF9E7237B022B64D0A06845
:1065A00003F074F8A06803F079F894F84F348DF88C
:1065B00000303A463C23314606A803F077FF069D9B
:1065C0006B7833B9237B022B03D0012003F0A2FCAC
:1065D000F5E7D4F858341BB3002003F011FB20B1C9
:1065E0006B7813B903F066FBFAE72B78D4F86024D4
:1065F0000592591E4B424B418DF80B30D4F858345C
:10660000CDE903670BB906F01BFD05AB0093D4F889
:106610005C5404AB03AA0DF10B0104F58A60A84792
:10662000A06803F033F8237B022B17D0D4F858343A
:106630000025C4F8605443B104F58A61032208467A
:106640009847C4F85854C4F85C540023A0682373D6
:1066500003F024F807A8FDF7A9FE97E7A06803F068
:106660001DF807A8FDF7A2FE09B0F0BD0068FFF70E
:1066700086BF13B50B460246D0E900016C4684E89C
:10668000030093E8030082E8030094E8030083E832
:10669000030002B010BD00002DE9F743064688460E
:1066A000142026491746994606F0C0FC044630B12E
:1066B0000020C4E90000C4E9020020746074346062
:1066C000002C31D01D49102006F0B0FC054668B101
:1066D0000023836001463846FFF7CBFFBB68AA68FA
:1066E000BA60AB60EA68FB68EB60FA602768256017
:1066F00037B13846FDF72CFD10213846FDF7CFFCA9
:106700003068036883B10A9B4A46CDE900034146DD
:106710000B4B043002F092FF30B933681B7C4BB94D
:10672000012003F003F8F8E730680023336008B174
:10673000FFF7A8FE304603B0BDE8F08358F70B0022
:1067400041640B0030B5436887B00446C3B90830D4
:1067500002F094FF0B4B059304200B4B029404931F
:10676000FDF799FC054638B14FF4406300930749A3
:10677000022302AAFFF790FF656002A8FDF7E8FC7C
:1067800007B030BD6D660B0071640B0044ED0B006B
:106790002DE9F043044685B080680C9F98460D466D
:1067A000164602F073FF63681BB1237B03F0FF09F9
:1067B00033B1A06802F072FF002005B0BDE8F0839D
:1067C000A06802F06BFF002D3DD04022294604F165
:1067D0000D0007F05AFB84F84D908EB340F2014251
:1067E000314604F14E0007F050FB84F84E9400232C
:1067F0000293BB6804F58A653BB1022239466846BC
:106800009847FB680393BB68029329466846FFF7E5
:1068100030FF029BD4F85824C4F85834039B0292EA
:106820006846D4F85C24C4F85C340392FDF790FC0D
:106830000D9BC4F86034012084F84F842073BCE7BA
:1068400084F84E60D3E72846B7E7000010B5054B43
:106850000360037C04461BB9406808B103F0E2FA08
:10686000204610BD70ED0B0010B50446FFF7EEFF9B
:1068700020461421FDF713FC204610BD10B5074B30
:106880000360037C04461BB9406908B103F0CAFAEF
:106890002046FFF7DBFF204610BD00BF80ED0B0058
:1068A00010B50446FFF7EAFF20462C21FDF7F7FB61
:1068B000204610BD38B5037C04460D460BB10020C0
:1068C00038BD406838B103F0B5FA0028F7D0C4E904
:1068D00001050120F4E7084603F09CFAF5E770B5DE
:1068E000C3680E461546D1184268044672B18268E4
:1068F0008A420BD36068E3682A463146184407F0A1
:1069000003FAE2682A44E260012070BD2046FFF7E6
:10691000D1FF0028EED1F8E743680021C16023B120
:10692000826812B1184607F017BA704710B5C0E96F
:1069300001120022C260012202744361024A029BDA
:106940000260C36110BD00BF80ED0B00D0E90503FC
:10695000984204D20378012B18BF00207047002012
:10696000704770B513689D68136803F110041460D4
:106970008669B4420AD29B698C68A34201DAAB42B1
:10698000F2DDA342CCBF0020012000E0002070BD5A
:1069900073B501F1100304461646019300250198D2
:1069A000A36983420BD982688B689A4207DAB542A1
:1069B00006D001AA20460135FFF7D3FFEFE70020FC
:1069C00002B070BD2DE9F341089D984601F1100316
:1069D00004461746019300260198A36983421AD9F9
:1069E00082688B689A4216DAAE420BD1386001AAEF
:1069F0002046FFF7B6FF28B1019BC8F8003002B06F
:106A0000BDE8F08101AA2046FFF7ABFF2046013622
:106A1000FFF7A7FFE0E70020F1E710B504460068A4
:106A20000B4628B105F0FFFCE3680133E36010BDBD
:106A300060680028F8D0D4E90221013A8A4288BF70
:106A40004354F1E703467F2B37B50846D9B204D843
:106A500003B0BDE83040FFF7E0BF01F03F01B3F500
:106A6000006FC3F3871541F0800407D245F0C001E1
:106A70000190FFF7D2FF01982146E9E71B0B43F095
:106A8000E0010190FFF7C9FF05F03F01019841F0D7
:106A90008001EEE72DE9FF4700244E68DFF8CCA027
:106AA00080460F461546A146B868B0425ADDD8F870
:106AB0000430995D9A19002C4BD0752905D86D29A1
:106AC00007D862291ED066291ED02846FFF7A5FFE9
:106AD0003DE0A1F16E04072CF7D80FF2080C5CF82A
:106AE00024F000BF0D6B0B00CB6A0B00CB6A0B00D0
:106AF000CB6A0B00116B0B00CB6A0B00156B0B0004
:106B0000196B0B000821E0E70C21DEE70A21DCE726
:106B10000D21DAE70921D8E7311D884217DD02A9E6
:106B200004333344084612F8014F01F8014B9A42EE
:106B3000F9D101AA51468DF80C9003F08BF9012888
:106B400005D1BDF804002946FFF77CFF0536002477
:106B500004E05C2904D02846FFF75FFF0136A3E775
:106B60000124FBE7012004B0BDE8F08771F50B00BC
:106B70007FB50C4606460C491046154605F019FC33
:106B8000D4E90131C91A0131284605F087FB0023F9
:106B90006A4621463046CDE9013300950393FFF75D
:106BA00079FF04B070BD00BFCDF50B002DE9F043B7
:106BB00089B00546884604A812491646994605F04C
:106BC0009AFB002700974B4603AA41462846FFF749
:106BD000F9FE044670B1039904AA2846FFF7C8FFDE
:106BE000044608B90137EDE7314604A805F049FC31
:106BF0000028F7D004A805F033FB204609B0BDE813
:106C0000F08300BFCDF50B002DE9F04F44684FF045
:106C1000010C4FF0FF36D0F800E0964580F0B981C6
:106C200011F80E80B8F1000F00F0B381B8F13A0FFF
:106C300000F0988033D8B8F1220F00F0A68010D869
:106C4000A8F109085FFA88F8B8F1170F0DD89F4D21
:106C50000CFA08F818EA050F07D005680135056039
:106C6000D9E7B8F12C0F00F03381D0F8008042450D
:106C70000ED911F808505DB13A2D00F269811F2D2F
:106C800000F251810A2D00F26081082D40F25681F8
:106C9000002B40F0628108F1FF350560A5E0B8F1F6
:106CA0007B0F37D02ED8B8F15B0F33D0B8F15D0F22
:106CB000DBD1002BD1D04FF002094568013D03EB39
:106CC0000518002D55DBD8F8047001374DD0D8F8E1
:106CD00008A0BAF1FF3F48D198F800B0CB454BD19E
:106CE0000EF1010EC0F808A0C8F808E003EB051E7D
:106CF000DEF80470013742D0DEF8087001373ED16B
:106D00008560AAE7B8F17D0FAFD1002BA5D04FF079
:106D10000109D2E70134002B9FD04568099FAF429B
:106D20004AD905F1010EC0F804E003EB051ECEE9D7
:106D300001664FEA051A0025CEF80C5085686F1CD5
:106D40001FBF03EB0519D9F80C500135C9F80C50D9
:106D5000B8F17B0F0CBF0125022503F80A50056826
:106D6000CEF804504568013DCAE7013DA8F110087E
:106D7000A7E701357FF471AF6FF001041EE0013D1C
:106D80006F1CAEF1100EB3D167E70EF10109C0F828
:106D90000090D0F80080424540F2938011F80850EE
:106DA000002D00F08E80222D30D1F3B14568099F6F
:106DB000AF4206D8C0F800E04FF0FF342046BDE8EF
:106DC000F08F05F1010E4FEA051803EB0515C0F829
:106DD00004E0C5E901660027EF60D0F800E04FF05D
:106DE000030A03F808A0C5E9019E85686F1C04F139
:106DF00001043FF432AF002B3FF42FAF03EB051E2D
:106E0000DEF80C500135CEF80C5026E75C2D11D180
:106E100008F10105AA420DD905604D5D752D2BD8ED
:106E20006D2D0BD8662D27D85B2D1DD8222D01D0B6
:106E30002F2D21D1056801350560AAE76E3D072D8C
:106E40001AD801A757F825F0356E0B00796E0B00A4
:106E5000796E0B00796E0B00356E0B00796E0B00AE
:106E6000356E0B007F6E0B005C3DEDB20CFA05F544
:106E700040F241473D42DDD1C0F800E07CE708F137
:106E8000020505604FF0040AD0F80080424503D89F
:106E90000568013D0560CDE711F80850002DF7D0D9
:106EA000A5F1300BBBF1090F04D925F02005413DB8
:106EB000052DE1D808F10105BAF1010A0560E3D119
:106EC000E6E7C0F800E06FF0020477E71300800007
:106ED000002B3FF4C2AE85686F1C3FF4BEAE2D019F
:106EE0005D5D013D012D7FF6B8AE456805F1FF38C7
:106EF00003EB051EB8F1000FFFF6AFAE1EF8105CF5
:106F0000013D012D0AD85EF80C5C013506D05EF813
:106F1000085C013502D1C0F808809EE608F1FF3810
:106F2000AEF1100EE6E7A5F12009244F5FFA89F9CA
:106F30000CFA09F919EA070F7FF4AAAE203D5E2D7D
:106F40009AD808F1010505608FE60D2DF6D19FE670
:106F500005F0DF09B9F15D0FF8E74568099FAF4219
:106F60007FF628AF05F101084FEA051903EB051577
:106F7000C0F80480C5E901660027EF60D0F8008002
:106F80004FF0040A03F809A0C5E901E80568013DCE
:106F900083E6002B3FF412AF4268511E03EB02134D
:106FA0000029FFF60BAF53F80C2C013203D053F835
:106FB000082C013287D00139103BF1E701100004A1
:106FC000F7B5C268044612B9002003B0F0BD4369AA
:106FD00000F12006ABB10021C0E908114FF0FF31EC
:106FE0008162C169009141683046FFF70DFE431C84
:106FF00028D1257C002DE7D1606902F013FF65617F
:10700000E56100254FF0FF37C4E90855E268616883
:10701000A76200952B463046FFF7F6FD0028D3DB2C
:10702000E06117D0000102F0F5FEE26960610346FD
:107030000092C4E90855E2686168A7623046FFF72C
:10704000E3FD01E00028BFDB636903EB0010A061F2
:107050000120BAE76369A361FAE77047704710B58A
:1070600008210446FDF71BF8204610BD10B510217D
:107070000446FDF714F8204610BD000010B5054B7E
:10708000044640F81C3B05F0EBF8201D05F0E8F83D
:10709000204610BDE8ED0B0010B50446FFF7EEFFEB
:1070A00020465821FCF7FBFF204610BD10B5044BCD
:1070B000044640F8043BFFF7E1FF204610BD00BF47
:1070C000B8ED0B0010B50446FFF7F0FF2046602135
:1070D000FCF7E5FF204610BD20F00203012B03D092
:1070E000431F5842584170471846704791F9043081
:1070F000037191F90530437191F90630837191F96B
:107100000730C371704738B504460D46043004316A
:1071100005F02DF905F1140104F11400FFF7E6FF65
:1071200005F11C0104F11C0005F021F905F12C0109
:1071300004F12C00FFF7DAFF95F9383084F8383085
:1071400095F9393084F8393095F93A3084F83A3085
:1071500095F93B3084F83B3005F13C0104F13C00EB
:10716000FFF7C4FF95F9483084F8483095F9493065
:1071700084F8493095F94A3084F84A3095F94B3013
:1071800084F84B3005F14C0104F14C00FFF7AEFFE1
:1071900095F8543084F8543038BD0B6803604B6860
:1071A000436013B15A6801325A607047024A026064
:1071B0004A684260704700BFC8ED0B00024A026097
:1071C00000224260704700BFC8ED0B0030B50023BD
:1071D00087B0838083710D4605AB00931349044645
:1071E00004AB03AA284602F035FE032807D1039B0F
:1071F0002371049B6371059BA37107B030BD0C49DB
:1072000004AB03AA284602F025FE022804D1039B02
:107210002371049B6371F0E7064903AA284602F034
:1072200019FE012804BF039B2371E6E788ED0B00DC
:107230008BED0B00FFF20B0090F9042090F9053064
:1072400090F90610002AB8BF0848C3EB03134FEAB1
:107250008303BDBF00FB0230401840424FF4616021
:10726000A4BF00FB02304018704700BFF0F1FFFFE1
:1072700090F9073043B990F904308B6090F90530EC
:107280004B6090F906300B60704790F9073030B5CD
:10729000B3B990F904508C682C44D1E900328C6069
:1072A00090F90540002DB5BF121B12194A604A60C3
:1072B000B5BF90F9062090F906209B1A9B180B6029
:1072C00030BD000008B5054A026000220346426056
:1072D0000830FFF773FF184608BD00BFD8ED0B005C
:1072E00000234360838183737047000030B50446F8
:1072F00087B00D4611B10B784D2B05D0204607B055
:10730000BDE83040FFF7ECBF05AB0093114904AB7B
:1073100003AA284602F09EFD032816D1039B237181
:10732000049B6371059BA3712F21284606F04AFD3B
:1073300040B1411C04F10800FFF748FF0123E3714D
:1073400007B030BDA081A073F8E72046FFF7C8FF63
:10735000F6E700BFA3ED0B00104B114910B5044632
:1073600040F8043B04F0C7FF04F11400FFF726FFC8
:107370000B4904F11C0004F0BEFF04F12C00FFF7E0
:107380001DFF04F13400FFF79DFF04F14400FFF7F7
:1073900099FF002384F85430204610BDE8ED0B001F
:1073A000CDF50B002DE9F74F0446084606F034FDF5
:1073B00000250646019004F134083F49019801AACE
:1073C00006F0B2FD0146002862D0012D05F101034F
:1073D00053D0022D56D0002D46D1024692F800908F
:1073E000B9F1400F1546174602F10102F6D8002206
:1073F0002A7004F11C0004F0DCFF012285F80090E3
:1074000084F854202A786AB397F800A00AF1FF3272
:107410003F2AB946BB4607F10107F5D9002304F11D
:107420002C0789F8003029463846FFF7CFFE89F847
:1074300000A0BAF1000F15D05D461BF801ABBAF100
:10744000400FF9D800222A704946201D04F0B1FFF0
:1074500085F800A004F11400BAF1000F06D0294607
:10746000FFF7B4FE0125A8E71D46A6E73946FFF75A
:107470003DFE237E013B2376F4E74046FFF736FFCF
:1074800002259AE704F14400FFF730FF032594E753
:1074900094F93B3043B194F94B202AB904F13400FC
:1074A000FFF71EFF84F85420304602F0BBFC94F82E
:1074B000540003B0BDE8F08FADED0B0038B5134BB1
:1074C00004460D4640F8043B114904F014FF04F152
:1074D0001400FFF773FE0E4904F11C0004F00BFFCB
:1074E00004F12C00FFF76AFE04F13400FFF7EAFE16
:1074F00004F14400FFF7E6FE002384F854302946E7
:107500002046FFF74FFF204638BD00BFE8ED0B00D7
:10751000CDF50B0038B5094D2B6863B96020FCF739
:10752000BAFD044630B1064B40F8043BFFF714FFA8
:107530006423E3652C60286838BD00BFE4E50320C0
:10754000B8ED0B0002F0DEBC01390B2915D8DFE8DD
:1075500001F01608160616061616061606161E2042
:10756000704783070DD1642390FBF3F203FB1200F5
:1075700000280CBF1C201D207047002070471F20D2
:1075800070471C207047F8B50123CB6090F9043098
:10759000013B0B610023C1E9003306460C46174648
:1075A0008B602046FFF7CEFF96F90630A2699A421B
:1075B00003D0E3680133E360F3E796F90550012D4A
:1075C00013D0E3686069013DC5EBC5051D44E56066
:1075D00096F9041000F26C70FFF7B6FF8542C4BF45
:1075E000073DE5602046FFF7ADFF214606F10800A4
:1075F000FFF73EFE3846FFF748FE2046BDE8F8405C
:1076000002F080BCF0B590F8583085B004462BB934
:10761000FFF780FF011D201DFFF775FD94F93F3036
:10762000002B65D0D4E9182304F19807394602A845
:107630003E46CDE9022302F055FC0FCE04F1C80509
:107640000FC50FCE0FC533682B6004F1300102A8BF
:10765000FFF7ACFD02AA394604F13800FFF793FFAB
:10766000C4E9240104F1180102A8FFF79FFD02AA52
:1076700004F1C80104F14800FFF785FFD4E924654F
:10768000864275EB0103C4E93001D4E9182323DAFB
:10769000B24273EB050519DA002323602068FFF777
:1076A0001BFD04F16801D4E91856019110BB04F1E7
:1076B0003000FFF7C1FD2D1A66EBE070CDE90250F6
:1076C000019902A802F00EFC05B0F0BD82428B4188
:1076D000B4BF01230223E0E7824273EB010101DA28
:1076E0000323DAE7B242AB41B4BF04230523D4E756
:1076F0000623D2E704F11800DBE737B58D680446AE
:107700006846FFF74AFD6A462946204603F0AEFA6E
:1077100001A8FCF74BFE204603B030BD37B5CD685D
:1077200004466846FFF739FD6A462946204603F0BD
:1077300079FA01A8FCF73AFE204603B030BD37B510
:107740000D6904466846FFF728FD6A46294620462B
:1077500003F011FA01A8FCF729FE204603B030BD62
:1077600003680A7883F8B120012183F8B0107047CC
:1077700010B442680346541001EB6200D20748BFC0
:107780000A591B685DF8044B48BFD3581847012AB3
:1077900002D1016000207047022A04BFD1E9002312
:1077A000C0E90023F6E7012A02D1016000207047FA
:1077B000022A04BF0B680360F8E710B504468AB0DC
:1077C00008464FF0200C0021CDE90023CDE902C18D
:1077D0000B4602AA216802F0B9F90AB010BD0EB436
:1077E00003B503AB012153F8042B0193FFF7E5FF29
:1077F00002B05DF804EB03B070470EB403B503AB01
:10780000322153F8042B0193FFF7D7FF02B05DF844
:1078100004EB03B07047406F01F058BFD0F8C83098
:1078200001461BB1D0F8CC30C0301847704700007B
:10783000F8B5124D0846002A18BF15460E461F46D9
:1078400006F007FB402816D8284606F002FBB0F5E4
:10785000806F10D84330FCF720FC044648B1314615
:1078600000F8017B06F0CFFA294604F1420006F049
:10787000CAFA2046F8BD0024FBE700BFCDF50B0097
:10788000F0B59FB00A4600230E46011D08A800F07F
:1078900041FE0898002106F0F1FB054608A804F017
:1078A000DFFC002D60D008A9284606F0D5FB0C9B14
:1078B0002E492F483246FFF792FF002211462846F4
:1078C00006F0D2FB082206A9284606F0EBFB0C9F27
:1078D0004A2F39DD274B069A9A4235D1264B079A13
:1078E0009A4231D1A7F1080210460592FCF7D5FB68
:1078F0000446C0B127440146059A284606F0D2FB4B
:1079000017F8093CABB9631C1846059306F0A1FAB9
:107910003F28059B0DD804F14202009217491448F4
:107920003246FFF75CFF284606F08EFB20461FB06C
:10793000F0BD13490E483246FFF751FF4321204660
:10794000FCF7ADFB0024EEE7BDF81E3002939DF876
:107950001D3001939DF81C3000930A49069B044892
:107960003246FFF73CFFEDE72C46DFE7F0ED0B007A
:10797000E8E503206376B6310108410004EE0B0010
:1079800026EE0B0054EE0B002DE9F8438046284B01
:1079900048F8043B0446404600F0D4FC022264232D
:1079A0000025C4E91B230823E367C4E92055C4E983
:1079B0002255C4E92455C4E92655A5672020FCF7C3
:1079C0006AFBE66FA067013E760800EB8609074672
:1079D0004FF40070FCF75FFB00F50073C4E925036A
:1079E000C4F888304FF4FA614FF47A73C4E92D1368
:1079F00047F2305347F82600C4F88400C4F88000EA
:107A0000C4F89000C4E92855C4E92A550949C4F8C6
:107A10008C90C4F89C90C4F8B050C4F8BC30C4F842
:107A2000C850404600F0D4FC2046BDE8F88300BFB3
:107A300070F00B0099EE0B0038B5064D2B683BB982
:107A4000D020FCF728FB044608B1FFF79DFF2C600F
:107A5000286838BDECE503204269436A9B1A9B10F5
:107A60005A1ED0E906315B1A9B1003EBC213026960
:107A70008068101A03EBA000704738B50546FFF781
:107A8000CAFE05F17800FFF7E7FF044650B9281D4C
:107A900000F094FFD5F8A03004461BB1D5F8A4300F
:107AA00003B90134686F01F019FE204638BD10B5E6
:107AB00002698368043A9342044602D00433A36007
:107AC00010BDC0684FF40071FCF7E9FA63691A1D34
:107AD00062615B68E36003F500722261EFE700001A
:107AE0002DE9F04F85B00446FFF795FEDFF8A4902E
:107AF000DFF8A4A0DFF8A4B0D4F88030D4F8902048
:107B0000934205D1606F05B0BDE8F04F01F0E6BDCE
:107B100004F1780004F104081F68FFF7C8FF40462D
:107B200000F0F0FE0023024641460646684600F09B
:107B3000F1FC009840F2022106F0A0FA05466846E2
:107B400004F08EFBC5B1082269462846CDE9009AAB
:107B500006F0BAFA07F1420006F07BF9394600F167
:107B60004302284606F0B0FA284606F06DFA0848A7
:107B700032465946FFF733FE3146404600F004FFD7
:107B8000002FB9D043213846FCF789FAB2E700BF8D
:107B9000E8E503206376B63101084100A7EE0B004B
:107BA0002DE9F0410446FFF736FE04F17800FFF7B7
:107BB00053FFE36E984202D92046FFF791FFDFF8AA
:107BC00044800F4F261D304600F0F8FE236F984288
:107BD00004DC606FBDE8F04101F080BD012130465A
:107BE00000F09CFE05460028EDD0014600223046FC
:107BF00000F0CCFC2A4641463846FCF7BEFAE2E7E4
:107C0000E8E50320C4EE0B0008B5A0F500630B43C4
:107C100005D0403850EA01030BD1092A09D10549A2
:107C20000548FFF7DCFDFFF707FFBDE80840FFF759
:107C300057BF08BDD7EE0B00E8E5032070B5036819
:107C4000044683B1436A45691E1DAE4206D955F804
:107C5000040B4FF40071FCF722FAF6E76168206824
:107C60008900FCF71CFA204670BD00001FB5D1E961
:107C700000230021044602910AB9D90705D5CDE9B0
:107C800000230A4B03930A4B029321466846FEF7F2
:107C9000F0FC029BA268A360039B02926846E26824
:107CA000E3600392FCF754FA04B010BD71770B0047
:107CB0008F770B0070B586B0044602F00BF848B918
:107CC000484B02A9CDE9023004F1C000FFF7CEFF16
:107CD00006B070BD94F8B2501DB1012384F8B330E2
:107CE000F6E701F033FDD4F8A830C01AD4F8AC3070
:107CF000984208D22046FFF7C0FEB0FA80F0400953
:107D000084F8B300E4E7261D2946304600F006FE5D
:107D10000146C4F8A400002852D02046FFF7B0FD69
:107D20000546C4F8A000002835D001F00FFD02AED2
:107D300000252D4BC4F8A800314604F1C000029381
:107D40000395FFF793FFD4E9283003F14202009234
:107D50002649274AA4F8B050A84208BF0A46013372
:107D60002449254884F8B350FFF739FDFEF7C4FBDA
:107D7000D4F8A020214B0593CDE900651146204B96
:107D80000294049311F8013B4232FEF701FD3046A4
:107D9000FCF7DEF99CE7D4F8A4201A491648FCF752
:107DA000ECF90121304600F0B9FDD4F8A4102A46C0
:107DB000304600F0EBFBD4F8A030002BB5D18CE7B7
:107DC000D4F88030D4F890209A4207D01B68C4F8C9
:107DD000A03004F17800FFF76AFEECE7C4F8A000D9
:107DE0007BE700BF097E0B0081810B0006EF0B00D3
:107DF0006CF10B0027EF0B00E8E5032061770B0027
:107E0000A7770B000AEF0B0013B590F8B2300446C9
:107E100023B9FFF732FEB0FA80F35B0984F8B33080
:107E200001F058FF80B101F091FCD4F8B430C4F8EF
:107E3000AC30064BC4F8A80000936946002304F157
:107E4000C0000193FFF712FF02B010BDB57C0B001C
:107E500070B5054698B0002001F0E2FE012805D07B
:107E60003E493F48FFF7C9FC18B070BD05F17400EA
:107E700001F01CFC3B4B04933B4B079304A93B4B89
:107E8000069308A8FCF7DAF908A90CA8FCF7D6F9BC
:107E90000CA910A8FCF7D2F9002610201696FCF7C2
:107EA000FAF8044660B18660014610A8FEF7E1FBCF
:107EB000129BA2681292A360E268139BE360139284
:107EC0002B4B17932B4B16932B4B149400261020FF
:107ED000CDE901360396FCF7DEF80446D8B1169BCF
:107EE000866033B1022214A99847179BE360169B62
:107EF000A360224B0393224A029401AB4FF4046027
:107F0000002101F06DFE30B12046FCF721F910216F
:107F10002046FCF7C4F814A8FCF71AF910A8FCF7DF
:107F200017F90CA8FCF714F908A8FCF711F904A834
:107F3000FCF70EF9FEF7E0FAFEF704FC281D00F04E
:107F400069FC2846FFF72CFE0E4B149314A900235E
:107F500005F1C0001593FFF789FE85E746EF0B009A
:107F6000E8E50320097C0B0047410B0033410B007F
:107F70000D410B0065430B0002000C0063410B0038
:107F8000E5400B00097E0B002DE9F04706468946C7
:107F9000406A71697368471A09EBA7050135B3EBAD
:107FA000450F144627D95D1B6D083268AD000CB132
:107FB0004FEA89042C441444031DA142A3EB01029F
:107FC00013D9994202D0204605F0ACFE74612368B3
:107FD000F36003F500733361E3197362E359F361EE
:107FE00003F500733362BDE8F0879942EED0381D87
:107FF000801A2044E8E703F102084B452CBF98445F
:10800000C844B8F1005F01D305F014F84FEA8800C6
:10801000FCF741F8A8EB05056D088246AD000CB1F0
:108020004FEA8904726A716904322C4491425444C3
:1080300003D0521A204605F075FE71683068890039
:10804000FCF72DF8C6E900A8C0E70000F0B585B040
:1080500004469DF828509DF82C302B430F461646B9
:10806000FFF7E6FB054600283CD03F4B3F49404820
:10807000002E18BF33463A46FFF7B1FB2046FFF704
:10808000CAFBD4F89820D4F89030043A934204F113
:10809000780629D003B11D60D4F890300433251D33
:1080A000C4F89030284600F089FC03903046FFF772
:1080B000D3FC029001F00EFEDDE9023200902D4962
:1080C0002B48FFF78CFB284600F078FC00283BD0BB
:1080D0002046FFF705FD2046FFF762FD606F01F0C7
:1080E000FDFA012005B0F0BD3046FFF7B5FC6FF09A
:1080F0006043984202D1204804F09FFFD4F89C309E
:10810000A26F9A1AE36FA3EBA203012B04D80022FB
:1081100001213046FFF738FF4FF40070D4F89C700F
:10812000FBF7B9FF7860D4F8903003B11D60D4F844
:108130009C301A1DC4F89C205B68C4F8943003F589
:108140000072C4F89820AAE73046FFF785FCE36E7A
:108150009842BDD801F0BEFD0028B9D007490448B7
:10816000FFF73DFBB7E700BFCDF50B0069EF0B0054
:10817000E8E50320C1EF0B0091EF0B00EDEF0B00E2
:1081800073B590F8B0300446002B41D090F8B13070
:10819000D0F8A420002B3DD050495148FFF71FFBD9
:1081A000D4F8A430D3B1261D0021304600F0B6FB30
:1081B000D4F8A430984205460DD10121304600F094
:1081C000ADFB00222946304600F0E0F9454944481D
:1081D0002A46FFF704FB0023C4F8A430D4F8A0001B
:1081E00010B14321FBF75BFF0023C4F8A030D4F8A3
:1081F000B830C4F8AC303C4B00936946002304F11E
:10820000C0000193FFF732FD01F0A0FAC4F8A80006
:1082100002B070BD35493248FFF7E1FAD4F8BC30FE
:10822000C4F8AC30D4F8A4304BB1D4F8A00010B1ED
:108230004321FBF734FF0023C4F8A030DBE72046DE
:10824000FFF7E9FAD4E92032934213D0D4F8A02002
:1082500043F8042CD4F88030043BC4F88030606FBD
:1082600001F03CFA22491E48FFF7B9FA2046FFF711
:1082700037FCC0E704F178052846FFF7EDFB6FF007
:108280006043984202D11B4804F0D7FED4F88C20FA
:10829000A36F9A4204D1012211462846FFF774FECB
:1082A0004FF40070D4F88C50FBF7F5FE45F8040C41
:1082B000D4F88C301A1FC4F88C2053F8043CC4F84E
:1082C000843003F50072C4F8882003F5FE72C4F808
:1082D0008020D4F8A020C3F8FC21C0E700F00B00F8
:1082E000E8E5032013F00B00B57C0B0023F00B0036
:1082F00035F00B0091EF0B00014B024A1A607047FA
:10830000E8E503205CF00B0010B5074B044640F88D
:10831000C03BFBF71DFF04F17800FFF78FFC201D29
:1083200000F0B8F9204610BD70F00B0010B50446FF
:10833000FFF7EAFF2046D021FBF7B1FE204610BD33
:1083400001207047F8B51F4D1F4B0446294640F8E1
:10835000043B03F0D0FF1D4904F1140003F0CBFFF0
:10836000294604F1240003F0C6FF0023C4E90E33BC
:10837000C4E91233C4E91433C4E91633C4E9183329
:1083800084F834302364082363642020FBF783FEE1
:10839000656C2064013D6D0800EB850706464FF4CF
:1083A0000070FBF778FE00F50073C4E9170346F888
:1083B0002500E064A064A0656765236567662046C4
:1083C000F8BD00BFCDF50B007CF10B007CF00B007D
:1083D0007FB5051D0446284603F0EBFF0E496846AD
:1083E00003F089FF6946284604F05DF806466846B2
:1083F00003F036FF6EB1E3680022013B2946684670
:1084000004F07EF86946284603F0CBFF684603F087
:1084100027FF204604B070BD81F00B0010B5C36B80
:10842000044613B93C3001F029F9E06BBDE8104077
:1084300001F02CB9C06B01F031B9000010B596B055
:108440006946044601F0AAFAD0B9019B5B042246B2
:1084500006D515491548FBF790FE012016B010BD52
:1084600012481349FFF7C9F9204605F025FE40F2EE
:10847000FF11204601F09AFA80B90E492246E9E739
:1084800001F010FD0368022BF1D001F00BFD0A4949
:1084900002680648FFF7B1F90020DFE701F002FDAE
:1084A00006490268F5E700BF8EF00B00F0E50320F7
:1084B000ABF00B00DCF00B00C8F00B00EBF00B0096
:1084C00038B51546044603F016FF4DB12B783BB185
:1084D0000449204603F096FF2946204603F092FF08
:1084E000204638BDCCF60B007FB505460E461C462F
:1084F0004969684604F024F8009904B9746A224670
:108500002846FFF7DDFF684603F0AAFE284604B0C0
:1085100070BD000070B50C468EB01A49CDE900322E
:10852000054603F0E8FEE068E169014404312846AD
:1085300003F0B4FE211D06A803F028FF124902A88B
:1085400003F0D9FE02A906A803F07AFFDDE90032A4
:10855000064621460AA8FFF7C7FF0AA9304603F0DE
:108560006FFF0146284603F002FF0AA803F078FED9
:1085700002A803F075FE06A803F072FE28460EB0AE
:1085800070BD00BFCDF50B0081F00B002DE9F04769
:1085900013468EB005460F46002A4AD0406801F0C7
:1085A00015FA0646002854D0DFF8B4A0DFF8AC90E6
:1085B000DFF8A480304601F011FA002833D0827A27
:1085C000082AF7D100F10B04696901AA204601F0DD
:1085D00041FC0128EED1019BBB42EBD1291D0AA829
:1085E00003F0D4FE514606A803F085FE06A90AA8AA
:1085F00003F026FF214603F02FFF014602A803F0F7
:10860000C5FE06A803F02CFE0AA803F029FE029876
:1086100005F052FD4046029A4946FFF7E0F802A8ED
:1086200003F01EFEC6E730460EB0BDE8F04701F08D
:10863000DDB90A4601460AA8FFF76CFF0A9805F063
:108640003BFD05480A9A0549FFF7C9F80AA803F057
:1086500007FE0EB0BDE8F087F0E5032083F00B00C5
:1086600081F00B0070B50368044683B1436A456925
:108670001E1DAE4206D955F8040B4FF40071FBF7EE
:108680000EFDF6E7616820688900FBF708FD2046CB
:1086900070BD000010B5094B044640F8403BFFF7A1
:1086A000E1FF04F1240003F0DBFD04F1140003F00A
:1086B000D7FD201D03F0D4FD204610BD7CF10B003A
:1086C00010B50446FFF7E6FF20466821FBF7E7FCFC
:1086D000204610BDC368CA689B1A9B105A1ED0E979
:1086E00000301B1A9B1003EBC21388680A68801ABB
:1086F00003EBA000704700002DE9F047026A836990
:10870000043A934204460F4607D00BB10A681A6038
:10871000A3690433A361BDE8F08700F108011830B4
:10872000FFF7D8FF6FF06043984202D1384804F059
:1087300084FC626A20686368111AA3EBA101012915
:1087400025D86169A2EB01084FEAA806B51CB3EB76
:10875000450F36D95D1B6D0800EB8505131DA94239
:10876000A3EB010226D98B4202D0284605F0DAFAA3
:1087700065612B68E36003F50073236105EB080373
:10878000636255F80830E36103F5007323624FF428
:108790000070656AFBF77FFC6860A3690BB13A68FB
:1087A0001A60636A1A1D62625B68E36103F5007216
:1087B0002262AFE78B42DBD008F10400801A284424
:1087C000D4E703F10209012B2CBF994409F10109F7
:1087D000B9F1005F01D304F02DFC4FEA8900FBF7EB
:1087E0005AFC626A6169A9EB050504326D08914281
:1087F000824600EB850503D0521A284605F092FA0E
:10880000616820688900FBF74AFCC4E900A9AFE76A
:1088100091EF0B002DE9F047C368012B86B00446A9
:1088200008D834493448FEF7E8FF0026304606B041
:10883000BDE8F0874068FFF701FE06460028F4D047
:10884000636962682D492C48FEF7C9FF606801F032
:10885000BDF807460028E8D00023DFF8A490DFF831
:108860009880A363384601F0B9F80546002839D04E
:10887000837A082BF6D10B35616901AA284601F0ED
:10888000E9FA0128EED1E36A7BB1294602A803F098
:1088900032FD04F1240102A803F005FE824602A87D
:1088A00003F0DEFCBAF1000FDCD0236829469B6898
:1088B000204698470028D5D0019AA36B9342B8BFB1
:1088C000A2632B4649464046FEF789FF2046FFF744
:1088D000A5FD04F1400001A9FFF70EFF2046FFF7B8
:1088E000A9FDBFE7384601F081F8012384F8343050
:1088F0009CE700BF01F10B00F0E5032016F10B002F
:1089000032F10B0010B590F8343004460BB9FFF784
:1089100081FFA06B0130A06310BD000070B590F81E
:10892000343004460E460BB9FFF774FF2046FFF7BC
:1089300075FDA36CA26D9A4220D0D4E913021D6884
:1089400026B1043A93420CD00433A3642046FFF7C7
:1089500071FD25B10A490B482A46FEF740FF28461B
:1089600070BD4FF40071FBF79AFB636D1A1D6265D1
:108970005B68E36403F500722265E6E70025E5E73E
:1089800048F10B00F0E5032013B590F83430019165
:1089900004460BB9FFF73EFF019BA26B9A42B8BF9A
:1089A000A3632046FFF73AFD01A904F14000FFF759
:1089B000A3FE2046FFF73EFD02B010BD38B50446C9
:1089C000FFF72CFD04F1480104F15800FFF782FE87
:1089D00005462046FFF72EFD284638BD014B024ACA
:1089E0001A607047F0E5032065F10B0003685B68CF
:1089F000184710B58369044633B131B12368204666
:108A00009B6898470023A36110BD00F09FFEA369F7
:108A1000C01AE3699842F1D2F6E710B5C36904467B
:108A20001BB100F093FEA06110BD0368BDE81040CB
:108A30009B68184700F052BE07B5134639B10022B3
:108A4000CDE900220A4601681E2001F08FF803B02C
:108A50005DF804FB10B504460430FCF7ACF923685C
:108A6000E1685B692046984718B9236820469B69EE
:108A700098476068FFF7DEFF012010BD38B5044657
:108A80000430FCF798F9606AA16A036800229B68C9
:108A90009847606A0368D4E902129B699847236883
:108AA00001465B69204698470546606A0368DB68B3
:108AB00098471DB9236820469B6998476068FFF76F
:108AC000B9FF012038BD0000F0B521F00304184FB4
:108AD000184E194D0444A0420CD050F8043B7B437F
:108AE0004FEA734373435A404FEAF24202EB820269
:108AF0002A44F0E701F0030404440023A04204D018
:108B000014F8015D45EA0323F8E70948434309489F
:108B10004FEA73434A4058435040084B80EA1040A4
:108B20005843074B80EA5030584380EA1040F0BD6C
:108B3000512D9ECC9335871B646B54E66BCAEB8535
:108B400035AEB2C2F8B504460430FCF734F9A36878
:108B500000229F689A60A668054AF1883046FFF7B0
:108B6000B3FFB76005466068FFF764FF2846F8BDAD
:108B70003F2A1C8570B504468568FFF7E3FFA860AF
:108B8000236820461B69BDE8704018472DE9F04175
:108B90000446043090460D461F46FCF70CF9E26887
:108BA000C8F101031344AB4219D3384605F051F91B
:108BB000404514D2A66835442946384605F019F9CF
:108BC00058B142460021284605F0C6F839462846E5
:108BD00005F019F92046FFF7CDFF012500E000253B
:108BE0006068FFF727FF2846BDE8F08173B590F86D
:108BF000203004460D46ABB1B1F5805F17D22C4E44
:108C00000A4630462B49FBF7B8FAA1682A46304697
:108C1000FFF712FF00230093274A316801231E202B
:108C200000F09CFF0B2D02D855BB002026E0A36866
:108C300022691968914223D19988A28A91421FD151
:108C4000DA88ABB29A421BD82046FFF77BFFA368B5
:108C50009A688242064614D1E268AA4205D90021E8
:108C60005955E2680135AA42FAD8D4E902322046C1
:108C7000DA80A568FFF766FFA860012002B070BD2A
:108C80000026A1680A68002ACFD088688B880190E6
:108C9000C988009106480949FEF7A1FDCDE90056B3
:108CA000A38A226906490248FEF799FDBDE700BF85
:108CB00044E6032088F10B00CCF50B00A0F10B007B
:108CC000D1F10B0038B50446C2688068002105F078
:108CD00043F8A36822691A60A368A28A9A80D4E93B
:108CE00002322046DA80A568FFF72CFFA86038BD65
:108CF00037B504468568FFF725FFA86094F8203053
:108D00009BB1A3680A4DDA880A492846FBF735FA71
:108D1000A1682846CA88FFF78FFE00230093064A01
:108D2000296801231E2000F019FF03B030BD00BFE9
:108D300044E6032002F20B00CCF50B0010B504460C
:108D40000430FCF738F8606AA16A036840F20262F6
:108D50009B689847606A0368D4E90212DB69984708
:108D6000606A0368DB6898476068FFF763FE204627
:108D7000BDE81040FFF7BCBF704710B52021044686
:108D8000FBF78DF9204610BD10B50272FF2242811B
:108D90000022C0E9032242610276C261024A034C0A
:108DA0001060C0E9004110BDF8E5032054F40B0049
:108DB0002DE9F8439DF820800446894616461F4653
:108DC000B8F1000F02D0406801F0B3FD217A60686D
:108DD00001F08FFD6068036849469B6898476068AA
:108DE000002101F0A2FD054600BB0123217A606845
:108DF0003A4601F06CFD8742034609D13744BE4232
:108E00001CD0606803685B69984706F8010BF6E7B9
:108E10000B490C484A46FEF7F0FCB8F1000F02D0AF
:108E2000606801F08FFD2846BDE8F88303460649D7
:108E300004484A46FEF7E1FC0025EEE70125ECE791
:108E400068F20B00F4E503208DF20B0007B50093E8
:108E50000123FFF7ADFF03B05DF804FB73B5438951
:108E6000FF2B044610D0194E194D00F06FFCB0F5E1
:108E70007A7F09D2608903F0F1FF012804D03146DE
:108E80002846FBF77AF9F0E701230DF107022821C4
:108E90002046FFF7DBFF30B90D480E49FBF76DF9AF
:108EA000002002B070BD9DF80730182BF4D10123CB
:108EB0000DF1070229212046FFF7C8FF0028EBD05B
:108EC0009DF80730052BE7D1EBE700BFB1F20B00AF
:108ED000F4E50320C6F20B002DE9F0419DF818805F
:108EE00004460F4615461E46B8F1000F02D04068F2
:108EF00001F01FFD217A606801F0FBFC60680368E7
:108F000039469B6898472E44B542606805D003688F
:108F100015F8011B9B689847F6E7012101F005FD54
:108F2000034670B1084909483A46FEF766FC002539
:108F3000B8F1000F02D0606801F004FD2846BDE8DA
:108F4000F0810125F4E700BFD3F20B00F4E5032024
:108F50001FB58DF80F2000930DF10F020123FFF7CD
:108F6000BBFF05B05DF804FBF8B50A460C460546A4
:108F70001A491B48FBF701F9002CB8BFEC687CB913
:108F8000012322461B212846FFF7E2FF154902462E
:108F900006461348FEF723FCEC606C613046F8BDD2
:108FA000032C19DDA7101F2FA8BF1F27BA0062F0DE
:108FB0007C020123D2B21B212846FFF7C9FF3A46A3
:108FC0000346094906460648FEF709FC4FF4FA63D2
:108FD0005F43EC606F61E1E70127E7E7F8F20B0020
:108FE000F4E5032002F30B001EF30B00064B1A6896
:108FF0004AB1A0F500630B4305D1D3681BB1002132
:109000001046FFF7B1BF7047F8E503202DE9FF4197
:109010009DF82880054616461F46B8F1000F04D07B
:109020004068019101F085FC0199019100230DF147
:109030000F022846FFF70AFF044660B19DF80F3083
:1090400003EA06023A43934205D0019900232846D9
:10905000FFF77EFF0446B8F1000F02D0686801F008
:1090600071FC204604B0BDE8F08113B514460DF143
:109070000702FFF7EBFE28B19DF807301C420CBF3A
:109080000120002002B010BD13B514460DF10702F7
:10909000FFF7DCFE28B19DF807301C4214BF012009
:1090A000002002B010BD07B5D2430093D2B2002316
:1090B000FFF7ACFF03B05DF804FB000037B50123F8
:1090C0000DF107020F210446FFF7C0FE054638B92F
:1090D0001E491F48AD22FEF790FB284603B030BD65
:1090E0009DF8073013F0200F4FF001030BD0202222
:1090F000E3610F212046FFF7D6FF164A16491448B0
:10910000FBF73BF8E9E7082217212046FFF7BCFFF1
:1091100018B10223114AE361F0E79DF807301A07FE
:1091200009D50323E361082201230F212046FFF71D
:10913000BAFF0B4AE2E75B07CFD50422E2610123C5
:109140000F212046FFF7AFFF064AD7E771F30B0068
:10915000F4E5032042F30B0090F30B004BF30B00FC
:109160005BF30B006BF30B0007B500931346FF2274
:10917000FFF74CFF03B05DF804FB2DE9F3479DF8C2
:1091800028A005460C4691461F46BAF1000F02D0B2
:10919000406801F0CEFB07B3202F3E4628BF2026B3
:1091A0007F2C26D83319802B01D9C4F180060123E6
:1091B00004223F212846FFF776FF002364F07F0159
:1091C00000934A463346C9B22846FFF7F1FD804670
:1091D00028B13444BF1BB144DDE74FF00108BAF1B8
:1091E000000F02D0686801F0ADFB404602B0BDE858
:1091F000F087012304223F212846FFF7B5FFDCE773
:109200002DE9F3479DF828A005460C4691461F46D8
:10921000BAF1000F02D0406801F08BFB07B31F2F9B
:109220003E4628BF1F267F2C26D83319802B01D914
:10923000C4F18006012304223F212846FFF733FFB3
:10924000002364F07F0100934A463346C9B22846A2
:10925000FFF742FE804628B13444BF1BB144DDE72E
:109260004FF00108BAF1000F02D0686801F06AFB04
:10927000404602B0BDE8F087012304223F21284682
:10928000FFF772FFDCE7000030B585B00D68D1E96B
:10929000043203954D6802958D680195C968009167
:1092A0000133044902F26C72044603F049F9204686
:1092B00005B030BDA1F30B0003090A2200F00F0036
:1092C00002FB0300704738B5044600781546FFF7E7
:1092D000F3FF08606078FFF7EFFF4860A078FFF7C2
:1092E000EBFF8860E078FFF7E7FFC8602079FFF7C1
:1092F000E3FF013808612DB9651D2878FFF7DCFF11
:10930000886138BD6079FFF7D7FF6430A51D4861DB
:10931000F3E7000070B5012388B00D461A4610210E
:109320000446FFF7A2FEF0B108230126204600966E
:109330000DEB03020021FFF73BFD044698B13246D6
:1093400029460DF10900FFF7BEFF04A8FFF79CFFB7
:109350000848049A0849FAF710FF04A802F080FFB1
:10936000204608B070BD24220021284604F0F4FCF9
:109370000024F5E7F4E50320BFF30B0030B58BB014
:109380000D4601A9FFF7C6FF044620B101A800F071
:10939000B9FDC5E9000120460BB030BD0A2390FBA2
:1093A000F3F103FB110091FBF3F203FB121240EA0D
:1093B0000210C0B2704770B5054600680C461646EC
:1093C000FFF7ECFF20706868FFF7E8FF6070A8689F
:1093D000FFF7E4FFA070E868FFF7E0FFE07028699E
:1093E0000130FFF7DBFF20712EB9661DA869FFF77A
:1093F000D5FF307070BD6A69642392FBF3F003FB04
:109400001020FFF7CBFFA61D6071EFE7F0B587B026
:10941000054602A816460C46FFF736FF1E48029A7C
:109420001E49FAF7AAFE02A802F01AFF16B16868F0
:1094300001F07FFA204601220DF1090100278DF885
:109440000870FFF7B8FF01231A4610212846FFF7DE
:109450008BFE0446E8B1082300970DEB0302394662
:109460002846FFF739FD044660B101231A46102152
:109470002846FFF718FE16B1686801F063FA204627
:1094800007B0F0BD4FF48D7205490348FEF7B5F9FA
:10949000F1E74FF48F72F7E7F4E50320CDF30B000B
:1094A000DBF30B0013B504466846CDE9002304F056
:1094B00005FC9DF8102001462046FFF7A7FF02B0EB
:1094C00010BD0000F0B5057E89B0044675BB03F001
:1094D00075FA58B30026002704A92846CDE9046789
:1094E00000F020FC10B30125257603F084FAC317A1
:1094F000CDE90203024600952046FFF7D3FF02A9FB
:109500002046CDE90267FFF739FF134B13491B686B
:10951000009304A8DDE9022303F00EFA1048049A30
:109520001049FAF72AFE04A802F09AFE63698BB18B
:1095300000F00CF92369C01A636998420AD300F05D
:1095400005F94FF0FF312061204609B0BDE8F04039
:10955000FFF70ABD09B0F0BDE0E3032098E6032061
:10956000F4E50320F6F30B0030B504468BB011B1DF
:10957000406801F08FF92046FFF770FC06AD002827
:1095800037D02046FFF79AFD01231A4610212046C6
:10959000FFF76BFDD8B103F011FAC0B902A920465C
:1095A000FFF7ECFEDDE9020103F00CF9134B14495F
:1095B0001B6800932846DDE9022303F0BDF911483A
:1095C000069A1149FAF7D9FD284602F049FE0F4BD9
:1095D00006930F4B09930F4B08934FF4006200233F
:1095E00002A80095FAF73AFE2846FAF7B1FD0BB04B
:1095F00030BD09490348FEF700F9E8E7E0E303203E
:1096000098E60320F4E503200CF40B00ED8F0B002B
:1096100047410B0033410B0029F40B00014B024A78
:109620001A607047F4E5032041F40B0008B5024BC3
:109630001B685B6C019308BD7402030008B5024B04
:109640001B685B68019308BD4802030008B5024B24
:109650001B689B68019308BD4802030008B5024BD4
:109660001B681B69019308BD4802030008B5024B43
:109670001B685B69019308BD4802030008B5024BF3
:109680001B681B6B019308BD4802030008B5024B21
:109690001B689B6B019308BD4802030008B5024B91
:1096A0001B681B6C019308BD4802030008B5024B00
:1096B0001B685B6C019308BD4802030008B5024BB0
:1096C0001B689B6C019308BD4802030008B5024B60
:1096D0001B68DB6C019308BD4802030008B5024B10
:1096E0001B685B6D019308BD4802030008B5024B7F
:1096F0001B68DB6E019308BD4802030008B5024BEE
:109700001B685B6D019308BD3402030008B5024B72
:109710001B685B6E019308BD3402030008B5024B61
:109720001B685B68019308BD1802030008B5024B73
:109730001B689B68019308BD1802030008B5024B23
:109740001B68DB68019308BD1802030008B5024BD3
:109750001B685B69019308BD1802030008B5024B42
:109760001B689B6D019308BD1802030008B5024BEE
:109770001B68DB6D019308BD1802030008B5024B9E
:109780001B685B6E019308BD1802030008B5024B0D
:109790001B689B6E019308BD1802030008B5024BBD
:1097A0001B685B68019308BD2C02030008B5024BDF
:1097B0001B689B68019308BD2C02030008B5024B8F
:1097C0001B68DB68019308BD2C02030008B5024B3F
:1097D0001B681B69019308BD2C02030008B5024BEE
:1097E0001B685B69019308BD2C02030008B5024B9E
:1097F0001B689B69019308BD2C02030008B5024B4E
:109800001B68DB69019308BD2C02030008B5024BFD
:109810001B681B6B019308BD2C02030008B5024BAB
:109820001B68DB68019308BD2802030008B5024BE2
:109830001B689B69019308BD2802030008B5024B11
:109840001B68DB69019308BD2802030008B5024BC1
:109850001B681B6A019308BD2802030008B5024B70
:109860001B685B6A019308BD2802030008B5024B20
:109870001B689B6A019308BD2802030008B5024BD0
:109880001B68DB6A019308BD2802030008B5024B80
:109890001B681B6B019308BD2802030008B5024B2F
:1098A0001B685B6B019308BD2802030008B5024BDF
:1098B0001B681B6C019308BD2802030008B5024B0E
:1098C0001B689B6C019308BD2802030008B5024B7E
:1098D0001B68DB6C019308BD2802030008B5024B2E
:1098E0001B681B6D019308BD2802030008B5024BDD
:1098F0001B685B69019308BD6402030008B5024B55
:109900001B689B68019308BD6802030008B5024B01
:109910001B68DB68019308BD6802030008B5024BB1
:109920001B68DB69019308BD3002030008B5024BD8
:109930001B681B6A019308BD3002030008B5024B87
:109940001B681B68019308BD8402030008B5024B25
:109950001B685B68019308BD8402030008B5024BD5
:109960001B689B68019308BD8402030008B5024B85
:109970001B68DB68019308BD8402030008B5024B35
:109980001B685B69019308BD8402030008B5024BA4
:109990001B681B6A019308BD8402030008B5024BD3
:1099A0001B685B6A019308BD8402030008B5024B83
:1099B0001B689B6A019308BD8402030008B5024B33
:1099C0001B681B6B019308BD8402030008B5024BA2
:1099D0001B68DB6B019308BD8402030008B5024BD2
:1099E0001B681B6C019308BD8402030008B5024B81
:1099F0001B685B6D019308BD8402030008B5024B30
:109A00001B689B6E019308BD8402030008B5024BDE
:109A10001B689B68019308BD3C02030008B5024B1C
:109A20001B68DB68019308BD3C02030008B5024BCC
:109A30001B681B69019308BD3C02030008B5024B7B
:109A40001B685B69019308BD3C02030008B5024B2B
:109A50001B689B69019308BD3C02030008B5024BDB
:109A60001B68DB69019308BD3C02030008B5024B8B
:109A70001B681B6A019308BD3C02030008B5024B3A
:109A80001B689B6A019308BD3C02030008B5024BAA
:109A90001B68DB6A019308BD3C02030008B5024B5A
:109AA0001B681B6C019308BD3C02030008B5024B08
:109AB0001B681B68019308BD4C02030008B5024BEC
:109AC0001B685B68019308BD4C02030008B5024B9C
:109AD0001B689B68019308BD4C02030008B5024B4C
