:02000002B0004C
:1040000000400B00D0F70B00000006000D00050279
:0840100004010410000000008F
:04401800B0DF0B000A
:1040200009480A49884208B505D0094A824202D0A7
:10403000121A09F0F3FC0748074A0021121A09F086
:1040400015FD014808BD00BF1CE3032088F60B00E6
:1040500038E4032038E40320F0E7032070B5074E6E
:10406000074C08F029FEA41BA4080025AC4200D18F
:1040700070BD56F8043B98470135F7E724F60B006E
:104080005CF60B0000F00CBB08B500F031FCBDE89D
:10409000084008F0C9BD05F09DBE05F09BBE05F0C7
:1040A000A1BE000008B5034A03490C2005F01EFD1F
:1040B000FEE700BFFD960B00C4DF0B000078B0FAEE
:1040C00080F040097047012303707047014B1A606C
:1040D000704700BF1CE30320014B01221A70704798
:1040E000A0E50320024B0021188808F07EBE00BF27
:1040F0001EE90B00436913B183690C301847704700
:1041000030B585B00446089860B1406850B1856804
:1041100045B1CDE90241CDE90023C46801AB6A464F
:1041200002A9A04705B030BD13B5002104460846DA
:1041300005F04CFA0023204601A9019305F05EFA30
:10414000019C0CB1012323710021012005F03EFAEE
:104150002CB1236820469B6898470023237102B046
:1041600010BD30B585B0006813680193D1E90045F2
:104170008368CDE902450BB908F042FFC36801AA84
:1041800002A9984705B030BD012A02D10160002084
:104190007047022A04BF0B680360F8E703681268DF
:1041A000D1E900011847012A02D1016000207047BF
:1041B000022A04BF0B680360F8E70368184710B5CC
:1041C0008368044613B1032201469847204610BD78
:1041D00010B5044638B1FFF7F2FF20461021BDE8C4
:1041E0001040FFF75CBF10BD37B5134B03600446AA
:1041F0008068C8B100256FF00043CDE90035022189
:104200002B462A4605F002FAA068294605F04EFA28
:10421000237903F0FF0513B105F0C0F9F8E7A068B2
:10422000294605F0E3F9A56004F10C00FFF7C7FF8C
:10423000204603B030BD00BF90E20B0010B504462D
:10424000FFF7D2FF20461C21FFF729FF204610BDB3
:104250000EB400B58CB00DAA4FF0200C52F8041B20
:104260000392CDE900120023016804AA1E20CDE9C3
:1042700004C305F04BFC0CB05DF804EB03B07047D1
:1042800070B5134E134C3278134D022AC2B017D1B9
:1042900008F074FB32782B7804EB0212009204EBE6
:1042A000031398B90D4A4FF4807102A805F0BAFDC6
:1042B00033780B482B7002A9FFF7CAFF42B070BDDC
:1042C0002B7804EB0212009204EB0313054AEAE791
:1042D00097E5032020E3032095E50320D9DF0B00B9
:1042E00048E60320F9DF0B0070B5054605F00EFA2D
:1042F000064E044605F00AFA001BA84205D205F056
:1043000005FA306005F0B6FCF4E770BD0CE7032059
:1043100038B5002383608B6804460D462BB102221A
:104320009847EB68E360AB68A360204638BD012A7C
:1043300037B5044604D10B680360002003B030BDDC
:10434000022A0CD0032AF8D10468002CF5D02046AC
:10435000FFF735FF10212046FFF7A1FEEDE70968C2
:1043600001911020FFF797FE054610B10199FFF764
:10437000CFFF2560E1E738B5046805467CB1636886
:10438000013B63605BB9236820469B689847A3683C
:10439000013BA3601BB923682046DB689847284689
:1043A00038BD000010B50B7894B00C46D3B9204945
:1043B00004A809F0B2FB00F03DFE00F08EFF78B1DA
:1043C00005F068FC60B11B4B1B491B788DF8003071
:1043D00002A83C2304AA06F049F803A8FFF7CBFF84
:1043E00014B010BD084609F0EFFAC82811D11349DE
:1043F00004A809F092FB00F01DFE044608F0DBFA69
:104400000246C317204600F0F5FF0D4B00221A703C
:10441000D1E7204609F0D8FAC928E8D0204609F0AB
:10442000D3FA084A0346402104A805F0FBFCC2E782
:1044300007E00B003CE403203EE00B000FE00B0024
:1044400094E5032021E00B001FB505F023FC60B1CB
:10445000124B134A1B788DF8003002A811493C23F7
:1044600006F004F803A8FFF786FF0F490F48FFF78F
:10447000EFFE00F0DFFD002100F05BFF00F0DAFD51
:1044800000F030FF18B900F033FE00F06DFE00F0D0
:104490002FFE05B05DF804EB00F0B6BF3CE403204E
:1044A0004BE00B005BE00B0053E00B0048E6032001
:1044B00013B50B460246D0E900016C4684E80300C0
:1044C00093E8030082E8030094E8030083E8030014
:1044D00002B010BD2DE9F04194B005461A9904A828
:1044E00017461E46FFF714FF04A908A8FFF710FFA0
:1044F00008A90CA8FFF70CFF4FF000081020CDF81A
:104500004880FFF7C8FD044668B1C0F8088001463E
:104510000CA8FFF7CDFF0E9BA2680E92A360E26885
:104520000F9BE3600F92244B1393244B12930022B2
:1045300000234FF00008C5E90023214BC5F808808F
:1045400010201094CDE90138CDF80C80FFF7A3FDC1
:104550000446D8B1129BC0F8088033B1022210A9DA
:104560009847139BE360129BA360164B0393164A74
:10457000029401AB3846314605F012FBB0B120463B
:10458000FFF71DFE10212046FFF789FD10A8FFF759
:1045900016FE0CA8FFF713FE08A8FFF710FE04A8EC
:1045A000FFF70DFE284614B0BDE8F081029BAB601A
:1045B000C5E90076EAE700BF63410B002F430B001B
:1045C00002000C00D1410B0001410B0070B5294BDA
:1045D000294C012686B01E7008F0A0FB00231A4665
:1045E000314608F0ABFB08F099FB00231A460D2179
:1045F00008F09CFB214B0293214B0593214B049324
:104600000025214B236004F10C0102A82571A5604F
:104610006561FFF74DFF049B626904926361A269C3
:10462000059BA3614FF47A7123460592CDE900659D
:10463000164A04F1080004F0D1FF02A8FFF7BFFDFD
:10464000134B14481D611A1D1A60134A5A60C3E9BE
:1046500002551E75062340F8043B02F01DFE08F0CB
:104660003DFC01460D48692206B0BDE8704004F0EB
:104670002BBB00BF3CE4032078E50320E5400B00A2
:10468000BB410B00A7410B0090E20B0029410B003E
:1046900070E4032088E403201000030050E40320AA
:1046A000F0B5C1B006A805F0FDFA00237D2220A9CF
:1046B00006A807F0EDFE00237A497B4F7B4D7C4C2A
:1046C0001A46CDE9003320A805F0FCFA0AAB4FF4F6
:1046D0008022009302A800230A970D950C94FFF7FF
:1046E000F9FE0AA8FFF76BFD01F090F801F0A0F8C1
:1046F00001F0D4FC6F4B1E880121304608F075FB99
:1047000001F0F6FC4FF4FA60FFF7EEFD00F092FCCA
:1047100003681B68984700F0EBFC03681B68984728
:1047200003F02AF903F034FB634808230121438195
:1047300004F0BAFE7C21604804F0B6FB0AAB4FF4EB
:104740008022009302A80023CDE90C450A97FFF7C9
:10475000C1FE0AA8FFF733FD01F0EEFD142008F0BA
:104760005DFB40B955495648FFF772FD00F062FC09
:1047700003689B69984700F05DFC00F00EFE0C4654
:10478000054608F035F9C317A34208BFA84214BF75
:1047900001200020002107F0EDFF28B149494848D9
:1047A000FFF756FDFFF750FE08F0E8F8464D0028E9
:1047B00067D108F000F9C31702460AA807F0F6FF10
:1047C0000A9A42493E48FFF743FD0AA807F028FD30
:1047D00004232B7002F03EFE3D4904460AA802F075
:1047E0000DFE0BA904F1080007F0A1FD109BE36189
:1047F00011A904F1200007F09AFD169B6363189B32
:10480000E3631A9B63641C9BE3641E9B63659DF8D2
:104810007C3084F858300AA802F0D0FB08F0CBF8BE
:104820002C4BC217C3E91802184602F08BFE2A4827
:104830002A49008800224FF0FF33009206F06CF8FE
:104840002B780BB903232B7000F0F4FB00F0A5FDCF
:104850000B4623490091024622490AA808F04CF869
:104860000A9A21491648FFF7F3FC0AA807F0D8FC7A
:104870000021304608F0B9FA06A807F0D1FC41B093
:10488000F0BD08F098F8C31702460AA807F08EFF9B
:104890000A9A16490A48FFF7DBFC0AA807F0C0FC91
:1048A00098E700BFA5430B00CD400B009D410B00D6
:1048B00089410B001EE90B0050E4032069E00B0066
:1048C00048E603209BE00B0097E50320B5E00B00D2
:1048D000ECE00B0088E4032020E90B00D9400B003A
:1048E00013E10B009CE6032016E10B00D9E00B005E
:1048F0002DE9F041954C2DED028B2378013B98B0CA
:10490000062B4CD8DFE813F0550207002B00EF010F
:104910004B004801C8018E4B1B78022B01D0FFF7DA
:10492000AFFC00F087FB00F0E2FC50B104F0EEFEBB
:10493000884B1B68C01A884B1B68984284BF0323AE
:10494000237008F049F8054600F074FB00F020FDE4
:1049500007F008FF854222D0062323701FE07C4B1E
:104960001B78032B01D0FFF78BFC7C4B1B7803F0EB
:10497000FF01A3B97A4B986868B905F08BF918B9AB
:10498000784807F09FF940BB00F040FF01F0EEFAD5
:1049900018BB0123E1E704F079FE0028EDD072484E
:1049A00004F030FD00F0A4FB00F0BCFB00F042FB83
:1049B00000F05AFB02F0E0FF02F0D0FE6B4B1B68E8
:1049C000002B05DB6A496B48FFF742FC012323708B
:1049D00018B0BDEC028BBDE8F08107F0ECFF4FF49E
:1049E0006162654D90FBF2F303FB1202C2F5616256
:1049F000B2F5616F2B7DA8BF4FF46162571C002B8D
:104A00004FD002232B722B68DB68F3B19A88012AFE
:104A100006D09B68F9E79B68BBB19A88012AFAD156
:104A20009A89142AF7D102229A732B7D002B38D051
:104A30002B684FF47A78DB6808FB07F8EBB19A88AB
:104A4000042A00F0DA819B68F8E74C49102008F04E
:104A5000CDFA0646002800F0D3811022002109F08B
:104A600005F8474B33600123B3802B69B3601423EF
:104A7000B3810223B3732E61D7E74049102008F0B9
:104A8000B5FA0646002800F0BB811022002108F08C
:104A9000EDFF3B4B33600423B3802B692E61C6E9E5
:104AA00002380021304804F0FFF9334905A807F027
:104AB00091FD2D484FF0FF3104F0F6F9059B43B30B
:104AC0009A88012A25D19B89142B22D12D49294866
:104AD000FFF7BEFB00F0AEFA002100F036FC00F05C
:104AE000A9FA182100F0D5FB00F0A4FA002100F08B
:104AF000CAFB194B244A1A6004F008FE154B1860D3
:104B000004230598237000283FF449AF05F06AF9A3
:104B100045E74FF4FA60FFF7E7FB07F04CFF1B4B4C
:104B20001B490093C219D31708A807F0E5FE089A9D
:104B3000039207F0AFFD039A164903460D48FFF7AD
:104B400087FB08A807F06CFB0223DAE797E5032050
:104B500095E503209CE5032098E5032096E50320D6
:104B600078E5032004E6032050E403201CE303203F
:104B70006AE20B0048E6032070E4032000F40B0017
:104B8000100003003CE10B00905F010013E10B00FB
:104B90009CE6032079E10B009A4B1B78062B01D091
:104BA000FFF76EFB00F046FA054607F004FF0246E9
:104BB000C317284600F014FC01F0BEFB07F00CFF01
:104BC000054600F037FA00F021FB854201D1FFF7DE
:104BD0003BFC00F01BFE00F06DFE0423237005F08B
:104BE00059F840B1884B894A1A6004F08FFD884B10
:104BF00018600723B1E600F01DFA00F07DFBE8B96C
:104C000000F018FA00F073FB00283FF4C8AE814BA7
:104C1000188808F003F900283FF4C1AE00F068FAE4
:104C200000F0A2FA9FED7C8AB4EEC80AF1EE10FA09
:104C300010DD7A497A48FFF70BFBB0E6754B188810
:104C400008F0ECF80028DBD076497548FFF700FB48
:104C5000022382E600F04CFA00F086FADFED727A69
:104C6000B4EEE70AF1EE10FA10D900F041FA00F0C4
:104C70007BFAB4EEC80AF1EE10FA3FF690AE07F0F8
:104C8000ABFEC3077FF58BAE6849DEE707F0A4FEF5
:104C90008207EAD06649D8E75A4B664D1B78072B46
:104CA00007D004F033FD644B186001232B70FFF72D
:104CB000E7FA2B7863B9544B544A1A6004F026FD86
:104CC000534B186000F0B6F9012100F03EFBBFE73E
:104CD00004F01CFD584B1B68C01A47F23053984231
:104CE0007FF65DAE55E6474B544E1B78042B0DD036
:104CF000534A137000F09EF9002100F051FCFFF7B9
:104D0000BFFA04F003FD306004F0BCFF00F092F93C
:104D1000054604F0FBFC3168411A4FF47A70B1FB90
:104D2000F0F1284689B200F03BFC04F0B3FF002804
:104D300038D000F07FF9054607F03DFE0246C31764
:104D4000284600F052FB304B304A1A6004F0DEFC7B
:104D50002F4B186001F030FA00F06CF900F08CFB7A
:104D6000384A0346402108A805F05CF808A92C48F9
:104D7000FFF76EFA00F05EF900F0AFFA60B1324B67
:104D800032491B788DF8003005A83C2308AA05F0AD
:104D90006DFB06A8FFF7EFFA294B1B78062B7FF473
:104DA00057AF26E700F046F900F066FBB0F5167F36
:104DB00096E7144B1B78012B01D0FFF761FA244DC5
:104DC000244E2B78BFF35B8F13F0010F09D12846D7
:104DD000FFF774F928B104F099FC30602846FFF71A
:104DE00072F904F093FC3368C01A47F230539842CA
:104DF0007FF6D5AD07F0EBFBD1E5C3F80C8050E6AC
:104E00002E754EE695E5032098E50320905F01009E
:104E10009CE5032020E90B0000008242C1E10B0069
:104E200048E603209FE10B000000484218E20B0017
:104E3000E5E10B0094E5032048E403204CE4032063
:104E400044E403204CE20B003CE4032061E20B004D
:104E500038E4032040E40320704710B508210446DD
:104E6000FFF71DF9204610BD00B597B069464068B0
:104E700008F07CFF049817B05DF804FB08B54068A3
:104E800008F0ACFF20EAE07008BD08B5406808F003
:104E900093FF20EAE07008BD08B5406804F08EFD7D
:104EA000B0FA80F0400908BD10B504464068431CC4
:104EB00004D008F053FF4FF0FF336360012010BDB2
:104EC00010B50446084611464FF4DB7208F060FF47
:104ED0006060013018BF012010BD08B50029AEBFC9
:104EE000002202220021406808F048FFC043C00FA2
:104EF00008BD10B5036804460BB904F0A7FB206891
:104F0000BDE8104004F0B2BB10B50A4B0360044684
:104F1000406A10B103685B68984704F1280007F005
:104F20007FF96068044B236008B104F097FB2046CA
:104F300010BD00BFECEE0B00C8EE0B0010B5034B2C
:104F400003600446FFF7E0FF204610BDB0E30B000E
:104F500010B50446FFF7F2FF20463821FFF79FF80F
:104F6000204610BD10B5034B03600446FFF7E6FF73
:104F7000204610BD1CE40B0010B50446FFF7F2FFFD
:104F800020469821FFF78BF8204610BD10B5034B43
:104F900003600446FFF7D2FF204610BD48E40B0033
:104FA00010B50446FFF7F2FF20467021FFF777F8AF
:104FB000204610BD10B50446FFF7A6FF2046382155
:104FC000FFF76DF8204610BD37B5154B044619683C
:104FD000019100F138050820FFF75DF8019920B133
:104FE000104B03604FF0FF33436000230E4AA36170
:104FF000C4E901356025C4E903520222A28284F883
:1050000020304FF47A72094B23606062E26104F150
:10501000280007F050F9064B2360204603B030BD4E
:10502000A4E3032084E30B00759EA920ECEE0B00A3
:105030001CE40B0038B5064D2B683BB99820FFF7F0
:105040002AF8044608B1FFF7BFFF2C60286838BD76
:10505000A4E5032010B5FFF7EDFF64220368C261E9
:10506000BDE810405B68184710B5FFF7E3FF036821
:10507000BDE81040DB68002118470B4627221621A7
:1050800003F024BD37B5154B04461968019100F1B2
:1050900038050820FEF7FFFF019920B1104B03608F
:1050A0004FF0FF33436000230E4AA361C4E901358A
:1050B0003825C4E903520222A28284F820304FF43A
:1050C0007A72094B23606062E26104F1280007F004
:1050D000F2F8064B2360204603B030BDA0E3032066
:1050E00084E30B00749EA920ECEE0B0048E40B0057
:1050F00038B5064D2B683BB97020FEF7CCFF04464F
:1051000008B1FFF7BFFF2C60286838BDA8E5032071
:1051100010B5FFF7EDFFFA220368C261BDE8104049
:105120005B68184710B5FFF7E3FF0368BDE8104060
:10513000DB680021184738B5044604300D46FFF7F8
:10514000D8FEE368013B232B09D9A36893F92420F7
:10515000AA4204D083F82450204603F0ABFC6068D8
:10516000BDE8384004F08ABA10B504462DED028B34
:105170000430FFF7BEFEE3686068043B2F2B8ABF54
:10518000A3689FED058A93ED0C8A04F077FAB0EEE0
:10519000480ABDEC028B10BD0000000010B50446AB
:1051A0002DED028B0430B0EE408AFFF7A2FEE368DB
:1051B000043B2F2B0CD9A368D3ED0C7AB4EE678A8D
:1051C000F1EE10FA04D083ED0C8A204603F072FC55
:1051D000BDEC028B6068BDE8104004F04FBA38B5F2
:1051E000044604300D46FFF784FEE3686068013B27
:1051F000AB4226BFA3685D5D002504F03FFA284658
:1052000038BD08B51521FFF7EAFF08BD08B53D21F7
:10521000FFF7E5FF08BD08B53E21FFF7E0FF08BD39
:1052200008B55A21FFF7DBFF08BD08B52021FFF7BD
:10523000D6FF08BD08B53421FFF7D1FF08BD70B512
:10524000044604300D461646FFF753FEE368013B63
:10525000AB4207D3A3685A5DB24203D05E552046E5
:1052600003F028FC6068BDE8704004F007BA08B598
:105270000A461021FFF7E3FF08BD08B50A461521CD
:10528000FFF7DDFF08BD08B50A463D21FFF7D7FF50
:1052900008BD08B50A463E21FFF7D1FF08BD08B595
:1052A0000A465A21FFF7CBFF08BD08B50A4634214C
:1052B000FFF7C5FF08BD38B5044604300D46FFF7BB
:1052C00018FEE3686068013BAB4226BFA3685D5DE2
:1052D000002504F0D3F9284638BD08B51121FFF7A1
:1052E000EAFF08BD08B51221FFF7E5FF08BD08B5C4
:1052F0001321FFF7E0FF08BD08B51421FFF7DBFF1E
:1053000008BD70B5044604300D461646FFF7F1FDA2
:10531000E368013BAB4207D3A3685A5DB24203D0B6
:105320005E55204603F0C6FB6068BDE8704004F09F
:10533000A5B908B50A461121FFF7E3FF08BD08B576
:105340000A461221FFF7DDFF08BD08B50A46132102
:10535000FFF7D7FF08BD08B50A461421FFF7D1FFB4
:1053600008BDF8B5044604300D46FFF7C2FDE368FA
:105370006068083BAB4223BFA1684919D1E90067C7
:10538000002638BF002704F079F930463946F8BDC9
:1053900008B54021FFF7E5FF08BD08B54821FFF734
:1053A000E0FF08BDF8B5044604300D461E4617461A
:1053B000FFF79FFDE368083BAB420CD3A3685A1983
:1053C00058595168B14208BFB84204D05F512046D5
:1053D000566003F06FFB6068BDE8F84004F04EB91A
:1053E00008B54021FFF7DEFF08BD08B54821FFF7EB
:1053F000D9FF08BD08B55021FFF7D4FF08BD08B597
:105400001821FFF7CFFF08BD10B5FFF771FE044666
:1054100007F0D1FA0246C3172046FFF7F0FFFFF767
:1054200009FEBDE810400021FFF727BF10B5044674
:1054300003F0E8FB05490648FEF70AFF2046FFF7A0
:10544000E3FF2046BDE8104003F034BB9CE20B00B4
:1054500048E6032038B5044604300D46FFF749FD01
:10546000E3686068023BAB4226BFA3685D5B002532
:1054700004F004F9284638BD08B55821FFF7EAFFC3
:1054800008BD000010B503F051FB044698B1FFF7CA
:10549000D1FDFFF7BBFEFFF7CDFDFFF7B7FE0C28F0
:1054A0000BD9FFF7C7FDFFF7B1FE114902461148BE
:1054B000FEF7CEFE0024104A14E0FFF7BBFDFFF715
:1054C0006CFF002906DAFFF7B5FDFFF7D5FF0B49A2
:1054D0000246ECE7FFF7AEFDFFF7CEFFB0F5617FC8
:1054E000F1D8074A07490348FEF7B2FE204610BD2F
:1054F000BFE20B0048E60320B5E20B00DCE20B0044
:10550000B9E20B0008E30B0008B51021FFF7A2FF7A
:1055100008BD000010B503F009FB0446A0B1FFF779
:10552000E7FDFFF7F1FFFFF7E3FDFFF7EDFFB0F554
:10553000806F10D9FFF7DCFDFFF7E6FF0749024651
:105540000748FEF785FE0024064A07490448FEF78F
:105550007FFE204610BD054AF7E700BF1DE30B00A4
:1055600048E60320B5E20B003FE30B00B9E20B0075
:1055700070B5044604300D461646FFF7BAFCE368E2
:10558000023BAB4207D3A3685A5BB24203D05E53DF
:10559000204603F08FFA6068BDE8704004F06EB8F2
:1055A00008B50A465821FFF7E3FF08BD70B58CB077
:1055B00003F028FB354B05AC03F1180622461868AA
:1055C0005968254603C50833B3422C46F7D100235A
:1055D00011462F48ADF82C30FEF73AFE04F05AFB86
:1055E00005AAD0B12B4B2C491B788DF8003003A8AD
:1055F0003C2304F03BFF049C7CB16368013B636087
:105600005BB9236820469B689847A368013BA36069
:105610001BB923682046DB68984720491C48FEF7E1
:1056200017FEFFF707FD0121FFF721FEFFF702FD3F
:105630000021FFF77EFEFFF7FDFC0021FFF78BFE48
:10564000FFF7F8FC0121FFF77AFEFFF7F3FC0021DA
:10565000FFF77BFEFFF7EEFC1149FFF70EFDFFF7AA
:10566000E9FC0121FFF71BFEFFF7E4FC0021FFF737
:105670000AFEFFF7DFFC1821FFF70BFEFFF7DAFC4D
:105680000021FFF78DFF0CB070BD00BFF8E30B00E9
:1056900048E60320A1E5032056E30B005BE30B0083
:1056A00073E30B0008B50A461021FFF761FF08BD40
:1056B00038B5044604300D46FFF71BFCE36860680C
:1056C000013BAB4226BFA3685D57002503F0D6FF20
:1056D000284638BD08B52421FFF7EAFF08BD0000C1
:1056E000014B01221A707047A1E503207047006A40
:1056F0000368DB681847704710B504210446FEF7BD
:10570000CEFC204610BD000010B5034B03600446DC
:1057100001F054F8204610BD70E80B0010B50446A7
:10572000FFF7F2FF204640F62C11FEF7B8FC2046AA
:1057300010BD7FB502685368906814685E1000EB76
:105740006305DB0748BF8359684648BF1C5906F00C
:10575000E3FD69462846A0470446684606F060FD1A
:10576000204604B070BD012A38B5044602D10B684A
:10577000236003E0022A03D0032A0DD0002038BDA5
:105780000C200D68FEF787FC03460028F0D095E852
:10579000070083E80700EBE700680028EED00C2143
:1057A000FEF77DFCEAE737B51D4601AB044601F084
:1057B0009DF920B101992A46204601F079F903B0FC
:1057C00030BD00000A4B10B50446036005F072FCC2
:1057D000214605F076FE07F0DFF907F0D1F9204603
:1057E000044B40F8043B05F007FD204610BD00BF08
:1057F00058E80B0040E80B0010B50446FFF7E2FF45
:1058000020462421FEF74BFC204610BD10B5064C67
:10581000236833B90420FEF73EFC08B1034B036054
:105820002060206810BD00BFBCE50320BCE80B0071
:1058300030B5194985B004461848FEF709FD002522
:105840000C200295FEF727FC18B1154B8460C0E9C7
:105850000035144B009003931020134B0293FEF776
:105860001AFC044678B100238360029B33B1022204
:1058700069469847039BE360029BA3600B4A0C4870
:10588000214604F0E2FC029B1BB169460322084654
:10589000984705B030BD00BF6CE40B0048E603201C
:1058A00081590B0033570B0067570B009AE40B002C
:1058B00023A20B002DE9F041CAB007F07CF807469F
:1058C000FFF716FCFFF720FE0990FFF711FCFFF72A
:1058D0004BFC10EE104AFFF70BFCFFF7ABFC214A24
:1058E00052F82080FFF7A6FBFFF78BFC0546FFF779
:1058F000FFFBFFF7EFFE0646FFF79CFBFFF7BCFD43
:10590000CDE905072046CDE90356CDF8088007F01C
:10591000DFFC099B144ACDE900014FF480710AA80D
:1059200004F080FA02F028F8104B114A1B78127824
:1059300010491343002402688DF800308DF80440AC
:105940003C2315680AAAA8470AAA0B490B48FEF788
:105950007FFCFFF7CDFB2146FFF7EDFB4AB0BDE82A
:10596000F08100BFA8E30320A3E40B00B9E5032006
:10597000B8E503200DE50B0024E50B0048E6032005
:105980002DE9F04FADF64C2D0C460746AF490BA85C
:1059900006F091FCAD490FA806F08DFC20233C22B7
:1059A000002118A8179308F061F850234FF4806283
:1059B000009352A90DF5A96347A800F057FFA44B27
:1059C0002168A4484793FEF743FC47A800F044FF32
:1059D00021680791084608F0C6F80799024647A8CB
:1059E00000F01DFF47A801F08BFA044690B99A49D0
:1059F0009848FEF72DFC994B974A1B788DF800309C
:105A000027A897493C2304F031FD28A8FEF7B3FCF2
:105A1000254616E047A800F039FF914ADFF8989232
:105A2000DFF8388201460AAB47A801F05FF800258D
:105A30000A992A4647A800F04BFF014678B9002D85
:105A4000E6D147A8FFF760FE0FA806F0E9FB0BA818
:105A500006F0E6FB28460DF64C2DBDE8F08F0BABAB
:105A60004A46079047A8FFF79EFE07997D4A47A838
:105A70000FABFFF798FE7C490FA806F0E2FC002868
:105A800036D07A490BA806F0DCFC60B3784917A839
:105A900008F043F8FFF7CEFA03689B699847FFF7D1
:105AA00027FBFFF7B1FCFFF723FBFFF7ADFC9DF8E9
:105AB0005C30202B13D0674817A9FEF7C9FB04F010
:105AC000E9F860B198F800308DF8003027A86449F3
:105AD0003C2317AA04F0CAFC28A8FEF74CFC0135A9
:105AE0000A2DA5D194E7634917A808F016F8DAE75C
:105AF00061490FA806F0A5FC00287DD000F01CFC31
:105B0000FFF7F6FAFFF700FD0790FFF793FAFFF7AC
:105B100087FB5A4E5A4A002818BF1646FFF7E8FA84
:105B2000FFF722FB10EE10AAFFF7E2FAFFF782FB65
:105B3000544A52F820200492504607F0C9FB079BB4
:105B4000514A0096CDE90201802127A804F06AF9A4
:105B5000404827A9FEF77CFB98F8003046498DF8AD
:105B6000003027AA3C2313A804F080FC14A8FEF7F9
:105B700002FC46490BA806F064FC002897D006F00A
:105B80001AFF434B434900930246C31713A806F07C
:105B9000B3FE139B0793FFF74DFAFFF737FB06465B
:105BA000FFF748FAFFF737FB8246FFF743FAFFF7A4
:105BB0009EFB3949394A079B0096002808BF0A46D0
:105BC000CDE901A28021364A27A804F02BF913A8B9
:105BD00006F026FB27A91F48FEF73AFB98F800308D
:105BE0008DF8003013A824493C2327AA04F03EFC7A
:105BF00014A8FEF7C0FB5AE72A490FA806F021FCBB
:105C0000064628B100F098FB3846FFF753FE4EE7F2
:105C100025490FA806F015FC834600284ED02349DD
:105C20000BA806F00EFC48B1214917A807F075FF34
:105C3000FFF700FA3146FFF788FB38E71D4917A840
:105C400007F06BFFFFF7F6F90121F4E775F20B009F
:105C500070E80B0048E603205BE50B00B8E5032085
:105C600079E50B0081E50B0084E50B008AE50B006C
:105C70008EE50B00BEE50B00E3E50B0038E50B00FD
:105C80003CE50B00A8E30320EAE50B001AE60B0055
:105C900013E10B009CE6032042E50B0046E50B00F8
:105CA0001FE60B0046E60B004BE60B0050E60B0030
:105CB00055E60B0075E60B007DE50B0033490FA898
:105CC00006F0BFFB8246C8B10B980A2209A908F06A
:105CD0003BF80C2806460BD803462D4A402117A84E
:105CE00004F0A0F8FFF7A6F9F1B2FFF7CCFADEE670
:105CF000284917A807F011FF5C46D8E626490FA8E7
:105D000006F09FFB8346D8B10B980A2209A908F038
:105D10001BF8A0F10D030B2B06460BD803461F4AB8
:105D2000402117A804F07EF8FFF784F9F1B2FFF7DD
:105D3000B0FABCE61A4917A807F0EFFE5446B6E6DB
:105D400018490FA806F07DFB0646C8B10B980A2239
:105D500009A907F0F9FF022806460FD8124A134B8B
:105D60004021002808BF1346114A17A804F05AF82A
:105D7000FFF760F9F1B2FFF792FA98E60D49B8E73C
:105D80000D4917A807F0C9FE344690E697E60B00C8
:105D90009CE60B00BAE60B00D3E60B00D9E60B003D
:105DA000F7E60B0012E70B0050E50B0054E50B0083
:105DB00017E70B0039E70B005AE70B0070B5D0E985
:105DC00000531426044606FB0356AE4204D0284670
:105DD00006F026FA1435F8E7206804F003F82046A8
:105DE00070BD8842F8B504460D46164616D9904255
:105DF00015D2A2F11406751AA1F114072C44B7426A
:105E00001CD02CB13146204606F086FA337C237430
:105E1000304606F005FA143E143CF0E70ED0B542C9
:105E20000CD02CB12946204606F076FA2B7C237440
:105E3000284606F0F5F914351434F0E7F8BD2DE9DD
:105E4000F0410023C0E9003383604F689F4204465D
:105E50000E4623DD4FF0140808FB07F003F0BAFFED
:105E60000546D8B1D4E9001208FB0212FFF7B9FFCA
:105E7000206803F0B7FF2560A760D6E9007308FB30
:105E80000378B84508D03946284606F05FFA3B7CCF
:105E90002B7414371435F4E7736863602046BDE84B
:105EA000F0810000294B70B501251D70284B082298
:105EB0001A70284B284A9A6000248CB0C3E9004429
:105EC000022003F05DFE2146284603F071FE2946BC
:105ED000042003F0FBFBCDE90044029406F05CFED5
:105EE0001E4C0546694603A8FFF7A9FF264603A9ED
:105EF00006A8FFF7A4FF1A4B46F8043B06A909A819
:105F0000FFF79DFF09AA1E21304605F0BDFB09A839
:105F1000FFF754FF06A8FFF751FF124B23602562DD
:105F200003A8FFF74BFF104B236006F035FE4FF43C
:105F3000165106F021FE05F0BDF8214605F07AFA6B
:105F40006846FFF73BFF0CB070BD00BFB8E503200B
:105F5000B9E50320ACE503200000FFFFC0E5032006
:105F600040E80B00A8F20B0058E80B002DE9F043C5
:105F700085B006F020FD414905464148FEF768F925
:105F8000002401A8CDE90144ADF80C4004F06EF9FD
:105F9000204603F0CBFB43F698260446002003F08E
:105FA000C5FB031B61F10001B34271F1000305D28F
:105FB00003F070FE10B103F05DFEEFE703F06AFE40
:105FC00003F0A4FB2F4F386003F054FE03F062FE91
:105FD000044640B12C492A48FEF73AF900242046ED
:105FE00005B0BDE8F08306F0E6FC2849DFF8A080A4
:105FF000421B2348FEF72CF906F0DDFC2246022165
:106000000646D8F8040003F095FED8F804002346AD
:106010002246214603F0A6FE204603F087FB47F206
:1060200030590546002003F081FB431B61F100015C
:106030004B4571F1000306D2404605F043FE10B90E
:1060400003F018FEEEE7124805F03CFE03F05EFB9D
:10605000386003F00FFE0E4805F030FE20B10D4908
:106060000748FEF7F5F8BAE706F0A5FC0A49821BD7
:106070000348FEF7EDF80124B1E700BF6EE70B001F
:1060800048E603200CE7032097E70B00BAE70B0074
:1060900004E60320E3E70B0009E80B0008B50F490D
:1060A0000F48FEF7D5F80221042006F08DFE0021EE
:1060B000082006F089FE0121072006F085FE002158
:1060C000122006F081FE0121112006F07DFE012143
:1060D000102006F079FE012008BD00BFC4E80B00C7
:1060E00048E60320014600B10121112006F07DBEE3
:1060F00010B51C491C4890B02024FEF7A9F8224690
:106100000021684607F0B2FC224600210DEB040096
:106110008DF8054007F0AAFC00210DEB04008DF876
:10612000254003F081FD41F2D833ADF806300F4B26
:10613000029341F27003ADF80C30009B43F40073FE
:1061400043F0010300216846009303F06DFD04460F
:1061500018B907490448FEF77BF8201E18BF012034
:1061600010B010BDDDE80B0048E603208403840373
:10617000F7E80B0013B5012101A805F038FEFEF782
:10618000B7FFFFF752F8FEF7B3FFFFF74EF82528E9
:1061900001A80DD905F0BEFEFEF7AAFF0121FFF709
:1061A00084F8002401A805F031FE204602B010BD9D
:1061B00005F095FE0124F5E730B51B4D0FCD9BB0E2
:1061C00010AC0FC40FCD0FC495E8030084E80300A2
:1061D000164908A803F0F8FE08A803F038FF0446A3
:1061E00008A803F06DFF08A810EE105A03F098FFFE
:1061F0001AAB10EE100A03EB840407F069F8CDE93E
:106200000201284607F064F8CDE90001102154F896
:10621000283C074A0DEB010003F004FE054804A9E1
:10622000FEF716F81BB030BDC4E90B0004E60320EE
:1062300062E90B0048E6032030B585B00D46002228
:106240006946009203F08AFC90B9009C0CB1236966
:1062500023B9084A08490A2003F048FC0C23CDE979
:1062600001350423039301AA23690121204698479D
:1062700005B030BDFD960B007BE90B0013B5FEF7B2
:1062800037FF01A904460720FFF7D6FF011EA8BF6C
:1062900001992046C9B2FFF708F8FEF729FF01A9C6
:1062A00004460320FFF7C8FFB8BBBDF8043000EE7A
:1062B000103ABBEECC0A2046FEF770FF01A903207E
:1062C000FFF7BAFF60BBBDF8043007EE903AFBEE73
:1062D000CC7A17EE900A06F0FBFF02460B461348F5
:1062E0001349FDF7B5FFFEF703FFFEF73DFFDFEDB6
:1062F000117AB4EEE70AF1EE10FA14DCFEF7F8FEBC
:10630000FEF732FFFFEE007AB4EE670AF1EE10FA04
:106310000CBF0120002002B010BDBFEE000ACAE78A
:10632000FFEE007AD5E70120F5E700BF48E603203D
:10633000A1E90B000000704210B5FFF79FFF20B9E4
:10634000FEF778FE0121FFF700F8FFF713FF03F0D7
:10635000A1FC08B1FFF730FF0120FFF7C3FE642066
:1063600003F0B8FDFEF7C4FE0D4B0446188806F096
:1063700068FD06F09BFF08A3D3E9002307F000F8AF
:1063800007F0D6FA81B22046FFF78CF90020FFF71C
:10639000A9FE012010BD00BF9A9999999999493F8A
:1063A00022E90B0010B5012303748368044643B14E
:1063B000C0689847012363740020BDE8104003F0D3
:1063C0006DB900680028F5D083680BB906F018FE97
:1063D000C368EEE7012A02D1016000207047022A5B
:1063E00004BF0B680360F8E738B50568044635B1AB
:1063F0002846FDF7E4FE10212846FDF750FE204612
:106400001421BDE83840FDF74ABE10B503680446C4
:10641000ABB1586803F0BAF888B923685A7C12B94E
:10642000586803F0C3F82368586803F0C7F8206879
:106430000023236018B1BDE81040FFF7D5BF10BDA1
:10644000054A026000224260027380F84F24C0F8BF
:106450005824C0F86024704708EA0B0010B5074CB8
:10646000236843B940F26440FDF715FE034608B1C6
:10647000FFF7E6FF2360206810BD00BFE4E50320BE
:1064800038B50446406890B102232373FFF7BDFF7F
:10649000656855B12846FFF7B8FF286808B1FFF7CF
:1064A000A3FF04212846FDF7FAFD0023636038BDF1
:1064B00010B5054B03600446FFF7E2FF04F58A6060
:1064C000FDF77DFE204610BD08EA0B0010B504461E
:1064D000FFF7EEFF204640F26441FDF7E0FD204665
:1064E00010BDF0B5044689B000F10D0600F14E076D
:1064F000237B1BB9012003F0EDFCF9E7237B022B82
:1065000064D0A06803F092F8A06803F097F894F8BC
:106510004F348DF800303A463C23314606A803F04C
:10652000A5FF069D6B7833B9237B022B03D0012096
:1065300003F0D0FCF5E7D4F858341BB3002003F087
:106540003FFB20B16B7813B903F094FBFAE72B788B
:10655000D4F860240592591E4B424B418DF80B3004
:10656000D4F85834CDE903670BB906F049FD05AB03
:106570000093D4F85C5404AB03AA0DF10B0104F5AD
:106580008A60A847A06803F051F8237B022B17D03C
:10659000D4F858340025C4F8605443B104F58A6136
:1065A000032208469847C4F85854C4F85C540023A2
:1065B000A068237303F042F807A8FDF7DCFE97E715
:1065C000A06803F03BF807A8FDF7D5FE09B0F0BDC1
:1065D0000068FFF786BF00002DE9F74306468846AE
:1065E000142026491746994606F000FD044630B1AE
:1065F0000020C4E90000C4E9020020746074346023
:10660000002C31D01D49102006F0F0FC054668B181
:106610000023836001463846FDF74AFFBB68AA683D
:10662000BA60AB60EA68FB68EB60FA6027682560D7
:1066300037B13846FDF7C3FD10213846FDF72FFD71
:106640003068036883B10A9B4A46CDE9000341469E
:106650000B4B043002F092FF30B933681B7C4BB90E
:10666000012003F043F8F8E730680023336008B1F5
:10667000FFF7BAFE304603B0BDE8F08300F40B002C
:10668000A5630B0030B5436887B00446C3B9083032
:1066900002F0C4FF0B4B059304200B4B02940493B0
:1066A000FDF7F9FC054638B14FF440630093074904
:1066B000022302AAFFF790FF656002A8FDF77FFDA5
:1066C00007B030BDD1650B00D5630B00ECE90B00C2
:1066D0002DE9F043044685B080680C9F98460D462E
:1066E000164602F0A3FF63681BB1237B03F0FF098A
:1066F00033B1A06802F0A2FF002005B0BDE8F0832E
:10670000A06802F09BFF002D3DD04022294604F1F5
:106710000D0007F044FA84F84D908EB340F2014228
:10672000314604F14E0007F03AFA84F84E94002303
:106730000293BB6804F58A653BB10222394668467C
:106740009847FB680393BB68029329466846FDF7A8
:10675000AFFE029BD4F85824C4F85834039B02922D
:106760006846D4F85C24C4F85C340392FDF727FD36
:106770000D9BC4F86034012084F84F842073BCE77B
:1067800084F84E60D3E72846B7E7000010B5054B04
:106790000360037C04461BB9406808B103F022FB88
:1067A000204610BD18EA0B0010B50446FFF7EEFFB7
:1067B00020461421FDF773FC204610BD10B5074B91
:1067C0000360037C04461BB9406908B103F00AFB6F
:1067D0002046FFF7DBFF204610BD00BF28EA0B0074
:1067E00010B50446FFF7EAFF20462C21FDF757FCC1
:1067F000204610BD38B5037C04460D460BB1002081
:1068000038BD406838B103F0F5FA0028F7D0C4E984
:1068100001050120F4E7084603F0DCFAF5E770B55E
:10682000C3680E461546D1184268044672B18268A4
:106830008A420BD36068E3682A463146184407F061
:10684000EDF8E2682A44E260012070BD2046FFF7BF
:10685000D1FF0028EED1F8E743680021C16023B1E1
:10686000826812B1184607F001B9704710B5C0E947
:1068700001120022C260012202744361024A029B9B
:106880000260C36110BD00BF28EA0B00D0E9050318
:10689000984204D20378012B18BF002070470020D3
:1068A000704770B513689D68136803F11004146095
:1068B0008669B4420AD29B698C68A34201DAAB4272
:1068C000F2DDA342CCBF0020012000E0002070BD1B
:1068D00073B501F110030446164601930025019893
:1068E000A36983420BD982688B689A4207DAB54262
:1068F00006D001AA20460135FFF7D3FFEFE70020BD
:1069000002B070BD2DE9F341089D984601F11003D6
:1069100004461746019300260198A36983421AD9B9
:1069200082688B689A4216DAAE420BD1386001AAAF
:106930002046FFF7B6FF28B1019BC8F8003002B02F
:10694000BDE8F08101AA2046FFF7ABFF20460136E3
:10695000FFF7A7FFE0E70020F1E710B50446006865
:106960000B4628B105F03FFDE3680133E36010BD3D
:1069700060680028F8D0D4E90221013A8A4288BF31
:106980004354F1E703467F2B37B50846D9B204D804
:1069900003B0BDE83040FFF7E0BF01F03F01B3F5C1
:1069A000006FC3F3871541F0800407D245F0C001A2
:1069B0000190FFF7D2FF01982146E9E71B0B43F056
:1069C000E0010190FFF7C9FF05F03F01019841F098
:1069D0008001EEE72DE9FF4700244E68DFF8CCA0E8
:1069E00080460F461546A146B868B0425ADDD8F831
:1069F0000430995D9A19002C4BD0752905D86D2962
:106A000007D862291ED066291ED02846FFF7A5FFA9
:106A10003DE0A1F16E04072CF7D80FF2080C5CF8EA
:106A200024F000BF4D6A0B000B6A0B000B6A0B00D1
:106A30000B6A0B00516A0B000B6A0B00556A0B00C6
:106A4000596A0B000821E0E70C21DEE70A21DCE7A8
:106A50000D21DAE70921D8E7311D884217DD02A9A7
:106A600004333344084612F8014F01F8014B9A42AF
:106A7000F9D101AA51468DF80C9003F0CBF9012809
:106A800005D1BDF804002946FFF77CFF0536002438
:106A900004E05C2904D02846FFF75FFF0136A3E736
:106AA0000124FBE7012004B0BDE8F08719F20B00D8
:106AB0007FB50C4606460C491046154605F059FCB4
:106AC000D4E90131C91A0131284605F0C7FB00237A
:106AD0006A4621463046CDE9013300950393FFF71E
:106AE00079FF04B070BD00BF75F20B002DE9F043D3
:106AF00089B00546884604A812491646994605F00D
:106B0000DAFB002700974B4603AA41462846FFF7C9
:106B1000F9FE044670B1039904AA2846FFF7C8FF9E
:106B2000044608B90137EDE7314604A805F089FCB1
:106B30000028F7D004A805F073FB204609B0BDE893
:106B4000F08300BF75F20B002DE9F04F44684FF061
:106B5000010C4FF0FF36D0F800E0964580F0B98187
:106B600011F80E80B8F1000F00F0B381B8F13A0FC0
:106B700000F0988033D8B8F1220F00F0A68010D82A
:106B8000A8F109085FFA88F8B8F1170F0DD89F4DE2
:106B90000CFA08F818EA050F07D0056801350560FA
:106BA000D9E7B8F12C0F00F03381D0F800804245CE
:106BB0000ED911F808505DB13A2D00F269811F2DF0
:106BC00000F251810A2D00F26081082D40F25681B9
:106BD000002B40F0628108F1FF350560A5E0B8F1B7
:106BE0007B0F37D02ED8B8F15B0F33D0B8F15D0FE3
:106BF000DBD1002BD1D04FF002094568013D03EBFA
:106C00000518002D55DBD8F8047001374DD0D8F8A1
:106C100008A0BAF1FF3F48D198F800B0CB454BD15E
:106C20000EF1010EC0F808A0C8F808E003EB051E3D
:106C3000DEF80470013742D0DEF8087001373ED12B
:106C40008560AAE7B8F17D0FAFD1002BA5D04FF03A
:106C50000109D2E70134002B9FD04568099FAF425C
:106C60004AD905F1010EC0F804E003EB051ECEE998
:106C700001664FEA051A0025CEF80C5085686F1C96
:106C80001FBF03EB0519D9F80C500135C9F80C509A
:106C9000B8F17B0F0CBF0125022503F80A500568E7
:106CA000CEF804504568013DCAE7013DA8F110083F
:106CB000A7E701357FF471AF6FF001041EE0013DDD
:106CC0006F1CAEF1100EB3D167E70EF10109C0F8E9
:106CD0000090D0F80080424540F2938011F80850AF
:106CE000002D00F08E80222D30D1F3B14568099F30
:106CF000AF4206D8C0F800E04FF0FF342046BDE8B0
:106D0000F08F05F1010E4FEA051803EB0515C0F8E9
:106D100004E0C5E901660027EF60D0F800E04FF01D
:106D2000030A03F808A0C5E9019E85686F1C04F1F9
:106D300001043FF432AF002B3FF42FAF03EB051EED
:106D4000DEF80C500135CEF80C5026E75C2D11D141
:106D500008F10105AA420DD905604D5D752D2BD8AE
:106D60006D2D0BD8662D27D85B2D1DD8222D01D077
:106D70002F2D21D1056801350560AAE76E3D072D4D
:106D80001AD801A757F825F0756D0B00B96D0B00E7
:106D9000B96D0B00B96D0B00756D0B00B96D0B0073
:106DA000756D0B00BF6D0B005C3DEDB20CFA05F587
:106DB00040F241473D42DDD1C0F800E07CE708F1F8
:106DC000020505604FF0040AD0F80080424503D860
:106DD0000568013D0560CDE711F80850002DF7D09A
:106DE000A5F1300BBBF1090F04D925F02005413D79
:106DF000052DE1D808F10105BAF1010A0560E3D1DA
:106E0000E6E7C0F800E06FF0020477E713008000C7
:106E1000002B3FF4C2AE85686F1C3FF4BEAE2D015F
:106E20005D5D013D012D7FF6B8AE456805F1FF3887
:106E300003EB051EB8F1000FFFF6AFAE1EF8105CB5
:106E4000013D012D0AD85EF80C5C013506D05EF8D4
:106E5000085C013502D1C0F808809EE608F1FF38D1
:106E6000AEF1100EE6E7A5F12009244F5FFA89F98B
:106E70000CFA09F919EA070F7FF4AAAE203D5E2D3E
:106E80009AD808F1010505608FE60D2DF6D19FE631
:106E900005F0DF09B9F15D0FF8E74568099FAF42DA
:106EA0007FF628AF05F101084FEA051903EB051538
:106EB000C0F80480C5E901660027EF60D0F80080C3
:106EC0004FF0040A03F809A0C5E901E80568013D8F
:106ED00083E6002B3FF412AF4268511E03EB02130E
:106EE0000029FFF60BAF53F80C2C013203D053F8F6
:106EF000082C013287D00139103BF1E70110000462
:106F0000F7B5C268044612B9002003B0F0BD43696A
:106F100000F12006ABB10021C0E908114FF0FF31AC
:106F20008162C169009141683046FFF70DFE431C44
:106F300028D1257C002DE7D1606902F053FF6561FF
:106F4000E56100254FF0FF37C4E90855E268616844
:106F5000A76200952B463046FFF7F6FD0028D3DBED
:106F6000E06117D0000102F035FFE269606103467D
:106F70000092C4E90855E2686168A7623046FFF7ED
:106F8000E3FD01E00028BFDB636903EB0010A061B3
:106F90000120BAE76369A361FAE77047704710B54B
:106FA00008210446FDF77BF8204610BD10B51021DE
:106FB0000446FDF774F8204610BD000010B5054BDF
:106FC000044640F81C3B05F02BF9201D05F028F97C
:106FD000204610BD90EA0B0010B50446FFF7EEFF07
:106FE00020465821FDF75BF8204610BD10B5044B34
:106FF000044640F8043BFFF7E1FF204610BD00BF08
:1070000060EA0B0010B50446FFF7F0FF2046602150
:10701000FDF745F8204610BD20F00203012B03D0F8
:10702000431F5842584170471846704791F9043041
:10703000037191F90530437191F90630837191F92B
:107040000730C371704738B504460D46043004312B
:1070500005F06DF905F1140104F11400FFF7E6FFE6
:1070600005F11C0104F11C0005F061F905F12C018A
:1070700004F12C00FFF7DAFF95F9383084F8383046
:1070800095F9393084F8393095F93A3084F83A3046
:1070900095F93B3084F83B3005F13C0104F13C00AC
:1070A000FFF7C4FF95F9483084F8483095F9493026
:1070B00084F8493095F94A3084F84A3095F94B30D4
:1070C00084F84B3005F14C0104F14C00FFF7AEFFA2
:1070D00095F8543084F8543038BD0B6803604B6821
:1070E000436013B15A6801325A607047024A026025
:1070F0004A684260704700BF70EA0B00024A0260B3
:1071000000224260704700BF70EA0B0030B50023D8
:1071100087B0838083710D4605AB00931349044605
:1071200004AB03AA284602F075FE032807D1039B8F
:107130002371049B6371059BA37107B030BD0C499B
:1071400004AB03AA284602F065FE022804D1039B83
:107150002371049B6371F0E7064903AA284602F0F5
:1071600059FE012804BF039B2371E6E730EA0B00B8
:1071700033EA0B00A7EF0B0090F9042090F90530DB
:1071800090F90610002AB8BF0848C3EB03134FEA72
:107190008303BDBF00FB0230401840424FF46160E2
:1071A000A4BF00FB02304018704700BFF0F1FFFFA2
:1071B00090F9073043B990F904308B6090F90530AD
:1071C0004B6090F906300B60704790F9073030B58E
:1071D000B3B990F904508C682C44D1E900328C602A
:1071E00090F90540002DB5BF121B12194A604A6084
:1071F000B5BF90F9062090F906209B1A9B180B60EA
:1072000030BD000008B5054A026000220346426016
:107210000830FFF773FF184608BD00BF80EA0B0077
:1072200000234360838183737047000030B50446B8
:1072300087B00D4611B10B784D2B05D0204607B015
:10724000BDE83040FFF7ECBF05AB0093114904AB3C
:1072500003AA284602F0DEFD032816D1039B237102
:10726000049B6371059BA3712F21284606F034FC13
:1072700040B1411C04F10800FFF748FF0123E3710E
:1072800007B030BDA081A073F8E72046FFF7C8FF24
:10729000F6E700BF4BEA0B00104B114910B504464E
:1072A00040F8043B05F007F804F11400FFF726FF4F
:1072B0000B4904F11C0004F0FEFF04F12C00FFF761
:1072C0001DFF04F13400FFF79DFF04F14400FFF7B8
:1072D00099FF002384F85430204610BD90EA0B003B
:1072E00075F20B002DE9F74F0446084606F01EFC28
:1072F00000250646019004F134083F49019801AA8F
:1073000006F09CFC0146002862D0012D05F1010326
:1073100053D0022D56D0002D46D1024692F800904F
:10732000B9F1400F1546174602F10102F6D80022C6
:107330002A7004F11C0005F01CF8012285F8009069
:1073400084F854202A786AB397F800A00AF1FF3233
:107350003F2AB946BB4607F10107F5D9002304F1DE
:107360002C0789F8003029463846FFF7CFFE89F808
:1073700000A0BAF1000F15D05D461BF801ABBAF1C1
:10738000400FF9D800222A704946201D04F0F1FF71
:1073900085F800A004F11400BAF1000F06D02946C8
:1073A000FFF7B4FE0125A8E71D46A6E73946FFF71B
:1073B0003DFE237E013B2376F4E74046FFF736FF90
:1073C00002259AE704F14400FFF730FF032594E714
:1073D00094F93B3043B194F94B202AB904F13400BD
:1073E000FFF71EFF84F85420304602F0FBFC94F8AF
:1073F000540003B0BDE8F08F55EA0B0038B5134BCD
:1074000004460D4640F8043B114904F054FF04F1D2
:107410001400FFF773FE0E4904F11C0004F04BFF4B
:1074200004F12C00FFF76AFE04F13400FFF7EAFED6
:1074300004F14400FFF7E6FE002384F854302946A7
:107440002046FFF74FFF204638BD00BF90EA0B00F3
:1074500075F20B0038B5094D2B6863B96020FCF755
:107460001AFE044630B1064B40F8043BFFF714FF08
:107470006423E3652C60286838BD00BFE8E503207D
:1074800060EA0B0002F01EBD01390B2915D8DFE8B8
:1074900001F01608160616061616061606161E2003
:1074A000704783070DD1642390FBF3F203FB1200B6
:1074B00000280CBF1C201D207047002070471F2093
:1074C00070471C207047F8B50123CB6090F9043059
:1074D000013B0B610023C1E9003306460C46174609
:1074E0008B602046FFF7CEFF96F90630A2699A42DC
:1074F00003D0E3680133E360F3E796F90550012D0B
:1075000013D0E3686069013DC5EBC5051D44E56026
:1075100096F9041000F26C70FFF7B6FF8542C4BF05
:10752000073DE5602046FFF7ADFF214606F1080064
:10753000FFF73EFE3846FFF748FE2046BDE8F8401C
:1075400002F0C0BCF0B590F8583085B004462BB9B5
:10755000FFF780FF011D201DFFF775FD94F93F30F7
:10756000002B65D0D4E9182304F19807394602A806
:107570003E46CDE9022302F095FC0FCE04F1C8058A
:107580000FC50FCE0FC533682B6004F1300102A880
:10759000FFF7ACFD02AA394604F13800FFF793FF6C
:1075A000C4E9240104F1180102A8FFF79FFD02AA13
:1075B00004F1C80104F14800FFF785FFD4E9246510
:1075C000864275EB0103C4E93001D4E9182323DABC
:1075D000B24273EB050519DA002323602068FFF738
:1075E0001BFD04F16801D4E91856019110BB04F1A8
:1075F0003000FFF7C1FD2D1A66EBE070CDE90250B7
:10760000019902A802F04EFC05B0F0BD82428B4108
:10761000B4BF01230223E0E7824273EB010101DAE8
:107620000323DAE7B242AB41B4BF04230523D4E716
:107630000623D2E704F11800DBE737B58D6804466E
:107640006846FFF74AFD6A462946204603F0EEFAEF
:1076500001A8FCF790FE204603B030BD37B5CD68D9
:1076600004466846FFF739FD6A462946204603F07E
:10767000B9FA01A8FCF77FFE204603B030BD37B54C
:107680000D6904466846FFF728FD6A4629462046EC
:1076900003F051FA01A8FCF76EFE204603B030BD9E
:1076A00003680A7883F8B120012183F8B01070478D
:1076B00010B442680346541001EB6200D20748BF81
:1076C0000A591B685DF8044B48BFD3581847012A74
:1076D00002D1016000207047022A04BFD1E90023D3
:1076E000C0E90023F6E7012A02D1016000207047BB
:1076F000022A04BF0B680360F8E710B504468AB09D
:1077000008464FF0200C0021CDE90023CDE902C14D
:107710000B4602AA216802F0F9F90AB010BD0EB4B6
:1077200003B503AB012153F8042B0193FFF7E5FFE9
:1077300002B05DF804EB03B070470EB403B503ABC1
:10774000322153F8042B0193FFF7D7FF02B05DF805
:1077500004EB03B07047406F01F088BFD0F8C83029
:1077600001461BB1D0F8CC30C0301847704700003C
:10777000F8B5124D0846002A18BF15460E461F469A
:1077800006F0F1F9402816D8284606F0ECF9B0F5D5
:10779000806F10D84330FCF780FC044648B1314676
:1077A00000F8017B06F0B9F9294604F1420006F021
:1077B000B4F92046F8BD0024FBE700BF75F20B00CA
:1077C000F0B59FB00A4600230E46011D08A800F040
:1077D00041FE0898002106F0DBFA054608A804F0EF
:1077E0001FFD002D60D008A9284606F0BFFA0C9BAB
:1077F0002E492F483246FFF792FF002211462846B5
:1078000006F0BCFA082206A9284606F0D5FA0C9F15
:107810004A2F39DD274B069A9A4235D1264B079AD3
:107820009A4231D1A7F1080210460592FCF735FCC7
:107830000446C0B127440146059A284606F0BCFA22
:1078400017F8093CABB9631C1846059306F08BF991
:107850003F28059B0DD804F14202009217491448B5
:107860003246FFF75CFF284606F078FA20461FB044
:10787000F0BD13490E483246FFF751FF4321204621
:10788000FCF70DFC0024EEE7BDF81E3002939DF8D6
:107890001D3001939DF81C3000930A49069B044853
:1078A0003246FFF73CFFEDE72C46DFE798EA0B0096
:1078B000ECE503206376B63101084100ACEA0B0029
:1078C000CEEA0B00FCEA0B002DE9F8438046284B7A
:1078D00048F8043B0446404600F0D4FC02226423EE
:1078E0000025C4E91B230823E367C4E92055C4E944
:1078F0002255C4E92455C4E92655A5672020FCF784
:10790000CAFBE66FA067013E760800EB86090746D2
:107910004FF40070FCF7BFFB00F50073C4E92503CA
:10792000C4F888304FF4FA614FF47A73C4E92D1328
:1079300047F2305347F82600C4F88400C4F88000AA
:10794000C4F89000C4E92855C4E92A550949C4F887
:107950008C90C4F89C90C4F8B050C4F8BC30C4F803
:10796000C850404600F0D4FC2046BDE8F88300BF74
:1079700018ED0B0041EB0B0038B5064D2B683BB9F9
:10798000D020FCF788FB044608B1FFF79DFF2C6070
:10799000286838BDF0E503204269436A9B1A9B10B2
:1079A0005A1ED0E906315B1A9B1003EBC213026921
:1079B0008068101A03EBA000704738B50546FFF742
:1079C000CAFE05F17800FFF7E7FF044650B9281D0D
:1079D00000F094FFD5F8A03004461BB1D5F8A430D0
:1079E00003B90134686F01F049FE204638BD10B577
:1079F00002698368043A9342044602D00433A360C8
:107A000010BDC0684FF40071FCF749FB63691A1D93
:107A100062615B68E36003F500722261EFE70000DA
:107A20002DE9F04F85B00446FFF795FEDFF8A490EE
:107A3000DFF8A4A0DFF8A4B0D4F88030D4F8902008
:107A4000934205D1606F05B0BDE8F04F01F016BE5E
:107A500004F1780004F104081F68FFF7C8FF4046EE
:107A600000F0F0FE0023024641460646684600F05C
:107A7000F1FC009840F2022106F08AF905466846BA
:107A800004F0CEFBC5B1082269462846CDE9009A2C
:107A900006F0A4F907F1420006F065F8394600F156
:107AA0004302284606F09AF9284606F057F9084896
:107AB00032465946FFF733FE3146404600F004FF98
:107AC000002FB9D043213846FCF7E9FAB2E700BFEE
:107AD000ECE503206376B631010841004FEB0B0063
:107AE0002DE9F0410446FFF736FE04F17800FFF778
:107AF00053FFE36E984202D92046FFF791FFDFF86B
:107B000044800F4F261D304600F0F8FE236F984248
:107B100004DC606FBDE8F04101F0B0BD01213046EA
:107B200000F09CFE05460028EDD0014600223046BC
:107B300000F0CCFC2A4641463846FCF789FBE2E7D8
:107B4000ECE503206CEB0B0008B5A0F500630B43DC
:107B500005D0403850EA01030BD1092A09D1054963
:107B60000548FFF7DCFDFFF707FFBDE80840FFF71A
:107B700057BF08BD7FEB0B00ECE5032070B5036831
:107B8000044683B1436A45691E1DAE4206D955F8C5
:107B9000040B4FF40071FCF782FAF6E76168206885
:107BA0008900FCF77CFA204670BD00001FB5D1E9C2
:107BB00000230021044602910AB9D90705D5CDE971
:107BC00000230A4B03930A4B029321466846FCF7B5
:107BD0006FFC029BA268A360039B02926846E26866
:107BE000E3600392FCF7EBFA04B010BDB1760B0032
:107BF000CF760B0070B586B0044602F04BF848B95A
:107C0000484B02A9CDE9023004F1C000FFF7CEFFD6
:107C100006B070BD94F8B2501DB1012384F8B330A2
:107C2000F6E701F073FDD4F8A830C01AD4F8AC30F0
:107C3000984208D22046FFF7C0FEB0FA80F0400913
:107C400084F8B300E4E7261D2946304600F006FE1E
:107C50000146C4F8A400002852D02046FFF7B0FD2A
:107C60000546C4F8A000002835D001F04FFD02AE53
:107C700000252D4BC4F8A800314604F1C000029342
:107C80000395FFF793FFD4E9283003F142020092F5
:107C90002649274AA4F8B050A84208BF0A46013333
:107CA0002449254884F8B350FFF739FDFEF7D6FB89
:107CB000D4F8A020214B0593CDE900651146204B57
:107CC0000294049311F8013B4232FEF701FD304665
:107CD000FCF775FA9CE7D4F8A4201A491648FCF77B
:107CE000B7FA0121304600F0B9FDD4F8A4102A46B5
:107CF000304600F0EBFBD4F8A030002BB5D18CE778
:107D0000D4F88030D4F890209A4207D01B68C4F889
:107D1000A03004F17800FFF76AFEECE7C4F8A00099
:107D20007BE700BF497D0B00C1800B00AEEB0B0071
:107D300014EE0B00CFEB0B00ECE50320A1760B005B
:107D4000E7760B00B2EB0B0013B590F8B2300446A7
:107D500023B9FFF732FEB0FA80F35B0984F8B33041
:107D600001F098FF80B101F0D1FCD4F8B430C4F830
:107D7000AC30064BC4F8A80000936946002304F118
:107D8000C0000193FFF712FF02B010BDF57B0B009E
:107D900070B5054698B0002001F022FF012805D0FB
:107DA0003E493F48FFF7C9FC18B070BD05F17400AB
:107DB00001F04CFC3B4B04933B4B079304A93B4B1A
:107DC000069308A8FCF7A4FA08A90CA8FCF7A0FAE7
:107DD0000CA910A8FCF79CFA002610201696FCF7B8
:107DE0005AF9044660B18660014610A8FCF760FBB2
:107DF000129BA2681292A360E268139BE360139245
:107E00002B4B17932B4B16932B4B149400261020BF
:107E1000CDE901360396FCF73EF90446D8B1169B2E
:107E2000866033B1022214A99847179BE360169B22
:107E3000A360224B0393224A029401AB4FF40460E7
:107E4000002101F0ADFE30B12046FCF7B8F9102159
:107E50002046FCF724F914A8FCF7B1F910A8FCF7A8
:107E6000AEF90CA8FCF7ABF908A8FCF7A8F904A830
:107E7000FCF7A5F9FEF7F2FAFEF704FC281D00F066
:107E800069FC2846FFF72CFE0E4B149314A900231F
:107E900005F1C0001593FFF789FE85E7EEEB0B00B7
:107EA000ECE50320497B0B009D410B0089410B0051
:107EB00063410B002F430B0002000C00D1410B006B
:107EC00001410B00497D0B002DE9F047064689462C
:107ED000406A71697368471A09EBA7050135B3EB6E
:107EE000450F144627D95D1B6D083268AD000CB1F3
:107EF0004FEA89042C441444031DA142A3EB010260
:107F000013D9994202D0204605F096FD746123688A
:107F1000F36003F500733361E3197362E359F361AE
:107F200003F500733362BDE8F0879942EED0381D47
:107F3000801A2044E8E703F102084B452CBF98441F
:107F4000C844B8F1005F01D305F054F84FEA880047
:107F5000FCF7A1F8A8EB05056D088246AD000CB151
:107F60004FEA8904726A716904322C449142544484
:107F700003D0521A204605F05FFD71683068890011
:107F8000FCF78DF8C6E900A8C0E70000F0B585B0A1
:107F900004469DF828509DF82C302B430F4616467A
:107FA000FFF7E6FB054600283CD03F4B3F494048E1
:107FB000002E18BF33463A46FFF7B1FB2046FFF7C5
:107FC000CAFBD4F89820D4F89030043A934204F1D4
:107FD000780629D003B11D60D4F890300433251DF4
:107FE000C4F89030284600F089FC03903046FFF733
:107FF000D3FC029001F04EFEDDE9023200902D49E3
:108000002B48FFF78CFB284600F078FC00283BD07B
:108010002046FFF705FD2046FFF762FD606F01F087
:108020002DFB012005B0F0BD3046FFF7B5FC6FF029
:108030006043984202D1204804F0DFFFD4F89C301E
:10804000A26F9A1AE36FA3EBA203012B04D80022BC
:1080500001213046FFF738FF4FF40070D4F89C70D0
:10806000FCF719F87860D4F8903003B11D60D4F8AB
:108070009C301A1DC4F89C205B68C4F8943003F54A
:108080000072C4F89820AAE73046FFF785FCE36E3B
:108090009842BDD801F0FEFD0028B9D00749044838
:1080A000FFF73DFBB7E700BF75F20B0011EC0B00CB
:1080B000ECE5032069EC0B0039EC0B0095EC0B00B0
:1080C00073B590F8B0300446002B41D090F8B13031
:1080D000D0F8A420002B3DD050495148FFF71FFB9A
:1080E000D4F8A430D3B1261D0021304600F0B6FBF1
:1080F000D4F8A430984205460DD10121304600F055
:10810000ADFB00222946304600F0E0F945494448DD
:108110002A46FFF704FB0023C4F8A430D4F8A000DB
:1081200010B14321FBF7BBFF0023C4F8A030D4F803
:10813000B830C4F8AC303C4B00936946002304F1DE
:10814000C0000193FFF732FD01F0E0FAC4F8A80087
:1081500002B070BD35493248FFF7E1FAD4F8BC30BF
:10816000C4F8AC30D4F8A4304BB1D4F8A00010B1AE
:108170004321FBF794FF0023C4F8A030DBE720463F
:10818000FFF7E9FAD4E92032934213D0D4F8A020C3
:1081900043F8042CD4F88030043BC4F88030606F7E
:1081A00001F06CFA22491E48FFF7B9FA2046FFF7A2
:1081B00037FCC0E704F178052846FFF7EDFB6FF0C8
:1081C0006043984202D11B4804F017FFD4F88C207A
:1081D000A36F9A4204D1012211462846FFF774FE8C
:1081E0004FF40070D4F88C50FBF755FF45F8040CA1
:1081F000D4F88C301A1FC4F88C2053F8043CC4F80F
:10820000843003F50072C4F8882003F5FE72C4F8C8
:108210008020D4F8A020C3F8FC21C0E7A8EC0B0014
:10822000ECE50320BBEC0B00F57B0B00CBEC0B006B
:10823000DDEC0B0039EC0B00014B024A1A60704771
:10824000ECE5032004ED0B0010B5074B044640F8A5
:10825000C03BFBF7B4FF04F17800FFF78FFC201D53
:1082600000F0B8F9204610BD18ED0B0010B504461B
:10827000FFF7EAFF2046D021FBF711FF204610BD93
:1082800001207047F8B51F4D1F4B0446294640F8A2
:10829000043B04F010F81D4904F1140004F00BF83D
:1082A000294604F1240004F006F80023C4E90E3343
:1082B000C4E91233C4E91433C4E91633C4E91833EA
:1082C00084F834302364082363642020FBF7E3FE42
:1082D000656C2064013D6D0800EB850706464FF490
:1082E0000070FBF7D8FE00F50073C4E9170346F8E9
:1082F0002500E064A064A065676523656766204685
:10830000F8BD00BF75F20B0024EE0B0024ED0B004E
:108310007FB5051D0446284604F02BF80E49684633
:1083200003F0C9FF6946284604F09DF806466846F2
:1083300003F076FF6EB1E3680022013B29466846F0
:1083400004F0BEF86946284604F00BF8684603F0CE
:1083500067FF204604B070BD29ED0B0010B5C36B5C
:10836000044613B93C3001F059F9E06BBDE8104008
:1083700001F05CB9C06B01F061B9000010B596B0B6
:108380006946044601F0EAFAD0B9019B5B04224633
:1083900006D515491548FBF75BFF012016B010BD47
:1083A00012481349FFF7C9F9204605F00FFD40F2C6
:1083B000FF11204601F0DAFA80B90E492246E9E7BA
:1083C00001F050FD0368022BF1D001F04BFD0A498A
:1083D00002680648FFF7B1F90020DFE701F042FD2F
:1083E00006490268F5E700BF36ED0B00F4E503200F
:1083F00053ED0B0084ED0B0070ED0B0093ED0B00C3
:1084000038B51546044603F056FF4DB12B783BB105
:108410000449204603F0D6FF2946204603F0D2FF48
:10842000204638BD74F30B007FB505460E461C464A
:108430004969684604F064F8009904B9746A2246F0
:108440002846FFF7DDFF684603F0EAFE284604B041
:1084500070BD000070B50C468EB01A49CDE90032EF
:10846000054603F028FFE068E1690144043128462D
:1084700003F0F4FE211D06A803F068FF124902A8CC
:1084800003F019FF02A906A803F0BAFFDDE90032E4
:10849000064621460AA8FFF7C7FF0AA9304603F09F
:1084A000AFFF0146284603F042FF0AA803F0B8FEDA
:1084B00002A803F0B5FE06A803F0B2FE28460EB0EF
:1084C00070BD00BF75F20B0029ED0B002DE9F047E0
:1084D00013468EB005460F46002A4AD0406801F088
:1084E00055FA0646002854D0DFF8B4A0DFF8AC9067
:1084F000DFF8A480304601F051FA002833D0827AA8
:10850000082AF7D100F10B04696901AA204601F09D
:1085100081FC0128EED1019BBB42EBD1291D0AA8A9
:1085200003F014FF514606A803F0C5FE06A90AA8E9
:1085300003F066FF214603F06FFF014602A803F037
:1085400005FF06A803F06CFE0AA803F069FE029876
:1085500005F03CFC4046029A4946FFF7E0F802A8C5
:1085600003F05EFEC6E730460EB0BDE8F04701F00E
:108570001DBA0A4601460AA8FFF76CFF0A9805F0E3
:1085800025FC05480A9A0549FFF7C9F80AA803F02F
:1085900047FE0EB0BDE8F087F4E503202BED0B009D
:1085A00029ED0B0070B50368044683B1436A456941
:1085B0001E1DAE4206D955F8040B4FF40071FBF7AF
:1085C0006EFDF6E7616820688900FBF768FD2046CC
:1085D00070BD000010B5094B044640F8403BFFF762
:1085E000E1FF04F1240003F01BFE04F1140003F08A
:1085F00017FE201D03F014FE204610BD24EE0B00D4
:1086000010B50446FFF7E6FF20466821FBF747FD5B
:10861000204610BDC368CA689B1A9B105A1ED0E939
:1086200000301B1A9B1003EBC21388680A68801A7B
:1086300003EBA000704700002DE9F047026A836950
:10864000043A934204460F4607D00BB10A681A60F9
:10865000A3690433A361BDE8F08700F10801183075
:10866000FFF7D8FF6FF06043984202D1384804F01A
:10867000C4FC626A20686368111AA3EBA101012996
:1086800025D86169A2EB01084FEAA806B51CB3EB37
:10869000450F36D95D1B6D0800EB8505131DA942FA
:1086A000A3EB010226D98B4202D0284605F0C4F97B
:1086B00065612B68E36003F50073236105EB080334
:1086C000636255F80830E36103F5007323624FF4E9
:1086D0000070656AFBF7DFFC6860A3690BB13A685C
:1086E0001A60636A1A1D62625B68E36103F50072D7
:1086F0002262AFE78B42DBD008F10400801A2844E5
:10870000D4E703F10209012B2CBF994409F10109B7
:10871000B9F1005F01D304F06DFC4FEA8900FBF76B
:10872000BAFC626A6169A9EB050504326D089142E1
:10873000824600EB850503D0521A284605F07CF9E5
:10874000616820688900FBF7AAFCC4E900A9AFE7CB
:1087500039EC0B002DE9F047C368012B86B00446C5
:1087600008D834493448FEF7E8FF0026304606B002
:10877000BDE8F0874068FFF701FE06460028F4D008
:10878000636962682D492C48FEF7C9FF606801F0F3
:10879000FDF807460028E8D00023DFF8A490DFF8B2
:1087A0009880A363384601F0F9F80546002839D0CF
:1087B000837A082BF6D10B35616901AA284601F0AE
:1087C00029FB0128EED1E36A7BB1294602A803F018
:1087D00072FD04F1240102A803F045FE824602A8BE
:1087E00003F01EFDBAF1000FDCD0236829469B6818
:1087F000204698470028D5D0019AA36B9342B8BF72
:10880000A2632B4649464046FEF789FF2046FFF704
:10881000A5FD04F1400001A9FFF70EFF2046FFF778
:10882000A9FDBFE7384601F0C1F8012384F83430D0
:108830009CE700BFA9ED0B00F4E50320BEED0B00A3
:10884000DAED0B0010B590F8343004460BB9FFF7A1
:1088500081FFA06B0130A06310BD000070B590F8DF
:10886000343004460E460BB9FFF774FF2046FFF77D
:1088700075FDA36CA26D9A4220D0D4E913021D6845
:1088800026B1043A93420CD00433A3642046FFF788
:1088900071FD25B10A490B482A46FEF740FF2846DC
:1088A00070BD4FF40071FBF7FAFB636D1A1D626532
:1088B0005B68E36403F500722265E6E70025E5E7FF
:1088C000F0ED0B00F4E5032013B590F8343001917E
:1088D00004460BB9FFF73EFF019BA26B9A42B8BF5B
:1088E000A3632046FFF73AFD01A904F14000FFF71A
:1088F000A3FE2046FFF73EFD02B010BD38B504468A
:10890000FFF72CFD04F1480104F15800FFF782FE47
:1089100005462046FFF72EFD284638BD014B024A8A
:108920001A607047F4E503200DEE0B0003685B68E6
:10893000184710B58369044633B131B12368204626
:108940009B6898470023A36110BD00F0DFFEA36978
:10895000C01AE3699842F1D2F6E710B5C36904463C
:108960001BB100F0D3FEA06110BD0368BDE810404C
:108970009B68184700F082BE07B5134639B1002244
:10898000CDE900220A4601681E2001F0CFF803B0AD
:108990005DF804FB10B504460430FCF7AAFA23681E
:1089A000E1685B692046984718B9236820469B69AF
:1089B00098476068FFF7DEFF012010BD38B5044618
:1089C0000430FCF796FA606AA16A036800229B688B
:1089D0009847606A0368D4E902129B699847236844
:1089E00001465B69204698470546606A0368DB6874
:1089F00098471DB9236820469B6998476068FFF730
:108A0000B9FF012038BD0000F0B521F00304184F74
:108A1000184E194D0444A0420CD050F8043B7B433F
:108A20004FEA734373435A404FEAF24202EB820229
:108A30002A44F0E701F0030404440023A04204D0D8
:108A400014F8015D45EA0323F8E709484343094860
:108A50004FEA73434A4058435040084B80EA104065
:108A60005843074B80EA5030584380EA1040F0BD2D
:108A7000512D9ECC9335871B646B54E66BCAEB85F6
:108A800035AEB2C2F8B504460430FCF732FAA3683A
:108A900000229F689A60A668054AF1883046FFF771
:108AA000B3FFB76005466068FFF764FF2846F8BD6E
:108AB0003F2A1C8570B504468568FFF7E3FFA86070
:108AC000236820461B69BDE8704018472DE9F04136
:108AD0000446043090460D461F46FCF70AFAE26849
:108AE000C8F101031344AB4219D3384605F03BF8F3
:108AF000404514D2A66835442946384605F003F8A7
:108B000058B142460021284604F0B0FF39462846B5
:108B100005F003F82046FFF7CDFF012500E0002512
:108B20006068FFF727FF2846BDE8F08173B590F82D
:108B3000203004460D46ABB1B1F5805F17D22C4E04
:108B40000A4630462B49FBF783FBA1682A4630468C
:108B5000FFF712FF00230093274A316801231E20EC
:108B600000F0DCFF0B2D02D855BB002026E0A368E7
:108B700022691968914223D19988A28A91421FD112
:108B8000DA88ABB29A421BD82046FFF77BFFA36876
:108B90009A688242064614D1E268AA4205D90021A9
:108BA0005955E2680135AA42FAD8D4E90232204682
:108BB000DA80A568FFF766FFA860012002B070BDEB
:108BC0000026A1680A68002ACFD088688B880190A7
:108BD000C988009106480949FEF7A1FDCDE9005674
:108BE000A38A226906490248FEF799FDBDE700BF46
:108BF00048E6032030EE0B0074F20B0048EE0B0049
:108C000079EE0B0038B50446C2688068002104F094
:108C10002DFFA36822691A60A368A28A9A80D4E90A
:108C200002322046DA80A568FFF72CFFA86038BD25
:108C300037B504468568FFF725FFA86094F8203013
:108C40009BB1A3680A4DDA880A492846FBF700FB66
:108C5000A1682846CA88FFF78FFE00230093064AC2
:108C6000296801231E2000F059FF03B030BD00BF6A
:108C700048E60320AAEE0B0074F20B0010B5044680
:108C80000430FCF736F9606AA16A036840F20262B8
:108C90009B689847606A0368D4E90212DB699847C9
:108CA000606A0368DB6898476068FFF763FE2046E8
:108CB000BDE81040FFF7BCBF704710B52021044647
:108CC000FBF7EDF9204610BD10B50272FF2242817C
:108CD0000022C0E9032242610276C261024A034CCB
:108CE0001060C0E9004110BDFCE50320FCF00B0062
:108CF0002DE9F8439DF820800446894616461F4614
:108D0000B8F1000F02D0406801F0F3FD217A6068ED
:108D100001F0CFFD6068036849469B68984760682A
:108D2000002101F0E2FD054600BB0123217A6068C5
:108D30003A4601F0ACFD8742034609D13744BE42B2
:108D40001CD0606803685B69984706F8010BF6E77A
:108D50000B490C484A46FEF7F0FCB8F1000F02D070
:108D6000606801F0CFFD2846BDE8F8830346064958
:108D700004484A46FEF7E1FC0025EEE70125ECE752
:108D800010EF0B00F8E5032035EF0B0007B500935B
:108D90000123FFF7ADFF03B05DF804FB73B5438912
:108DA000FF2B044610D0194E194D00F0AFFCB0F562
:108DB0007A7F09D2608904F031F8012804D0314665
:108DC0002846FBF745FAF0E701230DF107022821B9
:108DD0002046FFF7DBFF30B90D480E49FBF738FAA4
:108DE000002002B070BD9DF80730182BF4D101238C
:108DF0000DF1070229212046FFF7C8FF0028EBD01C
:108E00009DF80730052BE7D1EBE700BF59EF0B00CA
:108E1000F8E503206EEF0B002DE9F0419DF8188076
:108E200004460F4615461E46B8F1000F02D04068B2
:108E300001F05FFD217A606801F03BFD6068036826
:108E400039469B6898472E44B542606805D0036850
:108E500015F8011B9B689847F6E7012101F045FDD5
:108E6000034670B1084909483A46FEF766FC0025FA
:108E7000B8F1000F02D0606801F044FD2846BDE85B
:108E8000F0810125F4E700BF7BEF0B00F8E503203C
:108E90001FB58DF80F2000930DF10F020123FFF78E
:108EA000BBFF05B05DF804FBF8B50A460C46054665
:108EB0001A491B48FBF7CCF9002CB8BFEC687CB909
:108EC000012322461B212846FFF7E2FF15490246EF
:108ED00006461348FEF723FCEC606C613046F8BD93
:108EE000032C19DDA7101F2FA8BF1F27BA0062F09F
:108EF0007C020123D2B21B212846FFF7C9FF3A4664
:108F00000346094906460648FEF709FC4FF4FA6392
:108F10005F43EC606F61E1E70127E7E7A0EF0B003B
:108F2000F8E50320AAEF0B00C6EF0B00064B1A680A
:108F30004AB1A0F500630B4305D1D3681BB10021F2
:108F40001046FFF7B1BF7047FCE503202DE9FF4154
:108F50009DF82880054616461F46B8F1000F04D03C
:108F60004068019101F0C5FC0199019100230DF1C8
:108F70000F022846FFF70AFF044660B19DF80F3044
:108F800003EA06023A43934205D00199002328469A
:108F9000FFF77EFF0446B8F1000F02D0686801F0C9
:108FA000B1FC204604B0BDE8F08113B514460DF1C4
:108FB0000702FFF7EBFE28B19DF807301C420CBFFB
:108FC0000120002002B010BD13B514460DF10702B8
:108FD000FFF7DCFE28B19DF807301C4214BF0120CA
:108FE000002002B010BD07B5D2430093D2B20023D7
:108FF000FFF7ACFF03B05DF804FB000037B50123B9
:109000000DF107020F210446FFF7C0FE054638B9EF
:109010001E491F48AD22FEF790FB284603B030BD25
:109020009DF8073013F0200F4FF001030BD02022E2
:10903000E3610F212046FFF7D6FF164A1649144870
:10904000FBF706F9E9E7082217212046FFF7BCFFE6
:1090500018B10223114AE361F0E79DF807301A07BF
:1090600009D50323E361082201230F212046FFF7DE
:10907000BAFF0B4AE2E75B07CFD50422E261012386
:109080000F212046FFF7AFFF064AD7E719F00B0084
:10909000F8E50320EAEF0B0038F00B00F3EF0B00CC
:1090A00003F00B0013F00B0007B500931346FF22EB
:1090B000FFF74CFF03B05DF804FB2DE9F3479DF883
:1090C00028A005460C4691461F46BAF1000F02D073
:1090D000406801F00EFC07B3202F3E4628BF202633
:1090E0007F2C26D83319802B01D9C4F180060123A7
:1090F00004223F212846FFF776FF002364F07F011A
:1091000000934A463346C9B22846FFF7F1FD804630
:1091100028B13444BF1BB144DDE74FF00108BAF178
:10912000000F02D0686801F0EDFB404602B0BDE8D8
:10913000F087012304223F212846FFF7B5FFDCE733
:109140002DE9F3479DF828A005460C4691461F4699
:10915000BAF1000F02D0406801F0CBFB07B31F2F1C
:109160003E4628BF1F267F2C26D83319802B01D9D5
:10917000C4F18006012304223F212846FFF733FF74
:10918000002364F07F0100934A463346C9B2284663
:10919000FFF742FE804628B13444BF1BB144DDE7EF
:1091A0004FF00108BAF1000F02D0686801F0AAFB85
:1091B000404602B0BDE8F087012304223F21284643
:1091C000FFF772FFDCE7000030B585B00D68D1E92C
:1091D000043203954D6802958D680195C968009128
:1091E0000133044902F26C72044603F089F9204607
:1091F00005B030BD49F00B0003090A2200F00F0052
:1092000002FB0300704738B5044600781546FFF7A7
:10921000F3FF08606078FFF7EFFF4860A078FFF782
:10922000EBFF8860E078FFF7E7FFC8602079FFF781
:10923000E3FF013808612DB9651D2878FFF7DCFFD1
:10924000886138BD6079FFF7D7FF6430A51D48619C
:10925000F3E7000070B5012388B00D461A461021CF
:109260000446FFF7A2FEF0B108230126204600962F
:109270000DEB03020021FFF73BFD044698B1324697
:1092800029460DF10900FFF7BEFF04A8FFF79CFF78
:109290000848049A0849FAF7DBFF04A802F0C0FF67
:1092A000204608B070BD24220021284604F0DEFBD1
:1092B0000024F5E7F8E5032067F00B0030B58BB02C
:1092C0000D4601A9FFF7C6FF044620B101A800F032
:1092D000F9FDC5E9000120460BB030BD0A2390FB23
:1092E000F3F103FB110091FBF3F203FB121240EACE
:1092F0000210C0B2704770B5054600680C461646AD
:10930000FFF7ECFF20706868FFF7E8FF6070A8685F
:10931000FFF7E4FFA070E868FFF7E0FFE07028695E
:109320000130FFF7DBFF20712EB9661DA869FFF73A
:10933000D5FF307070BD6A69642392FBF3F003FBC4
:109340001020FFF7CBFFA61D6071EFE7F0B587B0E7
:10935000054602A816460C46FFF736FF1E48029A3D
:109360001E49FAF775FF02A802F05AFF16B16868A5
:1093700001F0BFFA204601220DF1090100278DF806
:109380000870FFF7B8FF01231A4610212846FFF79F
:109390008BFE0446E8B1082300970DEB0302394623
:1093A0002846FFF739FD044660B101231A46102113
:1093B0002846FFF718FE16B1686801F0A3FA2046A8
:1093C00007B0F0BD4FF48D7205490348FEF7B5F9BB
:1093D000F1E74FF48F72F7E7F8E5032075F00B0023
:1093E00083F00B0013B504466846CDE9002304F072
:1093F000EFFA9DF8102001462046FFF7A7FF02B0C4
:1094000010BD0000F0B5057E89B0044675BB03F0C1
:10941000B5FA58B30026002704A92846CDE9046709
:1094200000F060FC10B30125257603F0C4FAC317E1
:10943000CDE90203024600952046FFF7D3FF02A9BB
:109440002046CDE90267FFF739FF134B13491B682C
:10945000009304A8DDE9022303F04EFA1048049AB1
:109460001049FAF7F5FE04A802F0DAFE63698BB141
:1094700000F04CF92369C01A636998420AD300F0DE
:1094800045F94FF0FF312061204609B0BDE8F040BA
:10949000FFF70ABD09B0F0BDCCE303209CE6032032
:1094A000F8E503209EF00B0030B504468BB011B1F7
:1094B000406801F0CFF92046FFF770FC06AD0028A8
:1094C00037D02046FFF79AFD01231A461021204687
:1094D000FFF76BFDD8B103F051FAC0B902A92046DD
:1094E000FFF7ECFEDDE9020103F04CF9134B1449E0
:1094F0001B6800932846DDE9022303F0FDF91148BB
:10950000069A1149FAF7A4FE284602F089FE0F4B8D
:1095100006930F4B09930F4B08934FF400620023FF
:1095200002A80095FAF7D6FF2846FAF748FE0BB0D6
:1095300030BD09490348FEF700F9E8E7CCE3032012
:109540009CE60320F8E50320B4F00B002D8F0B0000
:109550009D410B0089410B00D1F00B00014B024AE9
:109560001A607047F8E50320E9F00B0008B5024BDC
:109570001B685B6C019308BD7402030008B5024BC5
:109580001B685B68019308BD4802030008B5024BE5
:109590001B689B68019308BD4802030008B5024B95
:1095A0001B68DB68019308BD4802030008B5024B45
:1095B0001B681B69019308BD4802030008B5024BF4
:1095C0001B685B69019308BD4802030008B5024BA4
:1095D0001B68DB69019308BD4802030008B5024B14
:1095E0001B681B6A019308BD4802030008B5024BC3
:1095F0001B685B6A019308BD4802030008B5024B73
:109600001B689B6A019308BD4802030008B5024B22
:109610001B68DB6A019308BD4802030008B5024BD2
:109620001B681B6B019308BD4802030008B5024B81
:109630001B689B6B019308BD4802030008B5024BF1
:109640001B681B6C019308BD4802030008B5024B60
:109650001B685B6C019308BD4802030008B5024B10
:109660001B689B6C019308BD4802030008B5024BC0
:109670001B68DB6C019308BD4802030008B5024B70
:109680001B685B6D019308BD4802030008B5024BDF
:109690001B689B6D019308BD4802030008B5024B8F
:1096A0001B68DB6E019308BD4802030008B5024B3E
:1096B0001B681B6F019308BD4802030008B5024BED
:1096C0001B685B6D019308BD3402030008B5024BB3
:1096D0001B685B6E019308BD3402030008B5024BA2
:1096E0001B685B68019308BD1802030008B5024BB4
:1096F0001B689B68019308BD1802030008B5024B64
:109700001B68DB68019308BD1802030008B5024B13
:109710001B685B69019308BD1802030008B5024B82
:109720001B689B6D019308BD1802030008B5024B2E
:109730001B68DB6D019308BD1802030008B5024BDE
:109740001B685B6E019308BD1802030008B5024B4D
:109750001B689B6E019308BD1802030008B5024BFD
:109760001B685B68019308BD2C02030008B5024B1F
:109770001B689B68019308BD2C02030008B5024BCF
:109780001B68DB68019308BD2C02030008B5024B7F
:109790001B681B69019308BD2C02030008B5024B2E
:1097A0001B685B69019308BD2C02030008B5024BDE
:1097B0001B689B69019308BD2C02030008B5024B8E
:1097C0001B68DB69019308BD2C02030008B5024B3E
:1097D0001B681B6B019308BD2C02030008B5024BEC
:1097E0001B68DB68019308BD2802030008B5024B23
:1097F0001B689B69019308BD2802030008B5024B52
:109800001B68DB69019308BD2802030008B5024B01
:109810001B681B6A019308BD2802030008B5024BB0
:109820001B685B6A019308BD2802030008B5024B60
:109830001B689B6A019308BD2802030008B5024B10
:109840001B68DB6A019308BD2802030008B5024BC0
:109850001B681B6B019308BD2802030008B5024B6F
:109860001B685B6B019308BD2802030008B5024B1F
:109870001B681B6C019308BD2802030008B5024B4E
:109880001B689B6C019308BD2802030008B5024BBE
:109890001B68DB6C019308BD2802030008B5024B6E
:1098A0001B681B6D019308BD2802030008B5024B1D
:1098B0001B685B69019308BD6402030008B5024B95
:1098C0001B689B68019308BD6802030008B5024B42
:1098D0001B68DB68019308BD6802030008B5024BF2
:1098E0001B68DB69019308BD3002030008B5024B19
:1098F0001B681B6A019308BD3002030008B5024BC8
:109900001B681B68019308BD8402030008B5024B65
:109910001B685B68019308BD8402030008B5024B15
:109920001B689B68019308BD8402030008B5024BC5
:109930001B68DB68019308BD8402030008B5024B75
:109940001B685B69019308BD8402030008B5024BE4
:109950001B681B6A019308BD8402030008B5024B13
:109960001B685B6A019308BD8402030008B5024BC3
:109970001B689B6A019308BD8402030008B5024B73
:109980001B681B6B019308BD8402030008B5024BE2
:109990001B68DB6B019308BD8402030008B5024B12
:1099A0001B681B6C019308BD8402030008B5024BC1
:1099B0001B685B6D019308BD8402030008B5024B70
:1099C0001B689B6E019308BD8402030008B5024B1F
:1099D0001B689B68019308BD3C02030008B5024B5D
:1099E0001B68DB68019308BD3C02030008B5024B0D
:1099F0001B681B69019308BD3C02030008B5024BBC
:109A00001B685B69019308BD3C02030008B5024B6B
:109A10001B689B69019308BD3C02030008B5024B1B
:109A20001B68DB69019308BD3C02030008B5024BCB
:109A30001B681B6A019308BD3C02030008B5024B7A
:109A40001B689B6A019308BD3C02030008B5024BEA
:109A50001B68DB6A019308BD3C02030008B5024B9A
:109A60001B681B6C019308BD3C02030008B5024B48
:109A70001B681B68019308BD4C02030008B5024B2C
:109A80001B685B68019308BD4C02030008B5024BDC
:109A90001B689B68019308BD4C02030008B5024B8C
:109AA0001B681B69019308BD4C02030008B5024BFB
:109AB0001B685B69019308BD4C02030008B5024BAB
:109AC0001B689B69019308BD4C02030008B5024B5B
:109AD0001B68DB69019308BD4C02030008B5024B0B
