:02000002B0004C
:1040000000400B004AFC0B00000006000D000502FA
:084010000401D41700000000B8
:04401800E0E30B00D6
:1040200081F0004102E000BF83F0004330B54FEA69
:1040300041044FEA430594EA050F08BF90EA020FD6
:104040001FBF54EA000C55EA020C7FEA645C7FEA69
:10405000655C00F0E2804FEA5454D4EB5555B8BF8C
:104060006D420CDD2C4480EA020281EA030382EAFD
:10407000000083EA010180EA020281EA0303362D8F
:1040800088BF30BD11F0004F4FEA01314FF4801C62
:104090004CEA113102D0404261EB410113F0004F74
:1040A0004FEA03334CEA133302D0524263EB43032B
:1040B00094EA050F00F0A780A4F10104D5F1200EC9
:1040C0000DDB02FA0EFC22FA05F2801841F1000124
:1040D00003FA0EF2801843FA05F359410EE0A5F1F8
:1040E00020050EF1200E012A03FA0EFC28BF4CF029
:1040F000020C43FA05F3C01851EBE37101F00045DF
:1041000007D54FF0000EDCF1000C7EEB00006EEBEB
:104110000101B1F5801F1BD3B1F5001F0CD3490875
:104120005FEA30004FEA3C0C04F101044FEA4452CC
:1041300012F5800F80F09A80BCF1004F08BF5FEA53
:10414000500C50F1000041EB045141EA050130BD33
:104150005FEA4C0C404141EB0101013C28BFB1F545
:10416000801FE9D291F0000F04BF01460020B1FA90
:1041700081F308BF2033A3F10B03B3F120020CDA63
:104180000C3208DD02F1140CC2F10C0201FA0CF041
:1041900021FA02F10CE002F11402D8BFC2F1200CA6
:1041A00001FA02F120FA0CFCDCBF41EA0C0190405C
:1041B000E41AA2BF01EB0451294330BD6FEA0404A5
:1041C0001F3C1CDA0C340EDC04F11404C4F1200290
:1041D00020FA04F001FA02F340EA030021FA04F3A2
:1041E00045EA030130BDC4F10C04C4F1200220FAF9
:1041F00002F001FA04F340EA0300294630BD21FA37
:1042000004F0294630BD94F0000F83F4801306BFFC
:1042100081F480110134013D4EE77FEA645C18BFF0
:104220007FEA655C29D094EA050F08BF90EA020F87
:1042300005D054EA000C04BF1946104630BD91EA7F
:10424000030F1EBF0021002030BD5FEA545C05D182
:104250004000494128BF41F0004130BD14F58004C1
:104260003CBF01F5801130BD01F0004545F0FE4135
:1042700041F470014FF0000030BD7FEA645C1ABF6A
:10428000194610467FEA655C1CBF0B46024650EAA1
:10429000013406BF52EA033591EA030F41F40021CD
:1042A00030BD00BF90F0000F04BF0021704730B553
:1042B0004FF4806404F132044FF000054FF0000128
:1042C00050E700BF90F0000F04BF0021704730B5E9
:1042D0004FF4806404F1320410F0004548BF4042BE
:1042E0004FF000013EE700BF42004FEAE2014FEA13
:1042F00031014FEA02701FBF12F07F4393F07F4FEE
:1043000081F06051704732F07F4208BF704793F0F0
:104310007F4F04BF41F40021704730B54FF4607403
:1043200001F0004521F000411CE700BF50EA010206
:1043300008BF704730B54FF000050AE050EA0102AF
:1043400008BF704730B511F0004502D5404261EB1F
:1043500041014FF4806404F132045FEA915C3FF460
:10436000D8AE4FF003025FEADC0C18BF03325FEAFD
:10437000DC0C18BF033202EBDC02C2F1200300FAAE
:1043800003FC20FA02F001FA03FE40EA0E0021FAD3
:1043900002F11444BDE600BF70B54FF0FF0C4CF4C1
:1043A000E06C1CEA11541DBF1CEA135594EA0C0F73
:1043B00095EA0C0F00F0DEF82C4481EA030621EAAE
:1043C0004C5123EA4C5350EA013518BF52EA0335E9
:1043D00041F4801143F4801338D0A0FB02CE4FF09B
:1043E0000005E1FB02E506F00042E0FB03E54FF0CB
:1043F0000006E1FB03569CF0000F18BF4EF0010EC3
:10440000A4F1FF04B6F5007F64F5407404D25FEABE
:104410004E0E6D4146EB060642EAC62141EA555171
:104420004FEAC52040EA5E504FEACE2EB4F1FD0CB3
:1044300088BFBCF5E06F1ED8BEF1004F08BF5FEA31
:10444000500E50F1000041EB045170BD06F00046E3
:1044500046EA010140EA020081EA0301B4EB5C0490
:10446000C2BFD4EB0C0541EA045170BD41F4801188
:104470004FF0000E013C00F3AB8014F1360FDEBFAD
:10448000002001F0004170BDC4F10004203C35DA89
:104490000C341BDC04F11404C4F1200500FA05F30C
:1044A00020FA04F001FA05F240EA020001F00042AD
:1044B00021F0004110EBD37021FA04F642EB060123
:1044C0005EEA430E08BF20EAD37070BDC4F10C044D
:1044D000C4F1200500FA04F320FA05F001FA04F211
:1044E00040EA020001F0004110EBD37041F10001FD
:1044F0005EEA430E08BF20EAD37070BDC4F1200508
:1045000000FA05F24EEA020E20FA04F301FA05F26F
:1045100043EA020321FA04F001F0004121FA04F217
:1045200020EA020000EBD3705EEA430E08BF20EAE7
:10453000D37070BD94F0000F0FD101F00046400021
:1045400041EB010111F4801F08BF013CF7D041EAA3
:10455000060195F0000F18BF704703F000465200A7
:1045600043EB030313F4801F08BF013DF7D043EA78
:104570000603704794EA0C0F0CEA135518BF95EA2E
:104580000C0F0CD050EA410618BF52EA4306D1D1B5
:1045900081EA030101F000414FF0000070BD50EAD4
:1045A000410606BF1046194652EA430619D094EA5E
:1045B0000C0F02D150EA013613D195EA0C0F05D148
:1045C00052EA03361CBF104619460AD181EA03019C
:1045D00001F0004141F0FE4141F470014FF0000054
:1045E00070BD41F0FE4141F4780170BD70B54FF0EF
:1045F000FF0C4CF4E06C1CEA11541DBF1CEA13556F
:1046000094EA0C0F95EA0C0F00F0A7F8A4EB050450
:1046100081EA030E52EA03354FEA013100F0888047
:104620004FEA03334FF0805545EA131343EA126310
:104630004FEA022245EA111545EA10654FEA0026C5
:104640000EF000419D4208BF964244F1FD0404F57E
:10465000407402D25B084FEA3202B61A65EB0305DA
:104660005B084FEA32024FF480104FF4002CB6EB97
:10467000020E75EB030E22BFB61A754640EA0C0017
:104680005B084FEA3202B6EB020E75EB030E22BF57
:10469000B61A754640EA5C005B084FEA3202B6EB98
:1046A000020E75EB030E22BFB61A754640EA9C0057
:1046B0005B084FEA3202B6EB020E75EB030E22BF27
:1046C000B61A754640EADC0055EA060E18D04FEAE5
:1046D000051545EA16754FEA06164FEAC30343EA85
:1046E00052734FEAC2025FEA1C1CC0D111F4801F52
:1046F0000BD141EA00014FF000004FF0004CB6E74B
:1047000011F4801F04BF01430020B4F1FD0C88BFE9
:10471000BCF5E06F3FF6AFAEB5EB030C04BFB6EBF4
:10472000020C5FEA500C50F1000041EB045170BDE7
:104730000EF0004E4EEA113114EB5C04C2BFD4EB14
:104740000C0541EA045170BD41F480114FF0000E98
:10475000013C90E645EA060E8DE60CEA135594EA14
:104760000C0F08BF95EA0C0F3FF43BAF94EA0C0F17
:104770000AD150EA01347FF434AF95EA0C0F7FF48C
:1047800025AF104619462CE795EA0C0F06D152EAE0
:1047900003353FF4FDAE1046194622E750EA4106C4
:1047A00018BF52EA43067FF4C5AE50EA41047FF4D5
:1047B0000DAF52EA43057FF4EBAE12E74FF0FF3C3A
:1047C00006E000BF4FF0010C02E000BF4FF0010C0B
:1047D0004DF804CD4FEA410C7FEA6C5C4FEA430C84
:1047E00018BF7FEA6C5C1BD001B050EA410C0CBFD3
:1047F00052EA430C91EA030F02BF90EA020F002035
:10480000704710F1000F91EA030F58BF994208BF9B
:1048100090422CBFD8176FEAE37040F00100704758
:104820004FEA410C7FEA6C5C02D150EA013C07D1AF
:104830004FEA430C7FEA6C5CD6D152EA033CD3D0FA
:104840005DF8040B704700BF8446104662468C46F4
:104850001946634600E000BF01B5FFF7B7FF002827
:1048600048BF10F1000F01BD4DF808EDFFF7F4FF50
:104870000CBF012000205DF808FB00BF4DF808EDDB
:10488000FFF7EAFF34BF012000205DF808FB00BFFE
:104890004DF808EDFFF7E0FF94BF012000205DF820
:1048A00008FB00BF4DF808EDFFF7CEFF94BF0120D5
:1048B00000205DF808FB00BF4DF808EDFFF7C4FFCE
:1048C00034BF012000205DF808FB00BF4FEA410C17
:1048D0007FEA6C5C02D150EA013C0AD14FEA430CFA
:1048E0007FEA6C5C02D152EA033C02D14FF0000037
:1048F00070474FF0010070474FEA410212F5001275
:1049000015D211D56FF47873B3EB625212D94FEA16
:10491000C12343F0004343EA505311F0004F23FA00
:1049200002F018BF404270474FF00000704750EA55
:10493000013005D111F0004008BF6FF00040704712
:104940004FF00000704700BF4A0011D212F500126C
:1049500011D20DD56FF47873B3EB62520ED44FEAD7
:10496000C12343F0004343EA505323FA02F0704757
:104970004FF00000704750EA013002D14FF0FF3095
:1049800070474FF0000070474FEA4102B2F1E04338
:1049900024BFB3F5001CDCF1FE5C0DD901F0004C26
:1049A0004FEAC0024CEA5070B2F1004F40EB830076
:1049B00008BF20F00100704711F0804F21D113F1A2
:1049C0003872BCBF01F00040704741F480114FEADB
:1049D0005252C2F11802C2F1200C10FA0CF320FA64
:1049E00002F018BF40F001004FEAC1234FEAD32381
:1049F00003FA0CFC40EA0C0023FA02F34FEA4303EB
:104A0000CCE77FEA625307D150EA01331EBF4FF073
:104A1000FE4040F44000704701F0004040F0FE408E
:104A200040F40000704700BF10F8012B11F8013B63
:104A3000012A28BF9A42F7D0D01A7047034613F8CC
:104A4000012B002AFBD1181A0138704709480A497E
:104A5000884208B505D0094A824202D0121A09F0EC
:104A6000E5F90748074A0021121A09F007FA014838
:104A700008BD00BF38E30320FCFA0B0058E4032014
:104A800058E40320F8E7032070B5074E074C08F000
:104A9000C9FEA41BA4080025AC4200D170BD56F885
:104AA000043B98470135F7E7A0FA0B00D8FA0B0052
:104AB00000F06ABA08B500F093FBBDE8084008F0C2
:104AC00069BE05F0DBBE05F0D9BE05F0DFBE000013
:104AD00008B5034A03490C2005F044FDFEE700BF7A
:104AE00075A10B00F4E30B000078B0FA80F04009E8
:104AF0007047012303707047014B1A60704700BF75
:104B000038E30320014B01221A707047A4E503200B
:104B100030B585B00446089860B1406850B18568EA
:104B200045B1CDE90241CDE90023C46801AB6A4635
:104B300002A9A04705B030BD30B585B00068136844
:104B40000193D1E900458368CDE902450BB909F02D
:104B50000DF8C36801AA02A9984705B030BD012A23
:104B600002D1016000207047022A04BF0B68036075
:104B7000F8E703681268D1E90001184710B58368A7
:104B8000044613B1032201469847204610BD10B5D4
:104B9000044638B1FFF7F2FF20461021BDE810406F
:104BA000FFF793BF10BD0EB400B58CB00DAA4FF047
:104BB000200C52F8041B0392CDE900120023016877
:104BC00004AA1E20CDE904C305F0DCFC0CB05DF89E
:104BD00004EB03B07047000070B5134E134C3278ED
:104BE000134D022AC2B017D108F07EFC32782B7820
:104BF00004EB0212009204EB031398B90D4A4FF430
:104C0000807102A805F062FE33780B482B7002A970
:104C1000FFF7C9FF42B070BD2B7804EB021200927F
:104C200004EB0313054AEAE79AE503203CE303207B
:104C300099E5032009E40B004CE6032029E40B006E
:104C400070B5054605F09EFA064E044605F09AFA40
:104C5000001BA84205D205F095FA306005F046FD2C
:104C6000F4E770BD14E7032038B5002383608B6838
:104C700004460D462BB102229847EB68E360AB680F
:104C8000A360204638BD00002DE9F04395B00546ED
:104C90001C9904A890461F460CAEFFF7E5FF04A937
:104CA00008A8FFF7E1FF08A93046FFF7DDFF4FF046
:104CB00000091020CDF84890FFF703FF0446A0B18B
:104CC00096E8030001AB83E8030094E8030086E85C
:104CD000030093E803000E9BE268A36084E80300EE
:104CE0000F9BCDF838900F92E360244B1393244B25
:104CF0001293002200234FF00009C5E90023214B45
:104D0000C5F8089010201094CDE90139CDF80C9029
:104D1000FFF7D7FE0446D8B1129BC0F8089033B114
:104D2000022210A99847139BE360129BA360164BC5
:104D30000393164A029401AB4046394605F06CFCD9
:104D4000B0B12046FFF71AFF10212046FFF7BDFE45
:104D500010A8FFF713FF3046FFF710FF08A8FFF772
:104D60000DFF04A8FFF70AFF284615B0BDE8F08341
:104D7000029BAB60C5E90087EAE700BF394B0B0037
:104D8000914D0B0002000C008F4B0B00114B0B00E0
:104D9000012A37B5044604D10B680360002003B034
:104DA00030BD022A0CD0032AF8D10468002CF5D0BB
:104DB0002046FFF7E3FE10212046FFF786FEEDE7D1
:104DC000096801911020FFF77CFE054610B101999A
:104DD000FFF74AFF2560E1E738B5046805467CB176
:104DE0006368013B63605BB9236820469B68984712
:104DF000A368013BA3601BB923682046DB68984782
:104E0000284638BD10B50B7894B00C46F3B922494A
:104E100004A809F080F800F08FFD00F0A0FE78B142
:104E200005F074FC60B11D4B1D491B788DF80030F6
:104E300002A83C2304AA06F045F903A8FFF7CCFF1B
:104E4000184804A9FFF7AFFE14B010BD084608F0DB
:104E5000C3FFC82811D1144904A809F05CF8134B0A
:104E600000221A7000F068FD044608F05AFB024662
:104E7000C317204600F000FFCDE7204608F0ACFF46
:104E8000C928E8D0204608F0A7FF094A0346402178
:104E900004A805F01BFDBEE737E40B005CE403202B
:104EA0006EE40B004CE603203FE40B0098E5032082
:104EB00051E40B001FB505F029FC60B1124B134AF9
:104EC0001B788DF8003002A811493C2306F0FAF84F
:104ED00003A8FFF781FF0F490F48FFF764FE00F0BA
:104EE0002BFD002100F067FE00F026FD00F03CFEE7
:104EF00018B900F07FFD01F043F800F07BFD05B02C
:104F00005DF804EB00F0C2BE5CE403207BE40B0020
:104F10008BE40B0083E40B004CE60320154B10B52B
:104F200001241C7008F0B0FC00231A46214608F04A
:104F3000BBFC08F0A9FC00230D211A4608F0ACFCCC
:104F40000D4B0E481C751A1D1A600D4A5A6000223E
:104F5000C3E902221A61062340F8043B03F0A0FBD8
:104F600008F072FDBDE8104001466922054801F0D5
:104F7000B9BF00BF5CE4032090E40320A8E4032051
:104F80001000030070E403202DE9F041C0B006A832
:104F900005F0C4FB00237D2220A906A808F02EF806
:104FA00000237C497C4F7D4D7D4C1A46CDE9003372
:104FB00020A805F0C3FB0AAB4FF48022009302A89F
:104FC00000230A970D950C94FFF75EFE0AA8FFF7E1
:104FD000D5FD01F0B5F801F0C5F801F003FD714B06
:104FE0001E880121304608F0B6FC01F01FFD4FF489
:104FF000FA60FFF725FE00F09FFC03681B689847E6
:1050000000F0F8FC03681B68984703F08BFE04F07F
:1050100095F8654808230121438102F053FB7C2168
:10502000614802F04FF80AAB4FF48022009302A8C7
:105030000023CDE90C450A97FFF726FE0AA8FFF7E3
:105040009DFD01F025FE594B594D1F88384608F04B
:105050009BFC50B957495848FFF7A5FD04232B7016
:1050600000F06AFC03689B69984700F065FC00F05B
:10507000D6FD0C46804608F071FAC317A34208BF5C
:10508000404514BF01200020002108F029F928B173
:105090004A494948FFF787FDFFF70CFF08F024FA5B
:1050A000002867D108F03DFAC31702460AA808F0A5
:1050B00033F90A9A42494048FFF775FD0AA807F0FC
:1050C0005FFE04232B7003F0C9FB3E4904460AA887
:1050D00003F098FB0BA904F1080007F0D9FE109B20
:1050E000E36111A904F1200007F0D2FE169B63636F
:1050F000189BE3631A9B63641C9BE3641E9B6365BC
:105100009DF87C3084F858300AA803F05BF908F069
:1051100008FA2D4BC217C3E91802184603F016FC13
:1051200000224FF0FF3329490092384606F020FA5A
:105130002B780BB903232B7000F0FEFB00F06FFD02
:105140000B4623490091024622490AA808F08AF931
:105150000A9A21491848FFF726FD0AA807F010FE11
:105160000021304608F0F7FB06A807F009FE40B022
:10517000BDE8F08108F0D5F9C31702460AA808F087
:10518000CBF80A9A15490C48FFF70DFD0AA807F05D
:10519000F7FD98E7054E0B00F94A0B00734B0B0027
:1051A0005F4B0B0062ED0B0070E4032064ED0B001D
:1051B0009AE5032099E40B004CE60320CBE40B00B6
:1051C000E5E40B001CE50B00A8E40320054B0B00F5
:1051D00043E50B00A0E6032046E50B0009E50B00C4
:1051E0002DE9F043A94C2DED028B2378013B99B0BA
:1051F000062B2BD8DFE813F0540207004800E50126
:105200002A001B01BF01A24B1B78022B01D0FFF724
:10521000E3FC00F091FB00F0ACFC50B104F0B2FFF5
:105220009C4B1B68C01A9C4B1B68984284BF03238D
:10523000237008F087F9054600F07EFB00F0EAFCD9
:1052400008F046F8854201D006232370934802F007
:10525000E7F900F0CFFB00F0E7FB00F06DFB00F09A
:1052600085FB03F05FFD03F04FFC8D4B1B68002BAB
:1052700005DB8C498C48FFF796FC0123237019B09D
:10528000BDEC028BBDE8F083814B1B78032B01D072
:10529000FFF7A2FC05F03AFA30B100F051FF01F03F
:1052A00009FB30B90123D0E7804807F081FB0028D3
:1052B000F3D008F036F94FF461667D4D90FBF6F2BD
:1052C00002FB1606C6F56166B6F5616F2B7DA8BFB9
:1052D0004FF4616601360BB102222A72754AB2F8A8
:1052E0000080002B4BD02B68DB68F3B19A88012A31
:1052F00006D09B68F9E79B68BBB19A88012AFAD16E
:105300009A894245F7D100229A732B7D002B36D023
:105310002B684FF47A79DB6809FB06F9DBB19A88D0
:10532000042A00F0E5819B68F8E76349102008F043
:1053300013FC0746002800F0DE811022002108F04F
:105340009DFD5E4B3B600123BB802B69BB60A7F8D2
:105350000C802F61D9E75849102008F0FDFB074663
:10536000002800F0C8811022002108F087FD534B6F
:105370003B600423BB802B692F61C7E90239002100
:10538000464801F09FFE4A4905A807F0D9FE434868
:105390004FF0FF3101F096FE059B43B39A88012A36
:1053A00025D19B89984525D145493F48FFF7FBFB0F
:1053B00000F0C2FA002100F00AFC00F0BDFA18214A
:1053C00000F0A9FB00F0B8FA002100F09EFB324B80
:1053D0003C4A1A6004F0D6FE2E4B18600423059850
:1053E000237000283FF432AF05F050FA2EE74FF655
:1053F000FF73D7E74FF4FA60FFF722FC08F091F84B
:10540000314B324900938219D31708A808F02AF8C3
:10541000089A039207F0F4FE039A2D4903462248A6
:10542000FFF7C1FB08A807F0ABFC0223D7E7184B36
:105430001B78062B01D0FFF7CFFB00F07DFA054665
:1054400008F06FF80246C317284600F00BFC01F085
:105450001FFC08F077F8054600F06EFA00F01DFB1F
:10546000854201D1FFF726FD00F06AFE00F0BCFE88
:105470000423237005F04AF960B3074B114A1A6000
:1054800004F080FE034B18600723DEE69AE5032054
:1054900099E50320A0E503209CE5032070E40320A8
:1054A00038E30320CEE60B004CE6032008E6032099
:1054B00090E4032064ED0B007CF80B001000030067
:1054C0006CE50B00905F010043E50B00A0E60320B4
:1054D000A9E50B0000F030FA00F050FBE8B900F04D
:1054E0002BFA00F046FB00283FF4B0AE834B18883F
:1054F00008F04AFA00283FF4A9AE00F07BFA00F069
:105500003FFD9FED7F8AB4EEC80AF1EE10FA10DD80
:105510007C497D48FFF747FB98E6784B188808F0F0
:1055200033FA0028DBD079497748FFF73CFB0223A8
:105530008BE600F05FFA00F023FDDFED757AB4EE44
:10554000E70AF1EE10FA10D900F054FA00F018FD55
:10555000B4EEC80AF1EE10FA3FF678AE07F0F2FFAB
:10556000C3077FF573AE6B49DEE707F0EBFF8207F9
:10557000EAD06949D8E7694B694D1B78072B07D0FA
:1055800004F000FE674B186001232B70FFF724FB2B
:105590002B783BB9644B654A1A6004F0F3FD644B09
:1055A0001860C4E704F0EEFD5E4B1B68C01A47F2BA
:1055B000305398427FF64AAE5E495348FFF7F3FAFC
:1055C00070E6564B5C4E1B78042B14D05B4A13706C
:1055D00000F0B2F9002100F025FCFFF7FDFA04F01D
:1055E000D1FD57493060002349681A46062005F06E
:1055F000BDF805F083F800F09FF9054604F0C2FD00
:105600003168411A4FF47A70B1FBF0F1284689B243
:1056100000F008FC05F07AF8002838D000F08CF98A
:10562000054607F07EFF0246C317284600F01FFB21
:105630003D4B3E4A1A6004F0A5FD3D4B186001F059
:1056400067FA00F079F900F059FB3E4A0346402121
:1056500008A805F03BF908A92B48FFF7A4FA00F0C9
:105660006BF900F07CFA60B1374B38491B788DF844
:10567000003005A83C2308AA05F024FD06A8FFF782
:10568000ABFB2E4B1B78062B7FF451AFFCE600F0F2
:1056900053F900F033FBB0F5167F7FF6D7AD01E686
:1056A0001E4B1B78012B05D0FFF796FA28491648A8
:1056B000FFF779FA274D284E2B78BFF35B8F13F055
:1056C000010F09D12846FFF70FFA28B104F05AFD5F
:1056D00030602846FFF70DFA04F054FD3368C01A15
:1056E00047F2305398427FF6B1AD07F026FDADE5A5
:1056F000C3F80C9043E62F7541E600BF64ED0B0044
:1057000000008242F1E50B004CE60320CFE50B00E0
:105710000000484248E60B0015E60B0099E503201F
:1057200098E5032068E403209CE50320905F0100D6
:10573000A0E503207CE60B006CE4032064E4032076
:1057400078E6032098E60B005CE40320ADE60B004E
:10575000B6E60B0058E4032060E40320704710B560
:1057600008210446FFF7B1F9204610BD00B597B0F7
:105770006946406808F0F0FC049817B05DF804FB37
:1057800008B5406808F020FD20EAE07008BD08B5C3
:10579000406808F007FD20EAE07008BD08B54068E1
:1057A00004F048FEB0FA80F0400908BD10B5044688
:1057B0004068431C04D008F0C7FC4FF0FF3363601F
:1057C000012010BD10B50446084611464FF4DB72A7
:1057D00008F0D4FC6060013018BF012010BD08B58E
:1057E0000029AEBF002202220021406808F0BCFC64
:1057F000C043C00F08BD10B5036804460BB904F0E0
:1058000071FC2068BDE8104004F07CBC10B50A4B68
:1058100003600446406A10B103685B68984704F16E
:10582000280007F0ADFA6068044B236008B104F06B
:1058300061FC204610BD00BF40F50B001CF50B00BD
:1058400010B5034B03600446FFF7E0FF204610BD90
:1058500000E80B0010B50446FFF7F2FF20463821A0
:10586000FFF733F9204610BD10B5034B0360044623
:10587000FFF7E6FF204610BD50E80B0010B50446C8
:10588000FFF7F2FF20469821FFF71FF9204610BDD1
:1058900010B5034B03600446FFF7D2FF204610BD4E
:1058A0007CE80B0010B50446FFF7F2FF2046782194
:1058B000FFF70BF9204610BD10B50446FFF7A6FF11
:1058C00020463821FFF701F9204610BD37B5154BAA
:1058D00004461968019100F138050820FFF7F1F836
:1058E000019920B1104B03604FF0FF334360002358
:1058F0000E4AA361C4E901356025C4E903520222BE
:10590000A28284F820304FF47A72094B23606062DF
:10591000E26104F1280007F07EFA064B236020467E
:1059200003B030BDC0E30320D4E70B00759EA9206F
:1059300040F50B0050E80B0038B5064D2B683BB91D
:105940009820FFF7BEF8044608B1FFF7BFFF2C60B0
:10595000286838BDA8E5032010B5FFF7EDFF6422E5
:105960000368C261BDE810405B68184710B5FFF7D7
:10597000E3FF0368BDE81040DB68002118470B46D1
:105980002722162104F078BA37B5154B044619685A
:10599000019100F138050820FFF793F8019920B133
:1059A000104B03604FF0FF33436000230E4AA361A6
:1059B000C4E901354025C4E903520222A28284F8D9
:1059C00020304FF47A72094B23606062E26104F187
:1059D000280007F020FA064B2360204603B030BDB4
:1059E000BCE30320D4E70B00749EA92040F50B0014
:1059F0007CE80B0038B5064D2B683BB97820FFF7E3
:105A000060F8044608B1FFF7BFFF2C60286838BD76
:105A1000ACE5032010B5FFF7EDFFFA220368C26181
:105A2000BDE810405B68184710B5FFF7E3FF036857
:105A3000BDE81040DB680021184738B50446043043
:105A40000D46FFF7D8FEE368013B272B09D9A36871
:105A500093F92820AA4204D083F82850204604F065
:105A6000FFF96068BDE8384004F054BB38B504461F
:105A700004300D46FFF7BFFEE3686068013BAB42B0
:105A800026BFA3685D5D002504F044FB284638BDB1
:105A900008B51521FFF7EAFF08BD08B53D21FFF75E
:105AA000E5FF08BD08B53E21FFF7E0FF08BD08B5DA
:105AB0005A21FFF7DBFF08BD08B53C21FFF7D6FFF1
:105AC00008BD70B5044604300D461646FFF793FE38
:105AD000E368013BAB4207D3A3685A5DB24203D0EF
:105AE0005E55204604F0BCF96068BDE8704004F0E3
:105AF00011BB08B50A461021FFF7E3FF08BD08B542
:105B00000A461521FFF7DDFF08BD08B50A463D210D
:105B1000FFF7D7FF08BD08B50A463E21FFF7D1FFC2
:105B200008BD08B50A465A21FFF7CBFF08BD08B5E6
:105B30000A463C21FFF7C5FF08BD38B504460430CE
:105B40000D46FFF758FEE3686068013BAB4226BF95
:105B5000A3685D5D002504F0DDFA284638BD08B570
:105B60001121FFF7EAFF08BD08B51221FFF7E5FF95
:105B700008BD08B51321FFF7E0FF08BD08B51421E3
:105B8000FFF7DBFF08BD70B5044604300D4616462E
:105B9000FFF731FEE368013BAB4207D3A3685A5DD0
:105BA000B24203D05E55204604F05AF96068BDE861
:105BB000704004F0AFBA08B50A461121FFF7E3FFC1
:105BC00008BD08B50A461221FFF7DDFF08BD08B57C
:105BD0000A461321FFF7D7FF08BD08B50A4614216E
:105BE000FFF7D1FF08BDF8B5044604300D46FFF7B6
:105BF00002FEE3686068083BAB4223BFA168491915
:105C0000D1E90067002638BF002704F083FA304648
:105C10003946F8BD08B54021FFF7E5FF08BD08B5D6
:105C20004821FFF7E0FF08BDF8B5044604300D46F3
:105C30001E461746FFF7DFFDE368083BAB420CD377
:105C4000A3685A1958595168B14208BFB84204D0E4
:105C50005F512046566004F003F96068BDE8F840E3
:105C600004F058BA08B54021FFF7DEFF08BD08B5BB
:105C70004821FFF7D9FF08BD08B55021FFF7D4FF31
:105C800008BD08B51821FFF7CFFF08BD10B5FFF715
:105C9000B1FE044607F045FC0246C3172046FFF755
:105CA000F0FFFFF749FEBDE810400021FFF727BFD6
:105CB00010B5044604F07CF905490648FEF773FF69
:105CC0002046FFF7E3FF2046BDE8104004F0C8B8C7
:105CD000EAE60B004CE6032038B5044604300D46D6
:105CE000FFF789FDE3686068023BAB4226BFA3680B
:105CF0005D5B002504F00EFA284638BD08B5582132
:105D0000FFF7EAFF08BD000010B504F0E5F804460F
:105D100098B1FFF711FEFFF7C0FEFFF70DFEFFF78A
:105D2000BCFE0C280BD9FFF707FEFFF7B6FE1149A2
:105D300002461148FEF737FF0024104A14E0FFF72F
:105D4000FBFDFFF76CFF002906DAFFF7F5FDFFF713
:105D5000D5FF0B490246ECE7FFF7EEFDFFF7CEFF5C
:105D6000B0F5617FF1D8074A07490348FEF71BFFEA
:105D7000204610BD0DE70B004CE6032003E70B00A7
:105D80002AE70B0007E70B0056E70B0008B51021C8
:105D9000FFF7A2FF08BD000010B504F09DF804460F
:105DA000A0B1FFF727FEFFF7F1FFFFF723FEFFF794
:105DB000EDFFB0F5806F10D9FFF71CFEFFF7E6FF8F
:105DC000074902460748FEF7EEFE0024064A074947
:105DD0000448FEF7E8FE204610BD054AF7E700BF7D
:105DE0006BE70B004CE6032003E70B008DE70B008D
:105DF00007E70B0070B5044604300D461646FFF762
:105E0000FAFCE368023BAB4207D3A3685A5BB24299
:105E100003D05E53204604F023F86068BDE870406C
:105E200004F078B908B50A465821FFF7E3FF08BD2A
:105E300070B58CB004F0BCF8354B05AC03F1180616
:105E4000224618685968254603C50833B3422C46D4
:105E5000F7D1002311462F48ADF82C30FEF7A3FEF2
:105E600004F054FC05AAD0B12B4B2C491B788DF8BB
:105E7000003003A83C2305F025F9049C7CB163683D
:105E8000013B63605BB9236820469B689847A36821
:105E9000013BA3601BB923682046DB689847204973
:105EA0001C48FEF780FEFFF747FD0121FFF721FEAA
:105EB000FFF742FD0021FFF77EFEFFF73DFD0021C9
:105EC000FFF78BFEFFF738FD0121FFF77AFEFFF7A2
:105ED00033FD0021FFF77BFEFFF72EFD1149FFF791
:105EE0004EFDFFF729FD0121FFF71BFEFFF724FD03
:105EF0000021FFF70AFEFFF71FFD1821FFF70BFE39
:105F0000FFF71AFD0021FFF78DFF0CB070BD00BF39
:105F10009CE30B004CE60320A5E50320A4E70B005F
:105F2000A9E70B00C1E70B0008B50A461021FFF7EF
:105F300061FF08BD38B504462DED028B04300D46D7
:105F4000FFF759FCE3686068043BAB4229BFA168D6
:105F50009FED058A491991ED008A04F0DBF8B0EE57
:105F6000480ABDEC028B38BD0000000008B52021B6
:105F7000FFF7E0FF08BD08B52421FFF7DBFF08BDF0
:105F800008B53821FFF7D6FF08BD38B504462DED1A
:105F9000028B04300D46B0EE408AFFF72CFCE3681C
:105FA000043BAB420DD3A3685919D1ED007AF4EE4E
:105FB000487AF1EE10FA04D081ED008A204603F011
:105FC0004FFFBDEC028B6068BDE8384004F0A2B81A
:105FD00008B52021FFF7D9FF08BD08B52421FFF738
:105FE000D4FF08BD08B53821FFF7CFFF08BD38B58D
:105FF000044604300D46FFF7FEFBE3686068013B92
:10600000AB4226BFA3685D57002504F083F82846FD
:1060100038BD08B52821FFF7EAFF08BD014B012272
:106020001A707047A5E503207047704710B504212A
:106030000446FEF74AFD204610BD000010B5034B94
:106040000360044601F0BEFD204610BDB4EC0B0019
:1060500010B50446FFF7F2FF204640F62C11FEF77C
:1060600034FD204610BD7FB50268536890681468FF
:106070005E1000EB6305DB0748BF8359684648BFE5
:106080001C5906F0FAFE69462846A04704466846B1
:1060900006F076FE204604B070BD012A38B50446ED
:1060A00002D10B68236003E0022A03D0032A0DD03B
:1060B000002038BD0C200D68FEF703FD03460028C4
:1060C000F0D095E8070083E80700EBE700680028B8
:1060D000EED00C21FEF7F9FCEAE737B51D4601AB1F
:1060E000044601F007FF20B101992A46204601F03D
:1060F000E3FE03B030BD00000A4B10B50446036058
:1061000005F062FE214606F078F807F0FBFA07F08A
:10611000EDFA2046044B40F8043B05F0F7FE20461C
:1061200010BD00BF9CEC0B0084EC0B0010B50446C6
:10613000FFF7E2FF20462421FEF7C7FC204610BDF2
:1061400010B5064C236833B90420FEF7BAFC08B139
:10615000034B03602060206810BD00BFC0E5032032
:1061600000ED0B0030B5194985B004461848FEF71C
:106170001AFD00250C200295FEF7A3FC18B1154B63
:106180008460C0E90035144B009003931020134B3A
:106190000293FEF796FC044678B100238360029BCD
:1061A00033B1022269469847039BE360029BA360D8
:1061B0000B4A0C48214604F074FE029B1BB1694651
:1061C00003220846984705B030BD00BFA0E80B0089
:1061D0004CE60320C9620B0067600B009B600B005C
:1061E000CEE80B007BAE0B002DE9F043CDB007F0FD
:1061F00098F98046FFF7FEFBFFF7C8FD0B90FFF70D
:10620000F9FBFFF7BDFE10EE104AFFF7F3FBFFF7B7
:1062100053FC264A52F82090FFF7ECFBFFF7A6FE4E
:1062200010EE105AFFF788FBFFF732FC0646FFF727
:10623000E1FBFFF7EEFE0746FFF77EFBFFF75EFD93
:10624000CDE908082846CDE90667FEF74DF8CDE907
:1062500004012046CDF80890FEF746F80B9B144A3F
:10626000CDE900014FF480710CA804F02FFB02F07F
:1062700059FD104B104A1B78127810491343002423
:1062800002688DF800308DF804403C2315680CAA94
:10629000A8470CAA0A490B48FEF785FCFFF7AAFBA2
:1062A0002146FFF7CAFB4DB0BDE8F083C4E30320ED
:1062B000D7E80B00BDE50320BCE5032050E90B0047
:1062C00066E90B004CE603202DE9F04FADF64C2DAE
:1062D0000C460746AF490BA806F09DFDAD490FA837
:1062E00006F099FD20233C22002118A8179307F0FF
:1062F000C5FD50234FF48062009352A90DF5A963A8
:1063000047A801F0B7FCA44B2168A4484793FEF7C7
:106310004AFC47A801F0A4FC216807910846FEF753
:106320008DFB0799024647A801F07DFC47A801F0C4
:10633000EBFF044690B99A499848FEF734FC994B14
:10634000974A1B788DF8003027A897493C2304F022
:10635000B9FE28A8FEF740FD254616E047A801F043
:1063600099FC914ADFF89892DFF8388201460AAB2F
:1063700047A801F0BFFD00250A992A4647A801F069
:10638000ABFC014678B9002DE6D147A8FFF756FED1
:106390000FA806F0F5FC0BA806F0F2FC28460DF657
:1063A0004C2DBDE8F08F0BAB4A46079047A8FFF78E
:1063B00094FE07997D4A47A80FABFFF78EFE7C49F4
:1063C0000FA806F0F4FD002836D07A490BA806F095
:1063D000EEFD60B3784917A807F09DFDFFF7ACFA12
:1063E00003689B699847FFF705FBFFF74FFCFFF732
:1063F00001FBFFF74BFC9DF85C30202B13D0674866
:1064000017A9FEF7D0FB04F081F960B198F80030CD
:106410008DF8003027A864493C2317AA04F052FEE7
:1064200028A8FEF7D9FC01350A2DA5D194E76349C8
:1064300017A807F070FDDAE761490FA806F0B7FD6D
:1064400000287DD000F024FCFFF7D4FAFFF79EFC73
:106450000790FFF771FAFFF72AFB5A4E5A4A0028B5
:1064600008BF1646FFF7C6FAFFF78AFD10EE10AA1E
:10647000FFF7C0FAFFF720FB544A52F8202004929D
:106480005046FDF731FF079B514A0096CDE90201C6
:10649000802127A804F01AFA404827A9FEF783FBB9
:1064A00098F8003046498DF8003027AA3C2313A8FD
:1064B00004F008FE14A8FEF78FFC46490BA806F06E
:1064C00076FD002897D007F02CF8434B4349009302
:1064D0000246C31713A806F0C5FF139B0793FFF7E7
:1064E0002BFAFFF7DAFA0646FFF726FAFFF7DAFA91
:1064F0008246FFF721FAFFF73CFB3949394A079BEF
:106500000096002808BF0A46CDE901A28021364A3C
:1065100027A804F0DBF913A806F032FC27A91F48CE
:10652000FEF741FB98F800308DF8003013A824499D
:106530003C2327AA04F0C6FD14A8FEF74DFC5AE739
:106540002A490FA806F033FD064628B100F0A0FB4B
:106550003846FFF749FE4EE725490FA806F027FD0C
:10656000834600284ED023490BA806F020FD48B1F1
:10657000214917A807F0CFFCFFF7DEF93146FFF7F6
:1065800026FB38E71D4917A807F0C5FCFFF7D4F92B
:106590000121F4E7EDF60B00B4EC0B004CE6032010
:1065A0009FE90B00BCE50320BDE90B00C5E90B002A
:1065B000C8E90B00CEE90B00D2E90B0002EA0B00A0
:1065C00027EA0B007AE90B0080E90B00C4E3032003
:1065D0002EEA0B005EEA0B0043E50B00A0E6032069
:1065E00086E90B008AE90B0063EA0B008AEA0B00DC
:1065F0008FEA0B0094EA0B0099EA0B00B9EA0B0052
:10660000C1E90B0033490FA806F0D1FC8246C8B19E
:106610000B980A2209A907F08DFD0C2806460BD815
:1066200003462D4A402117A804F050F9FFF784F9DA
:10663000F1B2FFF76AFADEE6284917A807F06BFC0B
:106640005C46D8E626490FA806F0B1FC8346D8B1CF
:106650000B980A2209A907F06DFDA0F10D030B2B81
:1066600006460BD803461F4A402117A804F02EF90E
:10667000FFF762F9F1B2FFF74EFABCE61A4917A824
:1066800007F049FC5446B6E618490FA806F08FFCFF
:106690000646C8B10B980A2209A907F04BFD02284B
:1066A00006460FD8124A134B4021002808BF134654
:1066B000114A17A804F00AF9FFF73EF9F1B2FFF703
:1066C00030FA98E60D49B8E70D4917A807F023FC02
:1066D000344690E6DBEA0B00E0EA0B00FEEA0B0032
:1066E00017EB0B001DEB0B003BEB0B0056EB0B000D
:1066F00094E90B0098E90B005BEB0B007DEB0B00C2
:106700009EEB0B0070B5D0E900531426044606FB3F
:106710000356AE4204D0284606F032FB1435F8E7A3
:10672000206804F0B3F8204670BD8842F8B50446EE
:106730000D46164616D9904215D2A2F11406751AC6
:10674000A1F114072C44B7421CD02CB1314620468D
:1067500006F093FB337C2374304606F011FB143EA5
:10676000143CF0E70ED0B5420CD02CB1294620469F
:1067700006F083FB2B7C2374284606F001FB1435BE
:106780001434F0E7F8BD2DE9F0410023C0E90033EF
:1067900083604F689F4204460E4623DD4FF0140885
:1067A00008FB07F004F06AF80546D8B1D4E90012F6
:1067B00008FB0212FFF7B9FF206804F067F82560B4
:1067C000A760D6E9007308FB0378B84508D03946BE
:1067D000284606F06CFB3B7C2B7414371435F4E729
:1067E000736863602046BDE8F0810000294B70B5F6
:1067F00001251D70284B08221A70284B284A9A60E0
:1068000000248CB0C3E90044022003F0F5FE2146C9
:10681000284603F009FF2946042003F093FCCDE944
:106820000044029406F06EFF1E4C0546694603A81C
:10683000FFF7A9FF264603A906A8FFF7A4FF1A4BF6
:1068400046F8043B06A909A8FFF79DFF09AA1E21E7
:10685000304605F073FD09A8FFF754FF06A8FFF7BF
:1068600051FF124B2360256203A8FFF74BFF104B2B
:10687000236006F047FF4FF4165106F033FF05F092
:10688000A3FA214605F072FC6846FFF73BFF0CB007
:1068900070BD00BFBCE50320BDE50320B0E50320CB
:1068A0000000FFFFC4E5032084EC0B0020F70B0081
:1068B0009CEC0B002DE9F04385B006F032FE414917
:1068C00005464148FEF76FF9002401A8CDE90144CF
:1068D000ADF80C4004F0F6FA204603F063FC43F6F2
:1068E00098260446002003F05DFC031B61F10001C3
:1068F000B34271F1000305D203F008FF10B103F0B9
:10690000F5FEEFE703F002FF03F03CFC2F4F386089
:1069100003F0ECFE03F0FAFE044640B12C492A488D
:10692000FEF741F90024204605B0BDE8F08306F0EB
:10693000F8FD2849DFF8A080421B2348FEF733F911
:1069400006F0EFFD224602210646D8F8040003F0C7
:1069500035FFD8F8040023462246214603F046FFBF
:10696000204603F01FFC47F230590546002003F093
:1069700019FC431B61F100014B4571F1000306D284
:10698000404606F015F810B903F0B0FEEEE71248E5
:1069900006F00EF803F0F6FB386003F0A7FE0E4891
:1069A00006F002F820B10D490748FEF7FCF8BAE7F7
:1069B00006F0B7FD0A49821B0348FEF7F4F80124EC
:1069C000B1E700BFB2EB0B004CE6032014E7032055
:1069D000DBEB0B00FEEB0B0008E6032027EC0B00C3
:1069E0004DEC0B0008B50F490F48FEF7DCF802210B
:1069F000042006F09FFF0021082006F09BFF0121E4
:106A0000072006F097FF0021122006F093FF0021D7
:106A1000112006F08FFF0121102006F08BFF0120CE
:106A200008BD00BF08ED0B004CE6032010B51C4963
:106A30001C4890B02024FEF7B6F822460021684694
:106A400007F01CFA224600210DEB04008DF80540EA
:106A500007F014FA00210DEB04008DF8254003F037
:106A60001FFE41F2D833ADF806300F4B029341F2CE
:106A70007003ADF80C30009B43F4007343F0010346
:106A800000216846009303F00BFE044618B907493D
:106A90000448FEF788F8201E18BF012010B010BD72
:106AA00021ED0B004CE60320840384033BED0B0037
:106AB00013B5012101A806F030F8FEF79BFFFFF7A0
:106AC00055FAB5EEC00AF1EE10FA0ED501A806F09F
:106AD000B7F8FEF78FFF0121FFF729F8002401A87E
:106AE00006F02AF8204602B010BDFEF783FFFFF73C
:106AF0003DFADFED067AB4EEE70AF1EE10FAE5DCD6
:106B000001A806F082F80124E9E700BF0000144262
:106B100030B51B4D0FCD9BB010AC0FC40FCD0FC4C3
:106B200095E8030084E80300164908A803F0A0FFD5
:106B300008A803F0E0FF044608A803F0F7FF08A840
:106B400010EE105A04F022F81AAB10EE100A03EB04
:106B50008404FDF7C9FBCDE902012846FDF7C4FB1B
:106B6000CDE90001102154F8283C074A0DEB010043
:106B700003F0ACFE054804A9FEF715F81BB030BDC4
:106B8000B8E30B0008E60320AAED0B004CE6032057
:106B900030B585B00D4600226946009203F01AFD1B
:106BA00090B9009C0CB1236923B9084A08490A200E
:106BB00003F0D8FC0C23CDE901350423039301AA8B
:106BC000236901212046984705B030BD75A10B000F
:106BD000C3ED0B0013B5FEF70DFF01A90446072016
:106BE000FFF7D6FF011EA8BF01992046C9B2FEF7E4
:106BF0009EFFFEF7FFFE01A904460320FFF7C8FF32
:106C0000B8BBBDF8043000EE103ABBEECC0A20460B
:106C1000FFF7E8F901A90320FFF7BAFF60BBBDF851
:106C2000043007EE903AFBEECC7A17EE900AFDF7AF
:106C30005BFB02460B4613481349FDF7B4FFFEF712
:106C4000D9FEFFF79DF9DFED117AB4EEE70AF1EE18
:106C500010FA14DCFEF7CEFEFFF792F9FFEE007A91
:106C6000B4EE670AF1EE10FA0CBF0120002002B06A
:106C700010BDBFEE000ACAE7FFEE007AD5E701209B
:106C8000F5E700BF4CE60320E9ED0B000000704281
:106C90002DE9F843FFF79EFF20B9FEF74DFE0121D5
:106CA000FEF795FFFFF704FF03F030FD08B1FFF793
:106CB0002FFFFEF79FFE664B0446188806F077FE0E
:106CC000FDF700FB56A3D3E90023FDF765FB614BFD
:106CD0000022FDF761FB604B0022FDF7A5F95F4B39
:106CE0000022FDF759FBFDF74FFE00EE100A20468B
:106CF000FFF773F9FEF77EFEFFF73DF910EE100A7D
:106D0000FDF7F2FA02460B4655485649FDF74BFF90
:106D1000FEF770FE544B0446188806F048FE054600
:106D2000FEF768FEFFF727F910EE100AFDF7DCFA10
:106D30003DA3D3E90023FDF779F941EC100B06F0F0
:106D400019FF284659EC108BFDF7BCFA38A3D3E99C
:106D50000023FDF721FB38A3D3E90023FDF746FC10
:106D600037A3D3E90023FDF717FB37A3D3E90023AB
:106D700006460F4640464946FDF70EFB364B0022BD
:106D8000FDF70AFB02460B4630463946FDF704FB89
:106D9000324B0022FDF700FBFDF7D6FD81B2204605
:106DA000FFF7C2F8FEF726FEFEF7F0FF2F49024676
:106DB0002B48FDF7F8FEFEF71DFE2D4B0446188804
:106DC00006F0F5FDFDF77EFA15A3D3E90023FDF7E4
:106DD000E3FA204B0022FDF7DFFA1F4B0022FDF7FC
:106DE00023F91E4B0022FDF7D7FAFDF7CDFD00EE8B
:106DF000100A2046FFF7ECF8FEF7FCFDFFF7B6F8A7
:106E000010EE100AFDF770FA02460B4614481949B5
:106E1000FDF7C9FE0120BDE8F88300BFAFF3008095
:106E20006666666666660A406666666666127140F3
:106E30006666666666664A3F6666666666665A3F68
:106E400090BE49D3A068FE3ECDCCCCCCCC0C344017
:106E500068ED0B000000303F0000E03F00005940AB
:106E60004CE6032009EE0B0066ED0B001FEE0B0055
:106E70006AED0B002EEE0B00704710B52021044682
:106E8000FDF723FE204610BD10B504468AB0084623
:106E90004FF0200C0021CDE90023CDE902C10B46C3
:106EA00002AA216803F06EFB0AB010BD0EB403B550
:106EB00003AB322153F8042B0193FFF7E5FF02B037
:106EC0005DF804EB03B070470EB403B503AB0121CA
:106ED00053F8042B0193FFF7D7FF02B05DF804EBE2
:106EE00003B0704710B50272FF2242810022C0E950
:106EF000032242610276C261024A034C1060C0E97B
:106F0000004110BDECE5032030F00B002DE9F84303
:106F10009DF820800446894616461F46B8F1000FAA
:106F200002D0406804F011FB217A606804F0EDFAA9
:106F30006068036849469B6898476068002104F0D0
:106F400000FB054600BB0123217A60683A4604F045
:106F5000CAFA8742034609D13744BE421CD0606852
:106F600003685B69984706F8010BF6E70B490C4884
:106F70004A46FFF79BFFB8F1000F02D0606804F0AB
:106F8000EDFA2846BDE8F8830346064904484A4618
:106F9000FFF78CFF0025EEE70125ECE744EE0B0040
:106FA000E8E5032069EE0B0007B500930123FFF726
:106FB000ADFF03B05DF804FB73B54389FF2B0446B6
:106FC00010D0194E194D03F0DDF8B0F57A7F09D2D3
:106FD000608906F0D9FC012804D031462846FDF727
:106FE000E2FDF0E701230DF1070228212046FFF71B
:106FF000DBFF30B90D480E49FDF7D5FD002002B08A
:1070000070BD9DF80730182BF4D101230DF1070254
:1070100029212046FFF7C8FF0028EBD09DF8073054
:10702000052BE7D1EBE700BF8DEE0B00E8E5032071
:10703000A2EE0B002DE9F0419DF8188004460F46A2
:1070400015461E46B8F1000F02D0406804F07DFAE4
:10705000217A606804F059FA6068036839469B68D1
:1070600098472E44B542606805D0036815F8011BA7
:107070009B689847F6E7012104F063FA034670B174
:10708000084909483A46FFF711FF0025B8F1000FFB
:1070900002D0606804F062FA2846BDE8F08101255C
:1070A000F4E700BFAFEE0B00E8E503201FB58DF855
:1070B0000F2000930DF10F020123FFF7BBFF05B076
:1070C0005DF804FBF8B50A460C4605461A491B480C
:1070D000FDF769FD002CB8BFEC687CB9012322469E
:1070E0001B212846FFF7E2FF1549024606461348D2
:1070F000FFF7EAFEEC606C613046F8BD032C19DD49
:10710000A7101F2FA8BF1F27BA0062F07C0201231F
:10711000D2B21B212846FFF7C9FF3A460346094968
:1071200006460648FFF7D0FE4FF4FA635F43EC6073
:107130006F61E1E70127E7E7D4EE0B00E8E5032004
:10714000DEEE0B00FAEE0B00064B1A684AB1A0F512
:1071500000630B4305D1D3681BB100211046FFF734
:10716000B1BF7047ECE503202DE9FF419DF8288071
:10717000054616461F46B8F1000F04D0406801913D
:1071800004F0E3F90199019100230DF10F02284663
:10719000FFF70AFF044660B19DF80F3003EA0602CC
:1071A0003A43934205D0019900232846FFF77EFF1A
:1071B0000446B8F1000F02D0686804F0CFF9204609
:1071C00004B0BDE8F08113B514460DF10702FFF7D6
:1071D000EBFE28B19DF807301C420CBF01200020B7
:1071E00002B010BD13B514460DF10702FFF7DCFE27
:1071F00028B19DF807301C4214BF0120002002B0C6
:1072000010BD07B5D2430093D2B20023FFF7ACFF05
:1072100003B05DF804FB000037B501230DF1070250
:107220000F210446FFF7C0FE054638B91E491F4826
:10723000AD22FFF73BFE284603B030BD9DF8073076
:1072400013F0200F4FF001030BD02022E3610F2138
:107250002046FFF7D6FF164A16491448FDF7A3FC4F
:10726000E9E7082217212046FFF7BCFF18B10223E7
:10727000114AE361F0E79DF807301A0709D50323A7
:10728000E361082201230F212046FFF7BAFF0B4AD2
:10729000E2E75B07CFD50422E26101230F212046FC
:1072A000FFF7AFFF064AD7E74DEF0B00E8E50320F5
:1072B0001EEF0B006CEF0B0027EF0B0037EF0B00FE
:1072C00047EF0B0007B500931346FF22FFF74CFF73
:1072D00003B05DF804FB2DE9F3479DF828A00546AF
:1072E0000C4691461F46BAF1000F02D0406804F0E8
:1072F0002CF907B3202F3E4628BF20267F2C26D806
:107300003319802B01D9C4F18006012304223F21C7
:107310002846FFF776FF002364F07F0100934A467A
:107320003346C9B22846FFF7F1FD804628B1344400
:10733000BF1BB144DDE74FF00108BAF1000F02D0E6
:10734000686804F00BF9404602B0BDE8F0870123FD
:1073500004223F212846FFF7B5FFDCE72DE9F3477C
:107360009DF828A005460C4691461F46BAF1000F2D
:1073700002D0406804F0E9F807B31F2F3E4628BF4B
:107380001F267F2C26D83319802B01D9C4F1800603
:10739000012304223F212846FFF733FF002364F036
:1073A0007F0100934A463346C9B22846FFF742FEA2
:1073B000804628B13444BF1BB144DDE74FF00108DB
:1073C000BAF1000F02D0686804F0C8F8404602B075
:1073D000BDE8F087012304223F212846FFF772FF12
:1073E000DCE7000030B585B00D68D1E904320395C3
:1073F0004D6802958D680195C96800910133044973
:1074000002F26C72044605F031FE204605B030BD34
:107410007DEF0B0003090A2200F00F0002FB0300BE
:10742000704738B5044600781546FFF7F3FF08604B
:107430006078FFF7EFFF4860A078FFF7EBFF886008
:10744000E078FFF7E7FFC8602079FFF7E3FF013836
:1074500008612DB9651D2878FFF7DCFF886138BD0C
:107460006079FFF7D7FF6430A51D4861F3E700009E
:1074700070B5012388B00D461A4610210446FFF767
:10748000A2FEF0B108230126204600960DEB030270
:107490000021FFF73BFD044698B1324629460DF125
:1074A0000900FFF7BEFF04A8FFF79CFF0848049AF5
:1074B0000849FDF778FB04A805F062FC204608B0F7
:1074C00070BD24220021284606F0D8FC0024F5E7F0
:1074D000E8E503209BEF0B0030B58BB00D4601A90A
:1074E000FFF7C6FF044620B101A803F03FFAC5E943
:1074F000000120460BB030BD0A2390FBF3F103FBE3
:10750000110091FBF3F203FB121240EA0210C0B229
:10751000704770B5054600680C461646FFF7ECFF4D
:1075200020706868FFF7E8FF6070A868FFF7E4FF65
:10753000A070E868FFF7E0FFE07028690130FFF70E
:10754000DBFF20712EB9661DA869FFF7D5FF3070EB
:1075500070BD6A69642392FBF3F003FB1020FFF710
:10756000CBFFA61D6071EFE7F0B587B0054602A816
:1075700016460C46FFF736FF1E48029A1E49FDF7D5
:1075800012FB02A805F0FCFB16B1686803F0DDFFF2
:10759000204601220DF1090100278DF80870FFF740
:1075A000B8FF01231A4610212846FFF78BFE044638
:1075B000E8B1082300970DEB030239462846FFF790
:1075C00039FD044660B101231A4610212846FFF711
:1075D00018FE16B1686803F0C1FF204607B0F0BD81
:1075E0004FF48D7205490348FFF760FCF1E74FF453
:1075F0008F72F7E7E8E50320A9EF0B00B7EF0B0068
:1076000013B504466846CDE9002306F0E9FB9DF872
:10761000102001462046FFF7A7FF02B010BD000072
:10762000F0B5057E89B0044675BB05F05DFF58B323
:107630000026002704A92846CDE9046703F08EF848
:1076400010B30125257605F06CFFC317CDE90203C1
:10765000024600952046FFF7D3FF02A92046CDE958
:107660000267FFF739FF134B13491B68009304A807
:10767000DDE9022305F0F6FE1048049A1049FDF7F3
:1076800092FA04A805F07CFB63698BB102F07AFDE5
:107690002369C01A636998420AD302F073FD4FF060
:1076A000FF312061204609B0BDE8F040FFF70ABD78
:1076B00009B0F0BDE8E30320A0E60320E8E50320DD
:1076C000D2EF0B0030B504468BB011B1406803F027
:1076D000EDFE2046FFF770FC06AD002837D02046AF
:1076E000FFF79AFD01231A4610212046FFF76BFD94
:1076F000D8B105F0F9FEC0B902A92046FFF7ECFEAB
:10770000DDE9020105F0F4FD134B14491B680093F9
:107710002846DDE9022305F0A5FE1148069A114925
:10772000FDF741FA284605F02BFB0F4B06930F4B54
:1077300009930F4B08934FF40062002302A80095B1
:10774000FDF7A2FA2846FDF719FA0BB030BD09493A
:107750000348FFF7ABFBE8E7E8E30320A0E60320DC
:10776000E8E50320E8EF0B0049710B00734B0B00B9
:107770005F4B0B0005F00B00014B024A1A6070478B
:10778000E8E503201DF00B0010B5012303748368A6
:10779000044643B1C0689847012363740020BDE8E4
:1077A000104002F0BFBC00680028F5D083680BB918
:1077B00006F0DCF9C368EEE7012A02D1016000207F
:1077C0007047022A04BF0B680360F8E738B5056804
:1077D000044635B12846FDF7D1F910212846FDF7BA
:1077E00074F920461421BDE83840FDF76EB910B594
:1077F00003680446ABB1586802F044FC88B92368BA
:107800005A7C12B9586802F045FC2368586802F0A7
:1078100049FC20680023236018B1BDE81040FFF741
:10782000D5BF10BD054A026000224260027380F895
:107830004F24C0F85824C0F8602470475CF00B0057
:1078400010B5074C236843B940F26440FDF739F99D
:10785000034608B1FFF7E6FF2360206810BD00BFB4
:10786000F0E5032038B50446406890B10223237345
:10787000FFF7BDFF656855B12846FFF7B8FF2868D8
:1078800008B1FFF7A3FF04212846FDF71EF90023E6
:10789000636038BD10B5054B03600446FFF7E2FF97
:1078A00004F58A60FDF76AF9204610BD5CF00B0014
:1078B00010B50446FFF7EEFF204640F26441FDF7A5
:1078C00004F9204610BDF0B5044689B000F10D065C
:1078D00000F14E07237B1BB9012003F04FF8F9E7B5
:1078E000237B022B64D0A06802F0ECFBA06802F0BE
:1078F000F1FB94F84F348DF800303A463C23314682
:1079000006A803F0DFFB069D6B7833B9237B022BBF
:1079100003D0012003F032F8F5E7D4F858341BB354
:10792000002002F089FE20B16B7813B902F0DEFE70
:10793000FAE72B78D4F860240592591E4B424B414C
:107940008DF80B30D4F85834CDE903670BB906F045
:107950000DF905AB0093D4F85C5404AB03AA0DF108
:107960000B0104F58A60A847A06802F0ABFB237BFB
:10797000022B17D0D4F858340025C4F8605443B112
:1079800004F58A61032208469847C4F85854C4F89D
:107990005C540023A068237302F09CFB07A8FDF74A
:1079A0001BFA97E7A06802F095FB07A8FDF714FA09
:1079B00009B0F0BD0068FFF786BF13B50B4602465D
:1079C000D0E900016C4684E8030093E8030082E8F4
:1079D000030094E8030083E8030002B010BD000038
:1079E0002DE9F7430646884614202649174699464E
:1079F00006F0B2F8044630B10020C4E90000C4E942
:107A00000200207460743460002C31D01D491020B5
:107A100006F0A2F8054668B10023836001463846A7
:107A2000FFF7CBFFBB68AA68BA60AB60EA68FB6887
:107A3000EB60FA602768256037B13846FDF79EF89D
:107A400010213846FDF741F83068036883B10A9B7E
:107A50004A46CDE9000341460B4B043002F00AFBD5
:107A600030B933681B7C4BB9012002F07BFBF8E78F
:107A700030680023336008B1FFF7A8FE304603B03A
:107A8000BDE8F0837CF80B0089770B0030B54368C4
:107A900087B00446C3B9083002F00CFB0B4B0593CA
:107AA00004200B4B02940493FDF70BF8054638B104
:107AB0004FF4406300930749022302AAFFF790FFA7
:107AC000656002A8FDF75AF807B030BDB5790B0024
:107AD000B9770B0040F00B002DE9F043044685B068
:107AE00080680C9F98460D46164602F0EBFA6368D4
:107AF0001BB1237B03F0FF0933B1A06802F0EAFA5F
:107B0000002005B0BDE8F083A06802F0E3FA002D84
:107B10003DD04022294604F10D0006F036FA84F8E3
:107B20004D908EB340F20142314604F14E0006F012
:107B30002CFA84F84E9400230293BB6804F58A65FE
:107B40003BB10222394668469847FB680393BB68FD
:107B5000029329466846FFF730FF029BD4F8582469
:107B6000C4F85834039B02926846D4F85C24C4F8E5
:107B70005C340392FDF702F80D9BC4F860340120D9
:107B800084F84F842073BCE784F84E60D3E728461E
:107B9000B7E7000010B5054B0360037C04461BB932
:107BA000406808B102F072FE204610BD6CF00B0078
:107BB00010B50446FFF7EEFF20461421FCF785FFC1
:107BC000204610BD10B5074B0360037C04461BB96B
:107BD000406908B102F05AFE2046FFF7DBFF20465D
:107BE00010BD00BF7CF00B0010B50446FFF7EAFFA4
:107BF00020462C21FCF769FF204610BD38B5037CD8
:107C000004460D460BB1002038BD406838B102F083
:107C100045FE0028F7D0C4E901050120F4E7084635
:107C200002F02CFEF5E770B5C3680E461546D11874
:107C30004268044672B182688A420BD36068E36886
:107C40002A463146184406F0F1F8E2682A44E26018
:107C5000012070BD2046FFF7D1FF0028EED1F8E7E4
:107C600043680021C16023B1826812B1184606F052
:107C700005B9704710B5C0E901120022C2600122A7
:107C800002744361024A029B0260C36110BD00BFDF
:107C90007CF00B00D0E90503984204D20378012B55
:107CA00018BF002070470020704770B513689D68AA
:107CB000136803F1100414608669B4420AD29B6908
:107CC0008C68A34201DAAB42F2DDA342CCBF0020B4
:107CD000012000E0002070BD73B501F110030446DF
:107CE0001646019300250198A36983420BD9826847
:107CF0008B689A4207DAB54206D001AA20460135C0
:107D0000FFF7D3FFEFE7002002B070BD2DE9F3418C
:107D1000089D984601F1100304461746019300267A
:107D20000198A36983421AD982688B689A4216DA4D
:107D3000AE420BD1386001AA2046FFF7B6FF28B14A
:107D4000019BC8F8003002B0BDE8F08101AA2046CE
:107D5000FFF7ABFF20460136FFF7A7FFE0E7002063
:107D6000F1E710B5044600680B4628B105F0F1F8BC
:107D7000E3680133E36010BD60680028F8D0D4E9FF
:107D80000221013A8A4288BF4354F1E703467F2B20
:107D900037B50846D9B204D803B0BDE83040FFF784
:107DA000E0BF01F03F01B3F5006FC3F3871541F069
:107DB000800407D245F0C0010190FFF7D2FF01987F
:107DC0002146E9E71B0B43F0E0010190FFF7C9FFF3
:107DD00005F03F01019841F08001EEE72DE9FF47F2
:107DE00000244E68DFF8CCA080460F461546A14619
:107DF000B868B0425ADDD8F80430995D9A19002C61
:107E00004BD0752905D86D2907D862291ED066295F
:107E10001ED02846FFF7A5FF3DE0A1F16E04072C18
:107E2000F7D80FF2080C5CF824F000BF557E0B0069
:107E3000137E0B00137E0B00137E0B00597E0B008C
:107E4000137E0B005D7E0B00617E0B000821E0E7D6
:107E50000C21DEE70A21DCE70D21DAE70921D8E76A
:107E6000311D884217DD02A904333344084612F855
:107E7000014F01F8014B9A42F9D101AA51468DF800
:107E80000C9002F01BFD012805D1BDF80400294625
:107E9000FFF77CFF0536002404E05C2904D0284667
:107EA000FFF75FFF0136A3E70124FBE7012004B0E1
:107EB000BDE8F08791F60B007FB50C4606460C49ED
:107EC0001046154605F006F8D4E90131C91A01310A
:107ED000284604F073FF00236A4621463046CDE968
:107EE000013300950393FFF779FF04B070BD00BF25
:107EF000EDF60B002DE9F04389B00546884604A84D
:107F000012491646994604F086FF002700974B4613
:107F100003AA41462846FFF7F9FE044670B10399CB
:107F200004AA2846FFF7C8FF044608B90137EDE761
:107F3000314604A805F03BF80028F7D004A804F067
:107F40001FFF204609B0BDE8F08300BFEDF60B002F
:107F50002DE9F04F44684FF0010C4FF0FF36D0F898
:107F600000E0964580F0B98111F80E80B8F1000F5D
:107F700000F0B381B8F13A0F00F0988033D8B8F12F
:107F8000220F00F0A68010D8A8F109085FFA88F83F
:107F9000B8F1170F0DD89F4D0CFA08F818EA050F25
:107FA00007D0056801350560D9E7B8F12C0F00F05E
:107FB0003381D0F8008042450ED911F808505DB1E8
:107FC0003A2D00F269811F2D00F251810A2D00F235
:107FD0006081082D40F25681002B40F0628108F14B
:107FE000FF350560A5E0B8F17B0F37D02ED8B8F18A
:107FF0005B0F33D0B8F15D0FDBD1002BD1D04FF048
:1080000002094568013D03EB0518002D55DBD8F842
:10801000047001374DD0D8F808A0BAF1FF3F48D11D
:1080200098F800B0CB454BD10EF1010EC0F808A076
:10803000C8F808E003EB051EDEF80470013742D0F3
:10804000DEF8087001373ED18560AAE7B8F17D0FF0
:10805000AFD1002BA5D04FF00109D2E70134002B9E
:108060009FD04568099FAF424AD905F1010EC0F87B
:1080700004E003EB051ECEE901664FEA051A002570
:10808000CEF80C5085686F1C1FBF03EB0519D9F89B
:108090000C500135C9F80C50B8F17B0F0CBF01250D
:1080A000022503F80A500568CEF804504568013DE2
:1080B000CAE7013DA8F11008A7E701357FF471AFC9
:1080C0006FF001041EE0013D6F1CAEF1100EB3D144
:1080D00067E70EF10109C0F80090D0F80080424532
:1080E00040F2938011F80850002D00F08E80222D70
:1080F00030D1F3B14568099FAF4206D8C0F800E01F
:108100004FF0FF342046BDE8F08F05F1010E4FEA35
:10811000051803EB0515C0F804E0C5E90166002762
:10812000EF60D0F800E04FF0030A03F808A0C5E9BB
:10813000019E85686F1C04F101043FF432AF002BEF
:108140003FF42FAF03EB051EDEF80C500135CEF8DF
:108150000C5026E75C2D11D108F10105AA420DD97A
:1081600005604D5D752D2BD86D2D0BD8662D27D84C
:108170005B2D1DD8222D01D02F2D21D10568013571
:108180000560AAE76E3D072D1AD801A757F825F01C
:108190007D810B00C1810B00C1810B00C1810B00EF
:1081A0007D810B00C1810B007D810B00C7810B001D
:1081B0005C3DEDB20CFA05F540F241473D42DDD1A0
:1081C000C0F800E07CE708F1020505604FF0040A02
:1081D000D0F80080424503D80568013D0560CDE731
:1081E00011F80850002DF7D0A5F1300BBBF1090FA5
:1081F00004D925F02005413D052DE1D808F1010500
:10820000BAF1010A0560E3D1E6E7C0F800E06FF0DB
:10821000020477E713008000002B3FF4C2AE8568AC
:108220006F1C3FF4BEAE2D015D5D013D012D7FF65B
:10823000B8AE456805F1FF3803EB051EB8F1000F35
:10824000FFF6AFAE1EF8105C013D012D0AD85EF8B6
:108250000C5C013506D05EF8085C013502D1C0F82F
:1082600008809EE608F1FF38AEF1100EE6E7A5F1B2
:108270002009244F5FFA89F90CFA09F919EA070F66
:108280007FF4AAAE203D5E2D9AD808F10105056065
:108290008FE60D2DF6D19FE605F0DF09B9F15D0FF0
:1082A000F8E74568099FAF427FF628AF05F101085E
:1082B0004FEA051903EB0515C0F80480C5E901660E
:1082C0000027EF60D0F800804FF0040A03F809A0FF
:1082D000C5E901E80568013D83E6002B3FF412AFD4
:1082E0004268511E03EB02130029FFF60BAF53F84F
:1082F0000C2C013203D053F8082C013287D00139FD
:10830000103BF1E701100004F7B5C268044612B94A
:10831000002003B0F0BD436900F12006ABB100219D
:10832000C0E908114FF0FF318162C16900914168D5
:108330003046FFF70DFE431C28D1257C002DE7D1E8
:10834000606902F0A3FA6561E56100254FF0FF372F
:10835000C4E90855E2686168A76200952B4630467B
:10836000FFF7F6FD0028D3DBE06117D0000102F033
:1083700085FAE269606103460092C4E90855E26843
:108380006168A7623046FFF7E3FD01E00028BFDB2C
:10839000636903EB0010A0610120BAE76369A36180
:1083A000FAE77047704710B508210446FCF78DFBCB
:1083B000204610BD10B510210446FCF786FB204670
:1083C00010BD000010B5054B044640F81C3B04F0FE
:1083D000D7FC201D04F0D4FC204610BDE4F00B00B7
:1083E00010B50446FFF7EEFF20465821FCF76DFB61
:1083F000204610BD10B5044B044640F8043BFFF77F
:10840000E1FF204610BD00BFB4F00B0010B50446DC
:10841000FFF7F0FF20466021FCF757FB204610BD18
:1084200020F00203012B03D0431F584258417047EC
:108430001846704791F90430037191F90530437182
:1084400091F90630837191F90730C371704738B5DF
:1084500004460D460430043104F01AFD05F1140100
:1084600004F11400FFF7E6FF05F11C0104F11C0004
:1084700004F00EFD05F12C0104F12C00FFF7DAFFEA
:1084800095F9383084F8383095F9393084F8393036
:1084900095F93A3084F83A3095F93B3084F83B301E
:1084A00005F13C0104F13C00FFF7C4FF95F94830A9
:1084B00084F8483095F9493084F8493095F94A30C4
:1084C00084F84A3095F94B3084F84B3005F14C0173
:1084D00004F14C00FFF7AEFF95F8543084F85430A7
:1084E00038BD0B6803604B68436013B15A680132B2
:1084F0005A607047024A02604A684260704700BF93
:10850000C4F00B00024A026000224260704700BFC4
:10851000C4F00B0030B5002387B0838083710D4613
:1085200005AB00931349044604AB03AA284602F0A6
:10853000C5F9032807D1039B2371049B6371059B35
:10854000A37107B030BD0C4904AB03AA284602F062
:10855000B5F9022804D1039B2371049B6371F0E7F2
:10856000064903AA284602F0A9F9012804BF039B83
:108570002371E6E784F00B0087F00B00DBEE0B00C5
:1085800090F9042090F9053090F90610002AB8BF40
:108590000848C3EB03134FEA8303BDBF00FB02305F
:1085A000401840424FF46160A4BF00FB0230401805
:1085B000704700BFF0F1FFFF90F9073043B990F921
:1085C00004308B6090F905304B6090F906300B60F9
:1085D000704790F9073030B5B3B990F904508C6802
:1085E0002C44D1E900328C6090F90540002DB5BFD4
:1085F000121B12194A604A60B5BF90F9062090F923
:1086000006209B1A9B180B6030BD000008B5054A78
:1086100002600022034642600830FFF773FF1846ED
:1086200008BD00BFD4F00B00002343608381837337
:108630007047000030B5044687B00D4611B10B7885
:108640004D2B05D0204607B0BDE83040FFF7ECBF0A
:1086500005AB0093114904AB03AA284602F02EF99A
:10866000032816D1039B2371049B6371059BA3719F
:108670002F21284605F038FC40B1411C04F10800C8
:10868000FFF748FF0123E37107B030BDA081A0735D
:10869000F8E72046FFF7C8FFF6E700BF9FF00B00A2
:1086A000104B114910B5044640F8043B04F0B3FBED
:1086B00004F11400FFF726FF0B4904F11C0004F03D
:1086C000AAFB04F12C00FFF71DFF04F13400FFF7B3
:1086D0009DFF04F14400FFF799FF002384F8543014
:1086E000204610BDE4F00B00EDF60B002DE9F74F2E
:1086F0000446084605F018FC00250646019004F1E2
:1087000034083F49019801AA05F08EFC0146002873
:1087100062D0012D05F1010353D0022D56D0002D5A
:1087200046D1024692F80090B9F1400F154617461F
:1087300002F10102F6D800222A7004F11C0004F0B4
:10874000C9FB012285F8009084F854202A786AB386
:1087500097F800A00AF1FF323F2AB946BB4607F15D
:108760000107F5D9002304F12C0789F800302946C8
:108770003846FFF7CFFE89F800A0BAF1000F15D0F8
:108780005D461BF801ABBAF1400FF9D800222A7000
:108790004946201D04F09EFB85F800A004F114005A
:1087A000BAF1000F06D02946FFF7B4FE0125A8E76D
:1087B0001D46A6E73946FFF73DFE237E013B2376A3
:1087C000F4E74046FFF736FF02259AE704F144003C
:1087D000FFF730FF032594E794F93B3043B194F958
:1087E0004B202AB904F13400FFF71EFF84F854200F
:1087F000304602F04BF894F8540003B0BDE8F08F17
:10880000A9F00B0038B5134B04460D4640F8043B65
:10881000114904F000FB04F11400FFF773FE0E4948
:1088200004F11C0004F0F7FA04F12C00FFF76AFED3
:1088300004F13400FFF7EAFE04F14400FFF7E6FE1E
:10884000002384F8543029462046FFF74FFF204686
:1088500038BD00BFE4F00B00EDF60B0038B5094D54
:108860002B6863B96020FCF72CF9044630B1064B45
:1088700040F8043BFFF714FF6423E3652C6028688D
:1088800038BD00BFF4E50320B4F00B0002F06EB871
:1088900001390B2915D8DFE801F01608160616066F
:1088A0001616061606161E20704783070DD1642380
:1088B00090FBF3F203FB120000280CBF1C201D20CC
:1088C0007047002070471F2070471C207047F8B584
:1088D0000123CB6090F90430013B0B610023C1E917
:1088E000003306460C4617468B602046FFF7CEFF46
:1088F00096F90630A2699A4203D0E3680133E36037
:10890000F3E796F90550012D13D0E3686069013D46
:10891000C5EBC5051D44E56096F9041000F26C70C6
:10892000FFF7B6FF8542C4BF073DE5602046FFF76D
:10893000ADFF214606F10800FFF73EFE3846FFF77F
:1089400048FE2046BDE8F84002F010B8F0B590F8B7
:10895000583085B004462BB9FFF780FF011D201D5C
:10896000FFF775FD94F93F30002B65D0D4E918234B
:1089700004F19807394602A83E46CDE9022301F0EA
:10898000E5FF0FCE04F1C8050FC50FCE0FC5336844
:108990002B6004F1300102A8FFF7ACFD02AA3946B2
:1089A00004F13800FFF793FFC4E9240104F1180132
:1089B00002A8FFF79FFD02AA04F1C80104F14800D4
:1089C000FFF785FFD4E92465864275EB0103C4E90E
:1089D0003001D4E9182323DAB24273EB050519DA22
:1089E000002323602068FFF71BFD04F16801D4E930
:1089F0001856019110BB04F13000FFF7C1FD2D1A8C
:108A000066EBE070CDE90250019902A801F09EFFEB
:108A100005B0F0BD82428B41B4BF01230223E0E7E1
:108A2000824273EB010101DA0323DAE7B242AB4180
:108A3000B4BF04230523D4E70623D2E704F11800CA
:108A4000DBE737B58D6804466846FFF74AFD6A469E
:108A50002946204602F016FF01A8FCF7BDF9204682
:108A600003B030BD37B5CD6804466846FFF739FD21
:108A70006A462946204602F0E1FE01A8FCF7ACF95F
:108A8000204603B030BD37B50D6904466846FFF790
:108A900028FD6A462946204602F079FE01A8FCF727
:108AA0009BF9204603B030BD03680A7883F8B120F3
:108AB000012183F8B010704710B442680346541087
:108AC00001EB6200D20748BF0A591B685DF8044BEE
:108AD00048BFD3581847012A02D1016000207047CF
:108AE000022A04BFD1E90023C0E90023F6E7012AE6
:108AF00002D1016000207047022A04BF0B680360A6
:108B0000F8E7406F01F0FEBAD0F8C83001461BB15B
:108B1000D0F8CC30C030184770470000F8B5124D7F
:108B20000846002A18BF15460E461F46FBF786FF6B
:108B3000402816D82846FBF781FFB0F5806F10D883
:108B40004330FBF7C0FF044648B1314600F8017BD3
:108B500005F0E1F9294604F1420005F0DCF9204670
:108B6000F8BD0024FBE700BFEDF60B00F0B59FB0A9
:108B70000A4600230E46011D08A800F041FE089891
:108B8000002105F0FBFA054608A804F0F9F8002DCD
:108B900060D008A9284605F0DFFA0C9B2E492F4823
:108BA0003246FEF791F900221146284605F0DCFA1C
:108BB000082206A9284605F0F5FA0C9F4A2F39DD50
:108BC000274B069A9A4235D1264B079A9A4231D1C1
:108BD000A7F1080210460592FBF775FF0446C0B1E5
:108BE00027440146059A284605F0DCFA17F8093CA7
:108BF000ABB9631C18460593FBF720FF3F28059B84
:108C00000DD804F142020092174914483246FEF78B
:108C10005BF9284605F098FA20461FB0F0BD1349CD
:108C20000E483246FEF750F943212046FBF74DFF30
:108C30000024EEE7BDF81E3002939DF81D3001932D
:108C40009DF81C3000930A49069B04483246FEF703
:108C50003BF9EDE72C46DFE7ECF00B00F8E50320ED
:108C60006376B6310108410000F10B0022F10B00E0
:108C700050F10B002DE9F8438046284B48F8043B9F
:108C80000446404600F0D4FC022264230025C4E9D7
:108C90001B230823E367C4E92055C4E92255C4E92E
:108CA0002455C4E92655A5672020FBF70AFFE66F87
:108CB000A067013E760800EB860907464FF4007076
:108CC000FBF7FFFE00F50073C4E92503C4F8883004
:108CD0004FF4FA614FF47A73C4E92D1347F230531D
:108CE00047F82600C4F88400C4F88000C4F8900057
:108CF000C4E92855C4E92A550949C4F88C90C4F838
:108D00009C90C4F8B050C4F8BC30C4F8C850404679
:108D100000F0D4FC2046BDE8F88300BF6CF30B00E4
:108D200095F10B0038B5064D2B683BB9D020FBF709
:108D3000C8FE044608B1FFF79DFF2C60286838BDC7
:108D4000FCE503204269436A9B1A9B105A1ED0E936
:108D500006315B1A9B1003EBC21302698068101A7C
:108D600003EBA000704738B50546FFF7CAFE05F1D2
:108D70007800FFF7E7FF044650B9281D00F094FF84
:108D8000D5F8A03004461BB1D5F8A43003B901349E
:108D9000686F01F0BFF9204638BD10B502698368DD
:108DA000043A9342044602D00433A36010BDC06865
:108DB0004FF40071FBF789FE63691A1D62615B68FD
:108DC000E36003F500722261EFE700002DE9F04F48
:108DD00085B00446FFF795FEDFF8A490DFF8A4A065
:108DE000DFF8A4B0D4F88030D4F89020934205D1B5
:108DF000606F05B0BDE8F04F01F08CB904F1780068
:108E000004F104081F68FFF7C8FF404600F0F0FEB9
:108E10000023024641460646684600F0F1FC0098F1
:108E200040F2022105F0AAF90546684603F0A8FFC2
:108E3000C5B1082269462846CDE9009A05F0C4F973
:108E400007F14200FBF7FAFD394600F143022846DC
:108E500005F0BAF9284605F077F908483246594630
:108E6000FEF732F83146404600F004FF002FB9D03B
:108E700043213846FBF729FEB2E700BFF8E503209F
:108E80006376B63101084100A3F10B002DE9F041F2
:108E90000446FFF736FE04F17800FFF753FFE36E58
:108EA000984202D92046FFF791FFDFF844800F4F28
:108EB000261D304600F0F8FE236F984204DC606FF8
:108EC000BDE8F04101F026B90121304600F09CFEDA
:108ED00005460028EDD001460022304600F0CCFCCB
:108EE0002A4641463846FBF75EFEE2E7F8E50320F6
:108EF000C0F10B0008B5A0F500630B4305D0403866
:108F000050EA01030BD1092A09D105490548FDF7AB
:108F1000DBFFFFF707FFBDE80840FFF757BF08BDBD
:108F2000D3F10B00F8E5032070B50368044683B164
:108F3000436A45691E1DAE4206D955F8040B4FF42D
:108F40000071FBF7C2FDF6E7616820688900FBF756
:108F5000BCFD204670BD00001FB5D1E900230021F3
:108F6000044602910AB9D90705D5CDE900230A4B79
:108F700003930A4B029321466846FEF71EFD029BAF
:108F8000A268A360039B02926846E268E3600392D2
:108F9000FBF7F4FD04B010BDB98A0B00D78A0B00B3
:108FA00070B586B0044601F0B1FB48B9484B02A940
:108FB000CDE9023004F1C000FFF7CEFF06B070BD6E
:108FC00094F8B2501DB1012384F8B330F6E701F0F4
:108FD000D9F8D4F8A830C01AD4F8AC30984208D2E6
:108FE0002046FFF7C0FEB0FA80F0400984F8B300D5
:108FF000E4E7261D2946304600F006FE0146C4F887
:10900000A400002852D02046FFF7B0FD0546C4F862
:10901000A000002835D001F0B5F802AE00252D4B98
:10902000C4F8A800314604F1C00002930395FFF78D
:1090300093FFD4E9283003F1420200922649274ADF
:10904000A4F8B050A84208BF0A4601332449254875
:1090500084F8B350FDF738FFFEF7F2FBD4F8A020F8
:10906000214B0593CDE900651146204B02940493F2
:1090700011F8013B4232FEF72FFD3046FBF77EFD33
:109080009CE7D4F8A4201A491648FBF78CFD01216F
:10909000304600F0B9FDD4F8A4102A46304600F05E
:1090A000EBFBD4F8A030002BB5D18CE7D4F880309E
:1090B000D4F890209A4207D01B68C4F8A03004F17D
:1090C0007800FFF76AFEECE7C4F8A0007BE700BF7A
:1090D000F5900B006D940B0002F20B0068F40B008E
:1090E00023F20B00F8E50320A98A0B00EF8A0B009E
:1090F00006F20B0013B590F8B230044623B9FFF71F
:1091000032FEB0FA80F35B0984F8B33001F0FEFA66
:1091100080B101F037F8D4F8B430C4F8AC30064B65
:10912000C4F8A80000936946002304F1C00001932D
:10913000FFF712FF02B010BDA18F0B0070B50546FE
:1091400098B0002001F088FA012805D03E493F4838
:10915000FDF7ACFE18B070BD05F1740000F0C2FF61
:109160003B4B04933B4B079304A93B4B069308A846
:10917000FBF77AFD08A90CA8FBF776FD0CA910A84F
:10918000FBF772FD002610201696FBF79AFC0446AA
:1091900060B18660014610A8FEF70FFC129BA26822
:1091A0001292A360E268139BE36013922B4B179318
:1091B0002B4B16932B4B149400261020CDE901362F
:1091C0000396FBF77EFC0446D8B1169B866033B14C
:1091D000022214A99847179BE360169BA360224BB9
:1091E0000393224A029401AB4FF40460002101F082
:1091F00013FA30B12046FBF7C1FC10212046FBF7E3
:1092000064FC14A8FBF7BAFC10A8FBF7B7FC0CA889
:10921000FBF7B4FC08A8FBF7B1FC04A8FBF7AEFC15
:10922000FEF70EFBFEF732FC281D00F069FC284615
:10923000FFF72CFE0E4B149314A9002305F1C00078
:109240001593FFF789FE85E742F20B00F8E503204E
:10925000F58E0B00734B0B005F4B0B00394B0B0073
:10926000914D0B0002000C008F4B0B00114B0B00BB
:10927000F5900B002DE9F04706468946406A716972
:109280007368471A09EBA7050135B3EB450F144680
:1092900027D95D1B6D083268AD000CB14FEA890417
:1092A0002C441444031DA142A3EB010213D999429B
:1092B00002D0204604F0C8FD74612368F36003F512
:1092C00000733361E3197362E359F36103F50073CB
:1092D0003362BDE8F0879942EED0381D801A2044F1
:1092E000E8E703F102084B452CBF9844C844B8F1A5
:1092F000005F01D304F034FC4FEA8800FBF7E1FB88
:10930000A8EB05056D088246AD000CB14FEA890453
:10931000726A716904322C449142544403D0521A47
:10932000204604F091FD716830688900FBF7CDFBA1
:10933000C6E900A8C0E70000F0B585B004469DF876
:1093400028509DF82C302B430F461646FFF7E6FBBE
:10935000054600283CD03F4B3F494048002E18BFEF
:1093600033463A46FDF7B0FD2046FFF7CAFBD4F876
:109370009820D4F89030043A934204F1780629D02A
:1093800003B11D60D4F890300433251DC4F890302B
:10939000284600F089FC03903046FFF7D3FC02908A
:1093A00001F0B4F9DDE9023200902D492B48FDF7B8
:1093B0008BFD284600F078FC00283BD02046FFF7C4
:1093C00005FD2046FFF762FD606F00F0A3FE01205F
:1093D00005B0F0BD3046FFF7B5FC6FF06043984232
:1093E00002D1204804F0BFFBD4F89C30A26F9A1A37
:1093F000E36FA3EBA203012B04D800220121304626
:10940000FFF738FF4FF40070D4F89C70FBF759FB5E
:109410007860D4F8903003B11D60D4F89C301A1DE8
:10942000C4F89C205B68C4F8943003F50072C4F85B
:109430009820AAE73046FFF785FCE36E9842BDD836
:1094400001F064F90028B9D007490448FDF73CFD54
:10945000B7E700BFEDF60B0065F20B00F8E503205F
:10946000BDF20B008DF20B00E9F20B0073B590F822
:10947000B0300446002B41D090F8B130D0F8A42091
:10948000002B3DD050495148FDF71EFDD4F8A430C3
:10949000D3B1261D0021304600F0B6FBD4F8A4302D
:1094A000984205460DD10121304600F0ADFB002267
:1094B0002946304600F0E0F9454944482A46FDF780
:1094C00003FD0023C4F8A430D4F8A00010B1432158
:1094D000FBF7FBFA0023C4F8A030D4F8B830C4F886
:1094E000AC303C4B00936946002304F1C00001936B
:1094F000FFF732FD00F046FEC4F8A80002B070BDD0
:1095000035493248FDF7E0FCD4F8BC30C4F8AC3043
:10951000D4F8A4304BB1D4F8A00010B14321FBF72C
:10952000D4FA0023C4F8A030DBE72046FFF7E9FABD
:10953000D4E92032934213D0D4F8A02043F8042C6D
:10954000D4F88030043BC4F88030606F00F0E2FD56
:1095500022491E48FDF7B8FC2046FFF737FCC0E75C
:1095600004F178052846FFF7EDFB6FF06043984261
:1095700002D11B4804F0F7FAD4F88C20A36F9A426A
:1095800004D1012211462846FFF774FE4FF4007003
:10959000D4F88C50FBF795FA45F8040CD4F88C30CD
:1095A0001A1FC4F88C2053F8043CC4F8843003F527
:1095B0000072C4F8882003F5FE72C4F88020D4F845
:1095C000A020C3F8FC21C0E7FCF20B00F8E5032063
:1095D0000FF30B00A18F0B001FF30B0031F30B00F7
:1095E0008DF20B00014B024A1A607047F8E5032028
:1095F00058F30B0010B5074B044640F8C03BFBF78F
:10960000BDFA04F17800FFF78FFC201D00F0B8F9D7
:10961000204610BD6CF30B0010B50446FFF7EAFFBF
:109620002046D021FBF751FA204610BD012070479B
:10963000F8B51F4D1F4B0446294640F8043B03F084
:10964000EAFB1D4904F1140003F0E5FB294604F18F
:10965000240003F0E0FB0023C4E90E33C4E9123315
:10966000C4E91433C4E91633C4E9183384F8343038
:109670002364082363642020FBF723FA656C2064CD
:10968000013D6D0800EB850706464FF40070FBF7BF
:1096900018FA00F50073C4E9170346F82500E064E2
:1096A000A064A0656765236567662046F8BD00BFB6
:1096B000EDF60B0078F40B0078F30B007FB5051D79
:1096C0000446284603F006FC0E49684603F0A3FB57
:1096D0006946284603F07DFC0646684603F050FBC9
:1096E0006EB1E3680022013B2946684603F09EFC08
:1096F0006946284603F0E6FB684603F041FB204636
:1097000004B070BD7DF30B0010B5C36B044613B9F4
:109710003C3000F0CFFCE06BBDE8104000F0D2BC64
:10972000C06B00F0D7BC000010B596B06946044687
:1097300000F050FED0B9019B5B04224606D51549C6
:109740001548FBF730FA012016B010BD1248134936
:10975000FDF7ACFB204604F02FFD40F2FF11204640
:1097600000F040FE80B90E492246E9E701F0CEF84C
:109770000368022BF1D001F0C9F80A4902680648D3
:10978000FDF794FB0020DFE701F0C0F8064902680E
:10979000F5E700BF8AF30B0000E60320A7F30B00F8
:1097A000D8F30B00C4F30B00E7F30B0038B51546F4
:1097B000044603F030FB4DB12B783BB10449204601
:1097C00003F0B6FB2946204603F0B2FB204638BD25
:1097D000E8F70B007FB505460E461C46496968460A
:1097E00003F044FC009904B9746A22462846FFF746
:1097F000DDFF684603F0C4FA284604B070BD0000DF
:1098000070B50C468EB01A49CDE90032054603F01A
:1098100002FBE068E16901440431284603F0CEFA16
:10982000211D06A803F043FB124902A803F0F3FA36
:1098300002A906A803F09AFBDDE90032064621469C
:109840000AA8FFF7C7FF0AA9304603F08FFB0146BD
:10985000284603F01DFB0AA803F092FA02A803F0C1
:109860008FFA06A803F08CFA28460EB070BD00BF30
:10987000EDF60B007DF30B002DE9F04713468EB09B
:1098800005460F46002A4AD0406800F0BBFD064658
:10989000002854D0DFF8B4A0DFF8AC90DFF8A48043
:1098A000304600F0B7FD002833D0827A082AF7D17D
:1098B00000F10B04696901AA204600F0FFFF0128AE
:1098C000EED1019BBB42EBD1291D0AA803F0EFFAB0
:1098D000514606A803F09FFA06A90AA803F046FB22
:1098E000214603F04FFB014602A803F0E0FA06A868
:1098F00003F046FA0AA803F043FA029804F05CFC6D
:109900004046029A4946FDF7DFFA02A803F038FA0A
:10991000C6E730460EB0BDE8F04700F083BD0A460A
:1099200001460AA8FFF76CFF0A9804F045FC0548B9
:109930000A9A0549FDF7C8FA0AA803F021FA0EB001
:10994000BDE8F08700E603207FF30B007DF30B00FA
:1099500070B50368044683B1436A45691E1DAE4273
:1099600006D955F8040B4FF40071FBF7AEF8F6E793
:10997000616820688900FBF7A8F8204670BD0000E8
:1099800010B5094B044640F8403BFFF7E1FF04F1F6
:10999000240003F0F5F904F1140003F0F1F9201D9F
:1099A00003F0EEF9204610BD78F40B0010B5044624
:1099B000FFF7E6FF20466821FBF787F8204610BD39
:1099C000C368CA689B1A9B105A1ED0E900301B1A44
:1099D0009B1003EBC21388680A68801A03EBA0008F
:1099E000704700002DE9F047026A8369043A934208
:1099F00004460F4607D00BB10A681A60A369043306
:109A0000A361BDE8F08700F108011830FFF7D8FF27
:109A10006FF06043984202D1384804F0A4F8626ABB
:109A200020686368111AA3EBA101012925D8616997
:109A3000A2EB01084FEAA806B51CB3EB450F36D9D7
:109A40005D1B6D0800EB8505131DA942A3EB010208
:109A500026D98B4202D0284604F0F6F965612B68BE
:109A6000E36003F50073236105EB0803636255F8B7
:109A70000830E36103F5007323624FF40070656AF8
:109A8000FBF71FF86860A3690BB13A681A60636A54
:109A90001A1D62625B68E36103F500722262AFE740
:109AA0008B42DBD008F10400801A2844D4E703F18C
:109AB0000209012B2CBF994409F10109B9F1005F9A
:109AC00001D304F04DF84FEA8900FAF7FAFF626A11
:109AD0006169A9EB050504326D089142824600EBED
